{
  "_format": "hh-sol-artifact-1",
  "contractName": "TokenPriceOracle",
  "sourceName": "contracts/TokenPriceOracle.sol",
  "abi": [
    {
      "inputs": [],
      "stateMutability": "nonpayable",
      "type": "constructor"
    },
    {
      "inputs": [
        {
          "internalType": "string",
          "name": "pricePair",
          "type": "string"
        }
      ],
      "name": "getLatestPrice",
      "outputs": [
        {
          "internalType": "int256",
          "name": "",
          "type": "int256"
        },
        {
          "internalType": "uint8",
          "name": "",
          "type": "uint8"
        }
      ],
      "stateMutability": "view",
      "type": "function"
    },
    {
      "inputs": [
        {
          "internalType": "string",
          "name": "pricePair",
          "type": "string"
        }
      ],
      "name": "getLatestPriceMock",
      "outputs": [
        {
          "internalType": "bool",
          "name": "",
          "type": "bool"
        },
        {
          "internalType": "int256",
          "name": "",
          "type": "int256"
        },
        {
          "internalType": "uint8",
          "name": "",
          "type": "uint8"
        }
      ],
      "stateMutability": "view",
      "type": "function"
    }
  ],
  "bytecode": "0x60806040523480156200001157600080fd5b50739326bfa02add2366b30bacb125260af6410313316000806101000a81548173ffffffffffffffffffffffffffffffffffffffff021916908373ffffffffffffffffffffffffffffffffffffffff1602179055507322b58f1ebedfca50fef632bd73368b2fda96d541600360006101000a81548173ffffffffffffffffffffffffffffffffffffffff021916908373ffffffffffffffffffffffffffffffffffffffff16021790555073777a68032a88e5a84678a77af2cd65a7b3c0775a600160006101000a81548173ffffffffffffffffffffffffffffffffffffffff021916908373ffffffffffffffffffffffffffffffffffffffff160217905550730bf499444525a23e7bb61997539725ca2e928138600460006101000a81548173ffffffffffffffffffffffffffffffffffffffff021916908373ffffffffffffffffffffffffffffffffffffffff160217905550739211c6b3bf41a10f78539810cf5c64e1bb78ec60600260006101000a81548173ffffffffffffffffffffffffffffffffffffffff021916908373ffffffffffffffffffffffffffffffffffffffff16021790555060016005604051620001cc9062000446565b908152602001604051809103902060006101000a81548160ff021916908315150217905550600160056040516200020390620004ad565b908152602001604051809103902060006101000a81548160ff021916908315150217905550600160056040516200023a9062000514565b908152602001604051809103902060006101000a81548160ff0219169083151502179055506001600560405162000271906200057b565b908152602001604051809103902060006101000a81548160ff02191690831515021790555060016005604051620002a890620005e2565b908152602001604051809103902060006101000a81548160ff02191690831515021790555060086006604051620002df9062000446565b908152602001604051809103902060006101000a81548160ff021916908360ff160217905550601260066040516200031790620004ad565b908152602001604051809103902060006101000a81548160ff021916908360ff160217905550600860066040516200034f9062000514565b908152602001604051809103902060006101000a81548160ff021916908360ff1602179055506012600660405162000387906200057b565b908152602001604051809103902060006101000a81548160ff021916908360ff16021790555060086006604051620003bf90620005e2565b908152602001604051809103902060006101000a81548160ff021916908360ff160217905550620005f9565b600081905092915050565b7f4554485553440000000000000000000000000000000000000000000000000000600082015250565b60006200042e600683620003eb565b91506200043b82620003f6565b600682019050919050565b600062000453826200041f565b9150819050919050565b7f4441494554480000000000000000000000000000000000000000000000000000600082015250565b600062000495600683620003eb565b9150620004a2826200045d565b600682019050919050565b6000620004ba8262000486565b9150819050919050565b7f4441495553440000000000000000000000000000000000000000000000000000600082015250565b6000620004fc600683620003eb565b91506200050982620004c4565b600682019050919050565b60006200052182620004ed565b9150819050919050565b7f5553444345544800000000000000000000000000000000000000000000000000600082015250565b600062000563600783620003eb565b915062000570826200052b565b600782019050919050565b6000620005888262000554565b9150819050919050565b7f5553444355534400000000000000000000000000000000000000000000000000600082015250565b6000620005ca600783620003eb565b9150620005d78262000592565b600782019050919050565b6000620005ef82620005bb565b9150819050919050565b61108880620006096000396000f3fe608060405234801561001057600080fd5b50600436106100365760003560e01c806393f8cac21461003b578063f66a1b711461006d575b600080fd5b61005560048036038101906100509190610b47565b61009e565b60405161006493929190610be0565b60405180910390f35b61008760048036038101906100829190610b47565b610377565b604051610095929190610c17565b60405180910390f35b600080600080600080600190506040516020016100ba90610c97565b60405160208183030381529060405280519060200120876040516020016100e19190610d1b565b60405160208183030381529060405280519060200120141561013657645d21dba0009250600660405161011390610c97565b908152602001604051809103902060009054906101000a900460ff169150610364565b60405160200161014590610d7e565b604051602081830303815290604052805190602001208760405160200161016c9190610d1b565b6040516020818303038152906040528051906020012014156101c05763069db9c09250600660405161019d90610d7e565b908152602001604051809103902060009054906101000a900460ff169150610363565b6040516020016101cf90610ddf565b60405160208183030381529060405280519060200120876040516020016101f69190610d1b565b60405160208183030381529060405280519060200120141561024a576306acfc009250600660405161022790610ddf565b908152602001604051809103902060009054906101000a900460ff169150610362565b60405160200161025990610e40565b60405160208183030381529060405280519060200120876040516020016102809190610d1b565b6040516020818303038152906040528051906020012014156102d7576608e1bc9bf04000925060066040516102b490610e40565b908152602001604051809103902060009054906101000a900460ff169150610361565b6040516020016102e690610ea1565b604051602081830303815290604052805190602001208760405160200161030d9190610d1b565b604051602081830303815290604052805190602001201415610360576608e1bc9bf040009250600660405161034190610ea1565b908152602001604051809103902060009054906101000a900460ff1691505b5b5b5b5b8083839550955095505050509193909250565b60008060058360405161038a9190610d1b565b908152602001604051809103902060009054906101000a900460ff166103e5576040517f08c379a00000000000000000000000000000000000000000000000000000000081526004016103dc90610f13565b60405180910390fd5b6000806040516020016103f790610c97565b604051602081830303815290604052805190602001208560405160200161041e9190610d1b565b6040516020818303038152906040528051906020012014156105185760008054906101000a900473ffffffffffffffffffffffffffffffffffffffff1673ffffffffffffffffffffffffffffffffffffffff1663feaf968c6040518163ffffffff1660e01b815260040160a06040518083038186803b1580156104a057600080fd5b505afa1580156104b4573d6000803e3d6000fd5b505050506040513d601f19601f820116820180604052508101906104d89190610fd7565b90919293509091509050508092505060066040516104f590610c97565b908152602001604051809103902060009054906101000a900460ff1690506109e0565b60405160200161052790610d7e565b604051602081830303815290604052805190602001208560405160200161054e9190610d1b565b60405160208183030381529060405280519060200120141561064a57600160009054906101000a900473ffffffffffffffffffffffffffffffffffffffff1673ffffffffffffffffffffffffffffffffffffffff1663feaf968c6040518163ffffffff1660e01b815260040160a06040518083038186803b1580156105d257600080fd5b505afa1580156105e6573d6000803e3d6000fd5b505050506040513d601f19601f8201168201806040525081019061060a9190610fd7565b909192935090915090505080925050600660405161062790610d7e565b908152602001604051809103902060009054906101000a900460ff1690506109df565b60405160200161065990610ddf565b60405160208183030381529060405280519060200120856040516020016106809190610d1b565b60405160208183030381529060405280519060200120141561077c57600260009054906101000a900473ffffffffffffffffffffffffffffffffffffffff1673ffffffffffffffffffffffffffffffffffffffff1663feaf968c6040518163ffffffff1660e01b815260040160a06040518083038186803b15801561070457600080fd5b505afa158015610718573d6000803e3d6000fd5b505050506040513d601f19601f8201168201806040525081019061073c9190610fd7565b909192935090915090505080925050600660405161075990610ddf565b908152602001604051809103902060009054906101000a900460ff1690506109de565b60405160200161078b90610e40565b60405160208183030381529060405280519060200120856040516020016107b29190610d1b565b6040516020818303038152906040528051906020012014156108ae57600360009054906101000a900473ffffffffffffffffffffffffffffffffffffffff1673ffffffffffffffffffffffffffffffffffffffff1663feaf968c6040518163ffffffff1660e01b815260040160a06040518083038186803b15801561083657600080fd5b505afa15801561084a573d6000803e3d6000fd5b505050506040513d601f19601f8201168201806040525081019061086e9190610fd7565b909192935090915090505080925050600660405161088b90610e40565b908152602001604051809103902060009054906101000a900460ff1690506109dd565b6040516020016108bd90610ea1565b60405160208183030381529060405280519060200120856040516020016108e49190610d1b565b6040516020818303038152906040528051906020012014156109dc57600460009054906101000a900473ffffffffffffffffffffffffffffffffffffffff1673ffffffffffffffffffffffffffffffffffffffff1663feaf968c6040518163ffffffff1660e01b815260040160a06040518083038186803b15801561096857600080fd5b505afa15801561097c573d6000803e3d6000fd5b505050506040513d601f19601f820116820180604052508101906109a09190610fd7565b90919293509091509050508092505060066040516109bd90610ea1565b908152602001604051809103902060009054906101000a900460ff1690505b5b5b5b5b8181935093505050915091565b6000604051905090565b600080fd5b600080fd5b600080fd5b600080fd5b6000601f19601f8301169050919050565b7f4e487b7100000000000000000000000000000000000000000000000000000000600052604160045260246000fd5b610a5482610a0b565b810181811067ffffffffffffffff82111715610a7357610a72610a1c565b5b80604052505050565b6000610a866109ed565b9050610a928282610a4b565b919050565b600067ffffffffffffffff821115610ab257610ab1610a1c565b5b610abb82610a0b565b9050602081019050919050565b82818337600083830152505050565b6000610aea610ae584610a97565b610a7c565b905082815260208101848484011115610b0657610b05610a06565b5b610b11848285610ac8565b509392505050565b600082601f830112610b2e57610b2d610a01565b5b8135610b3e848260208601610ad7565b91505092915050565b600060208284031215610b5d57610b5c6109f7565b5b600082013567ffffffffffffffff811115610b7b57610b7a6109fc565b5b610b8784828501610b19565b91505092915050565b60008115159050919050565b610ba581610b90565b82525050565b6000819050919050565b610bbe81610bab565b82525050565b600060ff82169050919050565b610bda81610bc4565b82525050565b6000606082019050610bf56000830186610b9c565b610c026020830185610bb5565b610c0f6040830184610bd1565b949350505050565b6000604082019050610c2c6000830185610bb5565b610c396020830184610bd1565b9392505050565b600081905092915050565b7f4554485553440000000000000000000000000000000000000000000000000000600082015250565b6000610c81600683610c40565b9150610c8c82610c4b565b600682019050919050565b6000610ca282610c74565b9150819050919050565b600081519050919050565b60005b83811015610cd5578082015181840152602081019050610cba565b83811115610ce4576000848401525b50505050565b6000610cf582610cac565b610cff8185610c40565b9350610d0f818560208601610cb7565b80840191505092915050565b6000610d278284610cea565b915081905092915050565b7f4441495553440000000000000000000000000000000000000000000000000000600082015250565b6000610d68600683610c40565b9150610d7382610d32565b600682019050919050565b6000610d8982610d5b565b9150819050919050565b7f5553444355534400000000000000000000000000000000000000000000000000600082015250565b6000610dc9600783610c40565b9150610dd482610d93565b600782019050919050565b6000610dea82610dbc565b9150819050919050565b7f4441494554480000000000000000000000000000000000000000000000000000600082015250565b6000610e2a600683610c40565b9150610e3582610df4565b600682019050919050565b6000610e4b82610e1d565b9150819050919050565b7f5553444345544800000000000000000000000000000000000000000000000000600082015250565b6000610e8b600783610c40565b9150610e9682610e55565b600782019050919050565b6000610eac82610e7e565b9150819050919050565b600082825260208201905092915050565b7f556e657870656374656420707269636550616972000000000000000000000000600082015250565b6000610efd601483610eb6565b9150610f0882610ec7565b602082019050919050565b60006020820190508181036000830152610f2c81610ef0565b9050919050565b600069ffffffffffffffffffff82169050919050565b610f5281610f33565b8114610f5d57600080fd5b50565b600081519050610f6f81610f49565b92915050565b610f7e81610bab565b8114610f8957600080fd5b50565b600081519050610f9b81610f75565b92915050565b6000819050919050565b610fb481610fa1565b8114610fbf57600080fd5b50565b600081519050610fd181610fab565b92915050565b600080600080600060a08688031215610ff357610ff26109f7565b5b600061100188828901610f60565b955050602061101288828901610f8c565b945050604061102388828901610fc2565b935050606061103488828901610fc2565b925050608061104588828901610f60565b915050929550929590935056fea26469706673582212206e81caee9b934dbf209e49a462647b018b95adcd4906d6e34ae6ef4e4934375864736f6c63430008090033",
  "linkReferences": {},
  "deployedLinkReferences": {}
}