{
  "_format": "hh-sol-artifact-1",
  "contractName": "LendingPoolLogic",
  "sourceName": "contracts/LendingPoolLogic.sol",
  "abi": [
    {
      "inputs": [],
      "name": "getCollateralManagerAddress",
      "outputs": [
        {
          "internalType": "address",
          "name": "",
          "type": "address"
        }
      ],
      "stateMutability": "view",
      "type": "function"
    },
    {
      "inputs": [
        {
          "internalType": "address",
          "name": "collateral",
          "type": "address"
        },
        {
          "internalType": "address",
          "name": "asset",
          "type": "address"
        }
      ],
      "name": "getMockFloorPrice",
      "outputs": [
        {
          "internalType": "uint256",
          "name": "",
          "type": "uint256"
        }
      ],
      "stateMutability": "view",
      "type": "function"
    },
    {
      "inputs": [],
      "name": "getTokenPriceOracleAddress",
      "outputs": [
        {
          "internalType": "address",
          "name": "",
          "type": "address"
        }
      ],
      "stateMutability": "view",
      "type": "function"
    },
    {
      "inputs": [
        {
          "internalType": "address",
          "name": "asset",
          "type": "address"
        },
        {
          "internalType": "uint256",
          "name": "price",
          "type": "uint256"
        }
      ],
      "name": "setMockEthTokenPrice",
      "outputs": [],
      "stateMutability": "nonpayable",
      "type": "function"
    },
    {
      "inputs": [
        {
          "internalType": "address",
          "name": "collateral",
          "type": "address"
        },
        {
          "internalType": "uint256",
          "name": "floorPrice",
          "type": "uint256"
        }
      ],
      "name": "setMockFloorPrice",
      "outputs": [],
      "stateMutability": "nonpayable",
      "type": "function"
    }
  ],
  "bytecode": "0x60806040526000600460146101000a81548160ff02191690831515021790555034801561002b57600080fd5b506106d78061003b6000396000f3fe608060405234801561001057600080fd5b50600436106100575760003560e01c80630fd124681461005c578063243e70b21461008c5780634b709a18146100aa57806361454fc4146100c8578063f8500e18146100e4575b600080fd5b610076600480360381019061007191906103c5565b610100565b604051610083919061041e565b60405180910390f35b610094610252565b6040516100a19190610448565b60405180910390f35b6100b261027c565b6040516100bf9190610448565b60405180910390f35b6100e260048036038101906100dd919061048f565b6102a6565b005b6100fe60048036038101906100f9919061048f565b6102ee565b005b600080600760008573ffffffffffffffffffffffffffffffffffffffff1673ffffffffffffffffffffffffffffffffffffffff16815260200190815260200160002054905060008111610188576040517f08c379a000000000000000000000000000000000000000000000000000000000815260040161017f9061052c565b60405180910390fd5b6000600860008573ffffffffffffffffffffffffffffffffffffffff1673ffffffffffffffffffffffffffffffffffffffff1681526020019081526020016000205490506000811161020f576040517f08c379a000000000000000000000000000000000000000000000000000000000815260040161020690610598565b60405180910390fd5b6000670de0b6b3a76400009050600061024382610235858761033690919063ffffffff16565b61034c90919063ffffffff16565b90508094505050505092915050565b6000600360009054906101000a900473ffffffffffffffffffffffffffffffffffffffff16905090565b6000600460009054906101000a900473ffffffffffffffffffffffffffffffffffffffff16905090565b80600760008473ffffffffffffffffffffffffffffffffffffffff1673ffffffffffffffffffffffffffffffffffffffff168152602001908152602001600020819055505050565b80600860008473ffffffffffffffffffffffffffffffffffffffff1673ffffffffffffffffffffffffffffffffffffffff168152602001908152602001600020819055505050565b6000818361034491906105e7565b905092915050565b6000818361035a9190610670565b905092915050565b600080fd5b600073ffffffffffffffffffffffffffffffffffffffff82169050919050565b600061039282610367565b9050919050565b6103a281610387565b81146103ad57600080fd5b50565b6000813590506103bf81610399565b92915050565b600080604083850312156103dc576103db610362565b5b60006103ea858286016103b0565b92505060206103fb858286016103b0565b9150509250929050565b6000819050919050565b61041881610405565b82525050565b6000602082019050610433600083018461040f565b92915050565b61044281610387565b82525050565b600060208201905061045d6000830184610439565b92915050565b61046c81610405565b811461047757600080fd5b50565b60008135905061048981610463565b92915050565b600080604083850312156104a6576104a5610362565b5b60006104b4858286016103b0565b92505060206104c58582860161047a565b9150509250929050565b600082825260208201905092915050565b7f554e5345545f4d4f434b5f464c4f4f5250524943450000000000000000000000600082015250565b60006105166015836104cf565b9150610521826104e0565b602082019050919050565b6000602082019050818103600083015261054581610509565b9050919050565b7f554e5345545f4d4f434b5f544f4b454e50524943450000000000000000000000600082015250565b60006105826015836104cf565b915061058d8261054c565b602082019050919050565b600060208201905081810360008301526105b181610575565b9050919050565b7f4e487b7100000000000000000000000000000000000000000000000000000000600052601160045260246000fd5b60006105f282610405565b91506105fd83610405565b9250817fffffffffffffffffffffffffffffffffffffffffffffffffffffffffffffffff0483118215151615610636576106356105b8565b5b828202905092915050565b7f4e487b7100000000000000000000000000000000000000000000000000000000600052601260045260246000fd5b600061067b82610405565b915061068683610405565b92508261069657610695610641565b5b82820490509291505056fea26469706673582212203203ccdbedcaadb664f572d35424e77eb3e9877e76caf3bb107f9da027224be664736f6c63430008090033",
  "linkReferences": {},
  "deployedLinkReferences": {}
}