{
  "_format": "hh-sol-artifact-1",
  "contractName": "DebtToken",
  "sourceName": "contracts/DebtToken.sol",
  "abi": [
    {
      "inputs": [
        {
          "internalType": "address",
          "name": "configurator",
          "type": "address"
        },
        {
          "internalType": "address",
          "name": "lendingPool",
          "type": "address"
        },
        {
          "internalType": "string",
          "name": "name",
          "type": "string"
        },
        {
          "internalType": "string",
          "name": "symbol",
          "type": "string"
        }
      ],
      "stateMutability": "nonpayable",
      "type": "constructor"
    },
    {
      "anonymous": false,
      "inputs": [
        {
          "indexed": true,
          "internalType": "address",
          "name": "owner",
          "type": "address"
        },
        {
          "indexed": true,
          "internalType": "address",
          "name": "spender",
          "type": "address"
        },
        {
          "indexed": false,
          "internalType": "uint256",
          "name": "value",
          "type": "uint256"
        }
      ],
      "name": "Approval",
      "type": "event"
    },
    {
      "anonymous": false,
      "inputs": [
        {
          "indexed": false,
          "internalType": "address",
          "name": "account",
          "type": "address"
        }
      ],
      "name": "Paused",
      "type": "event"
    },
    {
      "anonymous": false,
      "inputs": [
        {
          "indexed": true,
          "internalType": "bytes32",
          "name": "role",
          "type": "bytes32"
        },
        {
          "indexed": true,
          "internalType": "bytes32",
          "name": "previousAdminRole",
          "type": "bytes32"
        },
        {
          "indexed": true,
          "internalType": "bytes32",
          "name": "newAdminRole",
          "type": "bytes32"
        }
      ],
      "name": "RoleAdminChanged",
      "type": "event"
    },
    {
      "anonymous": false,
      "inputs": [
        {
          "indexed": true,
          "internalType": "bytes32",
          "name": "role",
          "type": "bytes32"
        },
        {
          "indexed": true,
          "internalType": "address",
          "name": "account",
          "type": "address"
        },
        {
          "indexed": true,
          "internalType": "address",
          "name": "sender",
          "type": "address"
        }
      ],
      "name": "RoleGranted",
      "type": "event"
    },
    {
      "anonymous": false,
      "inputs": [
        {
          "indexed": true,
          "internalType": "bytes32",
          "name": "role",
          "type": "bytes32"
        },
        {
          "indexed": true,
          "internalType": "address",
          "name": "account",
          "type": "address"
        },
        {
          "indexed": true,
          "internalType": "address",
          "name": "sender",
          "type": "address"
        }
      ],
      "name": "RoleRevoked",
      "type": "event"
    },
    {
      "anonymous": false,
      "inputs": [
        {
          "indexed": true,
          "internalType": "address",
          "name": "from",
          "type": "address"
        },
        {
          "indexed": true,
          "internalType": "address",
          "name": "to",
          "type": "address"
        },
        {
          "indexed": false,
          "internalType": "uint256",
          "name": "value",
          "type": "uint256"
        }
      ],
      "name": "Transfer",
      "type": "event"
    },
    {
      "anonymous": false,
      "inputs": [
        {
          "indexed": false,
          "internalType": "address",
          "name": "account",
          "type": "address"
        }
      ],
      "name": "Unpaused",
      "type": "event"
    },
    {
      "inputs": [],
      "name": "CONFIGURATOR_ROLE",
      "outputs": [
        {
          "internalType": "bytes32",
          "name": "",
          "type": "bytes32"
        }
      ],
      "stateMutability": "view",
      "type": "function"
    },
    {
      "inputs": [],
      "name": "DEFAULT_ADMIN_ROLE",
      "outputs": [
        {
          "internalType": "bytes32",
          "name": "",
          "type": "bytes32"
        }
      ],
      "stateMutability": "view",
      "type": "function"
    },
    {
      "inputs": [],
      "name": "LENDING_POOL_ROLE",
      "outputs": [
        {
          "internalType": "bytes32",
          "name": "",
          "type": "bytes32"
        }
      ],
      "stateMutability": "view",
      "type": "function"
    },
    {
      "inputs": [
        {
          "internalType": "address",
          "name": "owner",
          "type": "address"
        },
        {
          "internalType": "address",
          "name": "spender",
          "type": "address"
        }
      ],
      "name": "allowance",
      "outputs": [
        {
          "internalType": "uint256",
          "name": "",
          "type": "uint256"
        }
      ],
      "stateMutability": "view",
      "type": "function"
    },
    {
      "inputs": [
        {
          "internalType": "address",
          "name": "spender",
          "type": "address"
        },
        {
          "internalType": "uint256",
          "name": "amount",
          "type": "uint256"
        }
      ],
      "name": "approve",
      "outputs": [
        {
          "internalType": "bool",
          "name": "",
          "type": "bool"
        }
      ],
      "stateMutability": "nonpayable",
      "type": "function"
    },
    {
      "inputs": [
        {
          "internalType": "address",
          "name": "account",
          "type": "address"
        }
      ],
      "name": "balanceOf",
      "outputs": [
        {
          "internalType": "uint256",
          "name": "",
          "type": "uint256"
        }
      ],
      "stateMutability": "view",
      "type": "function"
    },
    {
      "inputs": [
        {
          "internalType": "uint256",
          "name": "amount",
          "type": "uint256"
        }
      ],
      "name": "burn",
      "outputs": [],
      "stateMutability": "nonpayable",
      "type": "function"
    },
    {
      "inputs": [
        {
          "internalType": "address",
          "name": "account",
          "type": "address"
        },
        {
          "internalType": "uint256",
          "name": "amount",
          "type": "uint256"
        }
      ],
      "name": "burnFrom",
      "outputs": [
        {
          "internalType": "bool",
          "name": "",
          "type": "bool"
        }
      ],
      "stateMutability": "nonpayable",
      "type": "function"
    },
    {
      "inputs": [],
      "name": "decimals",
      "outputs": [
        {
          "internalType": "uint8",
          "name": "",
          "type": "uint8"
        }
      ],
      "stateMutability": "view",
      "type": "function"
    },
    {
      "inputs": [
        {
          "internalType": "address",
          "name": "spender",
          "type": "address"
        },
        {
          "internalType": "uint256",
          "name": "subtractedValue",
          "type": "uint256"
        }
      ],
      "name": "decreaseAllowance",
      "outputs": [
        {
          "internalType": "bool",
          "name": "",
          "type": "bool"
        }
      ],
      "stateMutability": "nonpayable",
      "type": "function"
    },
    {
      "inputs": [
        {
          "internalType": "bytes32",
          "name": "role",
          "type": "bytes32"
        }
      ],
      "name": "getRoleAdmin",
      "outputs": [
        {
          "internalType": "bytes32",
          "name": "",
          "type": "bytes32"
        }
      ],
      "stateMutability": "view",
      "type": "function"
    },
    {
      "inputs": [
        {
          "internalType": "bytes32",
          "name": "role",
          "type": "bytes32"
        },
        {
          "internalType": "address",
          "name": "account",
          "type": "address"
        }
      ],
      "name": "grantRole",
      "outputs": [],
      "stateMutability": "nonpayable",
      "type": "function"
    },
    {
      "inputs": [
        {
          "internalType": "bytes32",
          "name": "role",
          "type": "bytes32"
        },
        {
          "internalType": "address",
          "name": "account",
          "type": "address"
        }
      ],
      "name": "hasRole",
      "outputs": [
        {
          "internalType": "bool",
          "name": "",
          "type": "bool"
        }
      ],
      "stateMutability": "view",
      "type": "function"
    },
    {
      "inputs": [
        {
          "internalType": "address",
          "name": "spender",
          "type": "address"
        },
        {
          "internalType": "uint256",
          "name": "addedValue",
          "type": "uint256"
        }
      ],
      "name": "increaseAllowance",
      "outputs": [
        {
          "internalType": "bool",
          "name": "",
          "type": "bool"
        }
      ],
      "stateMutability": "nonpayable",
      "type": "function"
    },
    {
      "inputs": [
        {
          "internalType": "address",
          "name": "to",
          "type": "address"
        },
        {
          "internalType": "uint256",
          "name": "amount",
          "type": "uint256"
        }
      ],
      "name": "mint",
      "outputs": [
        {
          "internalType": "bool",
          "name": "",
          "type": "bool"
        }
      ],
      "stateMutability": "nonpayable",
      "type": "function"
    },
    {
      "inputs": [],
      "name": "name",
      "outputs": [
        {
          "internalType": "string",
          "name": "",
          "type": "string"
        }
      ],
      "stateMutability": "view",
      "type": "function"
    },
    {
      "inputs": [],
      "name": "pause",
      "outputs": [],
      "stateMutability": "nonpayable",
      "type": "function"
    },
    {
      "inputs": [],
      "name": "paused",
      "outputs": [
        {
          "internalType": "bool",
          "name": "",
          "type": "bool"
        }
      ],
      "stateMutability": "view",
      "type": "function"
    },
    {
      "inputs": [
        {
          "internalType": "bytes32",
          "name": "role",
          "type": "bytes32"
        },
        {
          "internalType": "address",
          "name": "account",
          "type": "address"
        }
      ],
      "name": "renounceRole",
      "outputs": [],
      "stateMutability": "nonpayable",
      "type": "function"
    },
    {
      "inputs": [
        {
          "internalType": "bytes32",
          "name": "role",
          "type": "bytes32"
        },
        {
          "internalType": "address",
          "name": "account",
          "type": "address"
        }
      ],
      "name": "revokeRole",
      "outputs": [],
      "stateMutability": "nonpayable",
      "type": "function"
    },
    {
      "inputs": [
        {
          "internalType": "bytes4",
          "name": "interfaceId",
          "type": "bytes4"
        }
      ],
      "name": "supportsInterface",
      "outputs": [
        {
          "internalType": "bool",
          "name": "",
          "type": "bool"
        }
      ],
      "stateMutability": "view",
      "type": "function"
    },
    {
      "inputs": [],
      "name": "symbol",
      "outputs": [
        {
          "internalType": "string",
          "name": "",
          "type": "string"
        }
      ],
      "stateMutability": "view",
      "type": "function"
    },
    {
      "inputs": [],
      "name": "totalSupply",
      "outputs": [
        {
          "internalType": "uint256",
          "name": "",
          "type": "uint256"
        }
      ],
      "stateMutability": "view",
      "type": "function"
    },
    {
      "inputs": [
        {
          "internalType": "address",
          "name": "recipient",
          "type": "address"
        },
        {
          "internalType": "uint256",
          "name": "amount",
          "type": "uint256"
        }
      ],
      "name": "transfer",
      "outputs": [
        {
          "internalType": "bool",
          "name": "",
          "type": "bool"
        }
      ],
      "stateMutability": "nonpayable",
      "type": "function"
    },
    {
      "inputs": [
        {
          "internalType": "address",
          "name": "to",
          "type": "address"
        },
        {
          "internalType": "address",
          "name": "asset",
          "type": "address"
        },
        {
          "internalType": "uint256",
          "name": "amount",
          "type": "uint256"
        }
      ],
      "name": "transfer",
      "outputs": [],
      "stateMutability": "nonpayable",
      "type": "function"
    },
    {
      "inputs": [
        {
          "internalType": "address",
          "name": "from",
          "type": "address"
        },
        {
          "internalType": "address",
          "name": "to",
          "type": "address"
        },
        {
          "internalType": "uint256",
          "name": "amount",
          "type": "uint256"
        }
      ],
      "name": "transferFrom",
      "outputs": [
        {
          "internalType": "bool",
          "name": "",
          "type": "bool"
        }
      ],
      "stateMutability": "nonpayable",
      "type": "function"
    },
    {
      "inputs": [],
      "name": "unpause",
      "outputs": [],
      "stateMutability": "nonpayable",
      "type": "function"
    }
  ],
  "bytecode": "0x60806040523480156200001157600080fd5b50604051620035ed380380620035ed83398181016040528101906200003791906200052b565b818181600390805190602001906200005192919062000279565b5080600490805190602001906200006a92919062000279565b5050506000600560006101000a81548160ff0219169083151502179055506001600781905550620000c27f3b49a237fe2d18fa4d9642b8a0e065923cceb71b797783b619a030a61d848bf085620000fe60201b60201c565b620000f47fa05e016071881d2170d364744d63b2e41aeb933bc5c5727596db7b66f663c3ea84620000fe60201b60201c565b5050505062000640565b6200011082826200011460201b60201c565b5050565b6200012682826200020660201b60201c565b620002025760016006600084815260200190815260200160002060000160008373ffffffffffffffffffffffffffffffffffffffff1673ffffffffffffffffffffffffffffffffffffffff16815260200190815260200160002060006101000a81548160ff021916908315150217905550620001a76200027160201b60201c565b73ffffffffffffffffffffffffffffffffffffffff168173ffffffffffffffffffffffffffffffffffffffff16837f2f8788117e7eff1d82e926ec794901d17c78024a50270940304540a733656f0d60405160405180910390a45b5050565b60006006600084815260200190815260200160002060000160008373ffffffffffffffffffffffffffffffffffffffff1673ffffffffffffffffffffffffffffffffffffffff16815260200190815260200160002060009054906101000a900460ff16905092915050565b600033905090565b82805462000287906200060a565b90600052602060002090601f016020900481019282620002ab5760008555620002f7565b82601f10620002c657805160ff1916838001178555620002f7565b82800160010185558215620002f7579182015b82811115620002f6578251825591602001919060010190620002d9565b5b5090506200030691906200030a565b5090565b5b80821115620003255760008160009055506001016200030b565b5090565b6000604051905090565b600080fd5b600080fd5b600073ffffffffffffffffffffffffffffffffffffffff82169050919050565b60006200036a826200033d565b9050919050565b6200037c816200035d565b81146200038857600080fd5b50565b6000815190506200039c8162000371565b92915050565b600080fd5b600080fd5b6000601f19601f8301169050919050565b7f4e487b7100000000000000000000000000000000000000000000000000000000600052604160045260246000fd5b620003f782620003ac565b810181811067ffffffffffffffff82111715620004195762000418620003bd565b5b80604052505050565b60006200042e62000329565b90506200043c8282620003ec565b919050565b600067ffffffffffffffff8211156200045f576200045e620003bd565b5b6200046a82620003ac565b9050602081019050919050565b60005b83811015620004975780820151818401526020810190506200047a565b83811115620004a7576000848401525b50505050565b6000620004c4620004be8462000441565b62000422565b905082815260208101848484011115620004e357620004e2620003a7565b5b620004f084828562000477565b509392505050565b600082601f83011262000510576200050f620003a2565b5b815162000522848260208601620004ad565b91505092915050565b6000806000806080858703121562000548576200054762000333565b5b600062000558878288016200038b565b94505060206200056b878288016200038b565b935050604085015167ffffffffffffffff8111156200058f576200058e62000338565b5b6200059d87828801620004f8565b925050606085015167ffffffffffffffff811115620005c157620005c062000338565b5b620005cf87828801620004f8565b91505092959194509250565b7f4e487b7100000000000000000000000000000000000000000000000000000000600052602260045260246000fd5b600060028204905060018216806200062357607f821691505b602082108114156200063a5762000639620005db565b5b50919050565b612f9d80620006506000396000f3fe608060405234801561001057600080fd5b50600436106101a95760003560e01c80635c975abb116100f9578063a457c2d711610097578063d547741f11610071578063d547741f146104f6578063d853015e14610512578063dd62ed3e14610530578063e026863614610560576101a9565b8063a457c2d71461047a578063a9059cbb146104aa578063beabacc8146104da576101a9565b80638456cb59116100d35780638456cb591461040457806391d148541461040e57806395d89b411461043e578063a217fddf1461045c576101a9565b80635c975abb1461038657806370a08231146103a457806379cc6790146103d4576101a9565b80632f2ff15d11610166578063395093511161014057806339509351146103005780633f4ba83a1461033057806340c10f191461033a57806342966c681461036a576101a9565b80632f2ff15d146102aa578063313ce567146102c657806336568abe146102e4576101a9565b806301ffc9a7146101ae57806306fdde03146101de578063095ea7b3146101fc57806318160ddd1461022c57806323b872dd1461024a578063248a9ca31461027a575b600080fd5b6101c860048036038101906101c39190611e3a565b61057e565b6040516101d59190611e82565b60405180910390f35b6101e66105f8565b6040516101f39190611f36565b60405180910390f35b61021660048036038101906102119190611fec565b61068a565b6040516102239190611e82565b60405180910390f35b6102346106c7565b604051610241919061203b565b60405180910390f35b610264600480360381019061025f9190612056565b6106d1565b6040516102719190611e82565b60405180910390f35b610294600480360381019061028f91906120df565b61070e565b6040516102a1919061211b565b60405180910390f35b6102c460048036038101906102bf9190612136565b61072e565b005b6102ce610757565b6040516102db9190612192565b60405180910390f35b6102fe60048036038101906102f99190612136565b610760565b005b61031a60048036038101906103159190611fec565b6107e3565b6040516103279190611e82565b60405180910390f35b61033861088f565b005b610354600480360381019061034f9190611fec565b610909565b6040516103619190611e82565b60405180910390f35b610384600480360381019061037f91906121ad565b610a2d565b005b61038e610a68565b60405161039b9190611e82565b60405180910390f35b6103be60048036038101906103b991906121da565b610a7f565b6040516103cb919061203b565b60405180910390f35b6103ee60048036038101906103e99190611fec565b610ac7565b6040516103fb9190611e82565b60405180910390f35b61040c610beb565b005b61042860048036038101906104239190612136565b610c65565b6040516104359190611e82565b60405180910390f35b610446610cd0565b6040516104539190611f36565b60405180910390f35b610464610d62565b604051610471919061211b565b60405180910390f35b610494600480360381019061048f9190611fec565b610d69565b6040516104a19190611e82565b60405180910390f35b6104c460048036038101906104bf9190611fec565b610e54565b6040516104d19190611e82565b60405180910390f35b6104f460048036038101906104ef9190612056565b610e72565b005b610510600480360381019061050b9190612136565b610ead565b005b61051a610ed6565b604051610527919061211b565b60405180910390f35b61054a60048036038101906105459190612207565b610efa565b604051610557919061203b565b60405180910390f35b610568610f81565b604051610575919061211b565b60405180910390f35b60007f7965db0b000000000000000000000000000000000000000000000000000000007bffffffffffffffffffffffffffffffffffffffffffffffffffffffff1916827bffffffffffffffffffffffffffffffffffffffffffffffffffffffff191614806105f157506105f082610fa5565b5b9050919050565b60606003805461060790612276565b80601f016020809104026020016040519081016040528092919081815260200182805461063390612276565b80156106805780601f1061065557610100808354040283529160200191610680565b820191906000526020600020905b81548152906001019060200180831161066357829003601f168201915b5050505050905090565b60006040517f08c379a00000000000000000000000000000000000000000000000000000000081526004016106be906122f4565b60405180910390fd5b6000600254905090565b60006040517f08c379a000000000000000000000000000000000000000000000000000000000815260040161070590612360565b60405180910390fd5b600060066000838152602001908152602001600020600101549050919050565b6107378261070e565b6107488161074361100f565b611017565b61075283836110b4565b505050565b60006012905090565b61076861100f565b73ffffffffffffffffffffffffffffffffffffffff168173ffffffffffffffffffffffffffffffffffffffff16146107d5576040517f08c379a00000000000000000000000000000000000000000000000000000000081526004016107cc906123f2565b60405180910390fd5b6107df8282611195565b5050565b60006108856107f061100f565b8484600160006107fe61100f565b73ffffffffffffffffffffffffffffffffffffffff1673ffffffffffffffffffffffffffffffffffffffff16815260200190815260200160002060008873ffffffffffffffffffffffffffffffffffffffff1673ffffffffffffffffffffffffffffffffffffffff168152602001908152602001600020546108809190612441565b611277565b6001905092915050565b6108c07f3b49a237fe2d18fa4d9642b8a0e065923cceb71b797783b619a030a61d848bf06108bb61100f565b610c65565b6108ff576040517f08c379a00000000000000000000000000000000000000000000000000000000081526004016108f6906124e3565b60405180910390fd5b610907611442565b565b600060026007541415610951576040517f08c379a00000000000000000000000000000000000000000000000000000000081526004016109489061254f565b60405180910390fd5b600260078190555061098a7fa05e016071881d2170d364744d63b2e41aeb933bc5c5727596db7b66f663c3ea61098561100f565b610c65565b6109c9576040517f08c379a00000000000000000000000000000000000000000000000000000000081526004016109c0906125bb565b60405180910390fd5b6109d1610a68565b15610a11576040517f08c379a0000000000000000000000000000000000000000000000000000000008152600401610a0890612627565b60405180910390fd5b610a1b83836114e4565b60019050600160078190555092915050565b6040517f08c379a0000000000000000000000000000000000000000000000000000000008152600401610a5f90612693565b60405180910390fd5b6000600560009054906101000a900460ff16905090565b60008060008373ffffffffffffffffffffffffffffffffffffffff1673ffffffffffffffffffffffffffffffffffffffff168152602001908152602001600020549050919050565b600060026007541415610b0f576040517f08c379a0000000000000000000000000000000000000000000000000000000008152600401610b069061254f565b60405180910390fd5b6002600781905550610b487fa05e016071881d2170d364744d63b2e41aeb933bc5c5727596db7b66f663c3ea610b4361100f565b610c65565b610b87576040517f08c379a0000000000000000000000000000000000000000000000000000000008152600401610b7e906125bb565b60405180910390fd5b610b8f610a68565b15610bcf576040517f08c379a0000000000000000000000000000000000000000000000000000000008152600401610bc690612627565b60405180910390fd5b610bd98383611644565b60019050600160078190555092915050565b610c1c7f3b49a237fe2d18fa4d9642b8a0e065923cceb71b797783b619a030a61d848bf0610c1761100f565b610c65565b610c5b576040517f08c379a0000000000000000000000000000000000000000000000000000000008152600401610c52906124e3565b60405180910390fd5b610c6361181b565b565b60006006600084815260200190815260200160002060000160008373ffffffffffffffffffffffffffffffffffffffff1673ffffffffffffffffffffffffffffffffffffffff16815260200190815260200160002060009054906101000a900460ff16905092915050565b606060048054610cdf90612276565b80601f0160208091040260200160405190810160405280929190818152602001828054610d0b90612276565b8015610d585780601f10610d2d57610100808354040283529160200191610d58565b820191906000526020600020905b815481529060010190602001808311610d3b57829003601f168201915b5050505050905090565b6000801b81565b60008060016000610d7861100f565b73ffffffffffffffffffffffffffffffffffffffff1673ffffffffffffffffffffffffffffffffffffffff16815260200190815260200160002060008573ffffffffffffffffffffffffffffffffffffffff1673ffffffffffffffffffffffffffffffffffffffff16815260200190815260200160002054905082811015610e35576040517f08c379a0000000000000000000000000000000000000000000000000000000008152600401610e2c90612725565b60405180910390fd5b610e49610e4061100f565b85858403611277565b600191505092915050565b6000610e68610e6161100f565b84846118be565b6001905092915050565b6040517f08c379a0000000000000000000000000000000000000000000000000000000008152600401610ea490612360565b60405180910390fd5b610eb68261070e565b610ec781610ec261100f565b611017565b610ed18383611195565b505050565b7f3b49a237fe2d18fa4d9642b8a0e065923cceb71b797783b619a030a61d848bf081565b6000600160008473ffffffffffffffffffffffffffffffffffffffff1673ffffffffffffffffffffffffffffffffffffffff16815260200190815260200160002060008373ffffffffffffffffffffffffffffffffffffffff1673ffffffffffffffffffffffffffffffffffffffff16815260200190815260200160002054905092915050565b7fa05e016071881d2170d364744d63b2e41aeb933bc5c5727596db7b66f663c3ea81565b60007f01ffc9a7000000000000000000000000000000000000000000000000000000007bffffffffffffffffffffffffffffffffffffffffffffffffffffffff1916827bffffffffffffffffffffffffffffffffffffffffffffffffffffffff1916149050919050565b600033905090565b6110218282610c65565b6110b0576110468173ffffffffffffffffffffffffffffffffffffffff166014611b3f565b6110548360001c6020611b3f565b604051602001611065929190612819565b6040516020818303038152906040526040517f08c379a00000000000000000000000000000000000000000000000000000000081526004016110a79190611f36565b60405180910390fd5b5050565b6110be8282610c65565b6111915760016006600084815260200190815260200160002060000160008373ffffffffffffffffffffffffffffffffffffffff1673ffffffffffffffffffffffffffffffffffffffff16815260200190815260200160002060006101000a81548160ff02191690831515021790555061113661100f565b73ffffffffffffffffffffffffffffffffffffffff168173ffffffffffffffffffffffffffffffffffffffff16837f2f8788117e7eff1d82e926ec794901d17c78024a50270940304540a733656f0d60405160405180910390a45b5050565b61119f8282610c65565b156112735760006006600084815260200190815260200160002060000160008373ffffffffffffffffffffffffffffffffffffffff1673ffffffffffffffffffffffffffffffffffffffff16815260200190815260200160002060006101000a81548160ff02191690831515021790555061121861100f565b73ffffffffffffffffffffffffffffffffffffffff168173ffffffffffffffffffffffffffffffffffffffff16837ff6391f5c32d9c69d2a47ea670b442974b53935d1edc7fd64eb21e047a839171b60405160405180910390a45b5050565b600073ffffffffffffffffffffffffffffffffffffffff168373ffffffffffffffffffffffffffffffffffffffff1614156112e7576040517f08c379a00000000000000000000000000000000000000000000000000000000081526004016112de906128c5565b60405180910390fd5b600073ffffffffffffffffffffffffffffffffffffffff168273ffffffffffffffffffffffffffffffffffffffff161415611357576040517f08c379a000000000000000000000000000000000000000000000000000000000815260040161134e90612957565b60405180910390fd5b80600160008573ffffffffffffffffffffffffffffffffffffffff1673ffffffffffffffffffffffffffffffffffffffff16815260200190815260200160002060008473ffffffffffffffffffffffffffffffffffffffff1673ffffffffffffffffffffffffffffffffffffffff168152602001908152602001600020819055508173ffffffffffffffffffffffffffffffffffffffff168373ffffffffffffffffffffffffffffffffffffffff167f8c5be1e5ebec7d5bd14f71427d1e84f3dd0314c0f7b2291e5b200ac8c7c3b92583604051611435919061203b565b60405180910390a3505050565b61144a610a68565b611489576040517f08c379a0000000000000000000000000000000000000000000000000000000008152600401611480906129c3565b60405180910390fd5b6000600560006101000a81548160ff0219169083151502179055507f5db9ee0a495bf2e6ff9c91a7834c1ba4fdd244a5e8aa4e537bd38aeae4b073aa6114cd61100f565b6040516114da91906129f2565b60405180910390a1565b600073ffffffffffffffffffffffffffffffffffffffff168273ffffffffffffffffffffffffffffffffffffffff161415611554576040517f08c379a000000000000000000000000000000000000000000000000000000000815260040161154b90612a59565b60405180910390fd5b61156060008383611d7b565b80600260008282546115729190612441565b92505081905550806000808473ffffffffffffffffffffffffffffffffffffffff1673ffffffffffffffffffffffffffffffffffffffff16815260200190815260200160002060008282546115c79190612441565b925050819055508173ffffffffffffffffffffffffffffffffffffffff16600073ffffffffffffffffffffffffffffffffffffffff167fddf252ad1be2c89b69c2b068fc378daa952ba7f163c4a11628f55a4df523b3ef8360405161162c919061203b565b60405180910390a361164060008383611dd3565b5050565b600073ffffffffffffffffffffffffffffffffffffffff168273ffffffffffffffffffffffffffffffffffffffff1614156116b4576040517f08c379a00000000000000000000000000000000000000000000000000000000081526004016116ab90612aeb565b60405180910390fd5b6116c082600083611d7b565b60008060008473ffffffffffffffffffffffffffffffffffffffff1673ffffffffffffffffffffffffffffffffffffffff16815260200190815260200160002054905081811015611746576040517f08c379a000000000000000000000000000000000000000000000000000000000815260040161173d90612b7d565b60405180910390fd5b8181036000808573ffffffffffffffffffffffffffffffffffffffff1673ffffffffffffffffffffffffffffffffffffffff16815260200190815260200160002081905550816002600082825461179d9190612b9d565b92505081905550600073ffffffffffffffffffffffffffffffffffffffff168373ffffffffffffffffffffffffffffffffffffffff167fddf252ad1be2c89b69c2b068fc378daa952ba7f163c4a11628f55a4df523b3ef84604051611802919061203b565b60405180910390a361181683600084611dd3565b505050565b611823610a68565b15611863576040517f08c379a000000000000000000000000000000000000000000000000000000000815260040161185a90612627565b60405180910390fd5b6001600560006101000a81548160ff0219169083151502179055507f62e78cea01bee320cd4e420270b5ea74000d11b0c9f74754ebdbfc544b05a2586118a761100f565b6040516118b491906129f2565b60405180910390a1565b600073ffffffffffffffffffffffffffffffffffffffff168373ffffffffffffffffffffffffffffffffffffffff16141561192e576040517f08c379a000000000000000000000000000000000000000000000000000000000815260040161192590612c43565b60405180910390fd5b600073ffffffffffffffffffffffffffffffffffffffff168273ffffffffffffffffffffffffffffffffffffffff16141561199e576040517f08c379a000000000000000000000000000000000000000000000000000000000815260040161199590612cd5565b60405180910390fd5b6119a9838383611d7b565b60008060008573ffffffffffffffffffffffffffffffffffffffff1673ffffffffffffffffffffffffffffffffffffffff16815260200190815260200160002054905081811015611a2f576040517f08c379a0000000000000000000000000000000000000000000000000000000008152600401611a2690612d67565b60405180910390fd5b8181036000808673ffffffffffffffffffffffffffffffffffffffff1673ffffffffffffffffffffffffffffffffffffffff16815260200190815260200160002081905550816000808573ffffffffffffffffffffffffffffffffffffffff1673ffffffffffffffffffffffffffffffffffffffff1681526020019081526020016000206000828254611ac29190612441565b925050819055508273ffffffffffffffffffffffffffffffffffffffff168473ffffffffffffffffffffffffffffffffffffffff167fddf252ad1be2c89b69c2b068fc378daa952ba7f163c4a11628f55a4df523b3ef84604051611b26919061203b565b60405180910390a3611b39848484611dd3565b50505050565b606060006002836002611b529190612d87565b611b5c9190612441565b67ffffffffffffffff811115611b7557611b74612de1565b5b6040519080825280601f01601f191660200182016040528015611ba75781602001600182028036833780820191505090505b5090507f300000000000000000000000000000000000000000000000000000000000000081600081518110611bdf57611bde612e10565b5b60200101907effffffffffffffffffffffffffffffffffffffffffffffffffffffffffffff1916908160001a9053507f780000000000000000000000000000000000000000000000000000000000000081600181518110611c4357611c42612e10565b5b60200101907effffffffffffffffffffffffffffffffffffffffffffffffffffffffffffff1916908160001a90535060006001846002611c839190612d87565b611c8d9190612441565b90505b6001811115611d2d577f3031323334353637383961626364656600000000000000000000000000000000600f861660108110611ccf57611cce612e10565b5b1a60f81b828281518110611ce657611ce5612e10565b5b60200101907effffffffffffffffffffffffffffffffffffffffffffffffffffffffffffff1916908160001a905350600485901c945080611d2690612e3f565b9050611c90565b5060008414611d71576040517f08c379a0000000000000000000000000000000000000000000000000000000008152600401611d6890612eb5565b60405180910390fd5b8091505092915050565b611d86838383611dd8565b611d8e610a68565b15611dce576040517f08c379a0000000000000000000000000000000000000000000000000000000008152600401611dc590612f47565b60405180910390fd5b505050565b505050565b505050565b600080fd5b60007fffffffff0000000000000000000000000000000000000000000000000000000082169050919050565b611e1781611de2565b8114611e2257600080fd5b50565b600081359050611e3481611e0e565b92915050565b600060208284031215611e5057611e4f611ddd565b5b6000611e5e84828501611e25565b91505092915050565b60008115159050919050565b611e7c81611e67565b82525050565b6000602082019050611e976000830184611e73565b92915050565b600081519050919050565b600082825260208201905092915050565b60005b83811015611ed7578082015181840152602081019050611ebc565b83811115611ee6576000848401525b50505050565b6000601f19601f8301169050919050565b6000611f0882611e9d565b611f128185611ea8565b9350611f22818560208601611eb9565b611f2b81611eec565b840191505092915050565b60006020820190508181036000830152611f508184611efd565b905092915050565b600073ffffffffffffffffffffffffffffffffffffffff82169050919050565b6000611f8382611f58565b9050919050565b611f9381611f78565b8114611f9e57600080fd5b50565b600081359050611fb081611f8a565b92915050565b6000819050919050565b611fc981611fb6565b8114611fd457600080fd5b50565b600081359050611fe681611fc0565b92915050565b6000806040838503121561200357612002611ddd565b5b600061201185828601611fa1565b925050602061202285828601611fd7565b9150509250929050565b61203581611fb6565b82525050565b6000602082019050612050600083018461202c565b92915050565b60008060006060848603121561206f5761206e611ddd565b5b600061207d86828701611fa1565b935050602061208e86828701611fa1565b925050604061209f86828701611fd7565b9150509250925092565b6000819050919050565b6120bc816120a9565b81146120c757600080fd5b50565b6000813590506120d9816120b3565b92915050565b6000602082840312156120f5576120f4611ddd565b5b6000612103848285016120ca565b91505092915050565b612115816120a9565b82525050565b6000602082019050612130600083018461210c565b92915050565b6000806040838503121561214d5761214c611ddd565b5b600061215b858286016120ca565b925050602061216c85828601611fa1565b9150509250929050565b600060ff82169050919050565b61218c81612176565b82525050565b60006020820190506121a76000830184612183565b92915050565b6000602082840312156121c3576121c2611ddd565b5b60006121d184828501611fd7565b91505092915050565b6000602082840312156121f0576121ef611ddd565b5b60006121fe84828501611fa1565b91505092915050565b6000806040838503121561221e5761221d611ddd565b5b600061222c85828601611fa1565b925050602061223d85828601611fa1565b9150509250929050565b7f4e487b7100000000000000000000000000000000000000000000000000000000600052602260045260246000fd5b6000600282049050600182168061228e57607f821691505b602082108114156122a2576122a1612247565b5b50919050565b7f415050524f56455f4e4f545f535550504f525445440000000000000000000000600082015250565b60006122de601583611ea8565b91506122e9826122a8565b602082019050919050565b6000602082019050818103600083015261230d816122d1565b9050919050565b7f5452414e534645525f4e4f545f535550504f5254454400000000000000000000600082015250565b600061234a601683611ea8565b915061235582612314565b602082019050919050565b600060208201905081810360008301526123798161233d565b9050919050565b7f416363657373436f6e74726f6c3a2063616e206f6e6c792072656e6f756e636560008201527f20726f6c657320666f722073656c660000000000000000000000000000000000602082015250565b60006123dc602f83611ea8565b91506123e782612380565b604082019050919050565b6000602082019050818103600083015261240b816123cf565b9050919050565b7f4e487b7100000000000000000000000000000000000000000000000000000000600052601160045260246000fd5b600061244c82611fb6565b915061245783611fb6565b9250827fffffffffffffffffffffffffffffffffffffffffffffffffffffffffffffffff0382111561248c5761248b612412565b5b828201905092915050565b7f43616c6c6572206973206e6f742074686520436f6e666967757261746f720000600082015250565b60006124cd601e83611ea8565b91506124d882612497565b602082019050919050565b600060208201905081810360008301526124fc816124c0565b9050919050565b7f5265656e7472616e637947756172643a207265656e7472616e742063616c6c00600082015250565b6000612539601f83611ea8565b915061254482612503565b602082019050919050565b600060208201905081810360008301526125688161252c565b9050919050565b7f43616c6c6572206973206e6f7420746865204c656e64696e6720506f6f6c0000600082015250565b60006125a5601e83611ea8565b91506125b08261256f565b602082019050919050565b600060208201905081810360008301526125d481612598565b9050919050565b7f5061757361626c653a2070617573656400000000000000000000000000000000600082015250565b6000612611601083611ea8565b915061261c826125db565b602082019050919050565b6000602082019050818103600083015261264081612604565b9050919050565b7f4255524e5f4e4f545f535550504f525445440000000000000000000000000000600082015250565b600061267d601283611ea8565b915061268882612647565b602082019050919050565b600060208201905081810360008301526126ac81612670565b9050919050565b7f45524332303a2064656372656173656420616c6c6f77616e63652062656c6f7760008201527f207a65726f000000000000000000000000000000000000000000000000000000602082015250565b600061270f602583611ea8565b915061271a826126b3565b604082019050919050565b6000602082019050818103600083015261273e81612702565b9050919050565b600081905092915050565b7f416363657373436f6e74726f6c3a206163636f756e7420000000000000000000600082015250565b6000612786601783612745565b915061279182612750565b601782019050919050565b60006127a782611e9d565b6127b18185612745565b93506127c1818560208601611eb9565b80840191505092915050565b7f206973206d697373696e6720726f6c6520000000000000000000000000000000600082015250565b6000612803601183612745565b915061280e826127cd565b601182019050919050565b600061282482612779565b9150612830828561279c565b915061283b826127f6565b9150612847828461279c565b91508190509392505050565b7f45524332303a20617070726f76652066726f6d20746865207a65726f2061646460008201527f7265737300000000000000000000000000000000000000000000000000000000602082015250565b60006128af602483611ea8565b91506128ba82612853565b604082019050919050565b600060208201905081810360008301526128de816128a2565b9050919050565b7f45524332303a20617070726f766520746f20746865207a65726f20616464726560008201527f7373000000000000000000000000000000000000000000000000000000000000602082015250565b6000612941602283611ea8565b915061294c826128e5565b604082019050919050565b6000602082019050818103600083015261297081612934565b9050919050565b7f5061757361626c653a206e6f7420706175736564000000000000000000000000600082015250565b60006129ad601483611ea8565b91506129b882612977565b602082019050919050565b600060208201905081810360008301526129dc816129a0565b9050919050565b6129ec81611f78565b82525050565b6000602082019050612a0760008301846129e3565b92915050565b7f45524332303a206d696e7420746f20746865207a65726f206164647265737300600082015250565b6000612a43601f83611ea8565b9150612a4e82612a0d565b602082019050919050565b60006020820190508181036000830152612a7281612a36565b9050919050565b7f45524332303a206275726e2066726f6d20746865207a65726f2061646472657360008201527f7300000000000000000000000000000000000000000000000000000000000000602082015250565b6000612ad5602183611ea8565b9150612ae082612a79565b604082019050919050565b60006020820190508181036000830152612b0481612ac8565b9050919050565b7f45524332303a206275726e20616d6f756e7420657863656564732062616c616e60008201527f6365000000000000000000000000000000000000000000000000000000000000602082015250565b6000612b67602283611ea8565b9150612b7282612b0b565b604082019050919050565b60006020820190508181036000830152612b9681612b5a565b9050919050565b6000612ba882611fb6565b9150612bb383611fb6565b925082821015612bc657612bc5612412565b5b828203905092915050565b7f45524332303a207472616e736665722066726f6d20746865207a65726f20616460008201527f6472657373000000000000000000000000000000000000000000000000000000602082015250565b6000612c2d602583611ea8565b9150612c3882612bd1565b604082019050919050565b60006020820190508181036000830152612c5c81612c20565b9050919050565b7f45524332303a207472616e7366657220746f20746865207a65726f206164647260008201527f6573730000000000000000000000000000000000000000000000000000000000602082015250565b6000612cbf602383611ea8565b9150612cca82612c63565b604082019050919050565b60006020820190508181036000830152612cee81612cb2565b9050919050565b7f45524332303a207472616e7366657220616d6f756e742065786365656473206260008201527f616c616e63650000000000000000000000000000000000000000000000000000602082015250565b6000612d51602683611ea8565b9150612d5c82612cf5565b604082019050919050565b60006020820190508181036000830152612d8081612d44565b9050919050565b6000612d9282611fb6565b9150612d9d83611fb6565b9250817fffffffffffffffffffffffffffffffffffffffffffffffffffffffffffffffff0483118215151615612dd657612dd5612412565b5b828202905092915050565b7f4e487b7100000000000000000000000000000000000000000000000000000000600052604160045260246000fd5b7f4e487b7100000000000000000000000000000000000000000000000000000000600052603260045260246000fd5b6000612e4a82611fb6565b91506000821415612e5e57612e5d612412565b5b600182039050919050565b7f537472696e67733a20686578206c656e67746820696e73756666696369656e74600082015250565b6000612e9f602083611ea8565b9150612eaa82612e69565b602082019050919050565b60006020820190508181036000830152612ece81612e92565b9050919050565b7f45524332305061757361626c653a20746f6b656e207472616e7366657220776860008201527f696c652070617573656400000000000000000000000000000000000000000000602082015250565b6000612f31602a83611ea8565b9150612f3c82612ed5565b604082019050919050565b60006020820190508181036000830152612f6081612f24565b905091905056fea2646970667358221220554ceb466cf5f8314f6d4987f64d831ebf821fa149482ef485190eba7b03fd6f64736f6c63430008090033",
  "linkReferences": {},
  "deployedLinkReferences": {}
}