{
  "_format": "hh-sol-artifact-1",
  "contractName": "MockOracle",
  "sourceName": "contracts/mocks/Oracle.sol",
  "abi": [
    {
      "inputs": [
        {
          "internalType": "address",
          "name": "collateral",
          "type": "address"
        },
        {
          "internalType": "address",
          "name": "asset",
          "type": "address"
        }
      ],
      "name": "getMockFloorPrice",
      "outputs": [
        {
          "internalType": "uint256",
          "name": "",
          "type": "uint256"
        }
      ],
      "stateMutability": "view",
      "type": "function"
    },
    {
      "inputs": [
        {
          "internalType": "address",
          "name": "asset",
          "type": "address"
        },
        {
          "internalType": "uint256",
          "name": "price",
          "type": "uint256"
        }
      ],
      "name": "setMockEthTokenPrice",
      "outputs": [],
      "stateMutability": "nonpayable",
      "type": "function"
    },
    {
      "inputs": [
        {
          "internalType": "address",
          "name": "collateral",
          "type": "address"
        },
        {
          "internalType": "uint256",
          "name": "floorPrice",
          "type": "uint256"
        }
      ],
      "name": "setMockFloorPrice",
      "outputs": [],
      "stateMutability": "nonpayable",
      "type": "function"
    }
  ],
  "bytecode": "0x608060405234801561001057600080fd5b50610605806100206000396000f3fe608060405234801561001057600080fd5b50600436106100415760003560e01c80630fd124681461004657806361454fc414610076578063f8500e1814610092575b600080fd5b610060600480360381019061005b919061031d565b6100ae565b60405161006d9190610376565b60405180910390f35b610090600480360381019061008b91906103bd565b6101ff565b005b6100ac60048036038101906100a791906103bd565b610246565b005b6000806000808573ffffffffffffffffffffffffffffffffffffffff1673ffffffffffffffffffffffffffffffffffffffff16815260200190815260200160002054905060008111610135576040517f08c379a000000000000000000000000000000000000000000000000000000000815260040161012c9061045a565b60405180910390fd5b6000600160008573ffffffffffffffffffffffffffffffffffffffff1673ffffffffffffffffffffffffffffffffffffffff168152602001908152602001600020549050600081116101bc576040517f08c379a00000000000000000000000000000000000000000000000000000000081526004016101b3906104c6565b60405180910390fd5b6000670de0b6b3a7640000905060006101f0826101e2858761028e90919063ffffffff16565b6102a490919063ffffffff16565b90508094505050505092915050565b806000808473ffffffffffffffffffffffffffffffffffffffff1673ffffffffffffffffffffffffffffffffffffffff168152602001908152602001600020819055505050565b80600160008473ffffffffffffffffffffffffffffffffffffffff1673ffffffffffffffffffffffffffffffffffffffff168152602001908152602001600020819055505050565b6000818361029c9190610515565b905092915050565b600081836102b2919061059e565b905092915050565b600080fd5b600073ffffffffffffffffffffffffffffffffffffffff82169050919050565b60006102ea826102bf565b9050919050565b6102fa816102df565b811461030557600080fd5b50565b600081359050610317816102f1565b92915050565b60008060408385031215610334576103336102ba565b5b600061034285828601610308565b925050602061035385828601610308565b9150509250929050565b6000819050919050565b6103708161035d565b82525050565b600060208201905061038b6000830184610367565b92915050565b61039a8161035d565b81146103a557600080fd5b50565b6000813590506103b781610391565b92915050565b600080604083850312156103d4576103d36102ba565b5b60006103e285828601610308565b92505060206103f3858286016103a8565b9150509250929050565b600082825260208201905092915050565b7f554e5345545f4d4f434b5f464c4f4f5250524943450000000000000000000000600082015250565b60006104446015836103fd565b915061044f8261040e565b602082019050919050565b6000602082019050818103600083015261047381610437565b9050919050565b7f554e5345545f4d4f434b5f544f4b454e50524943450000000000000000000000600082015250565b60006104b06015836103fd565b91506104bb8261047a565b602082019050919050565b600060208201905081810360008301526104df816104a3565b9050919050565b7f4e487b7100000000000000000000000000000000000000000000000000000000600052601160045260246000fd5b60006105208261035d565b915061052b8361035d565b9250817fffffffffffffffffffffffffffffffffffffffffffffffffffffffffffffffff0483118215151615610564576105636104e6565b5b828202905092915050565b7f4e487b7100000000000000000000000000000000000000000000000000000000600052601260045260246000fd5b60006105a98261035d565b91506105b48361035d565b9250826105c4576105c361056f565b5b82820490509291505056fea2646970667358221220593322b464d7a18f354e2a0e646e13e2c6c26afc7403fabd91ca36115b2df1e964736f6c63430008090033",
  "linkReferences": {},
  "deployedLinkReferences": {}
}