{
  "_format": "hh-sol-artifact-1",
  "contractName": "LendingPool",
  "sourceName": "contracts/LendingPool.sol",
  "abi": [
    {
      "inputs": [
        {
          "internalType": "address",
          "name": "configurator",
          "type": "address"
        },
        {
          "internalType": "address",
          "name": "treasuryAddress",
          "type": "address"
        }
      ],
      "stateMutability": "nonpayable",
      "type": "constructor"
    },
    {
      "anonymous": false,
      "inputs": [
        {
          "indexed": false,
          "internalType": "address",
          "name": "asset",
          "type": "address"
        },
        {
          "indexed": false,
          "internalType": "uint256",
          "name": "amount",
          "type": "uint256"
        },
        {
          "indexed": false,
          "internalType": "uint256",
          "name": "repaymentAmount",
          "type": "uint256"
        },
        {
          "indexed": false,
          "internalType": "address",
          "name": "collateral",
          "type": "address"
        },
        {
          "indexed": false,
          "internalType": "uint256",
          "name": "tokenId",
          "type": "uint256"
        },
        {
          "indexed": false,
          "internalType": "address",
          "name": "borrower",
          "type": "address"
        }
      ],
      "name": "Borrow",
      "type": "event"
    },
    {
      "anonymous": false,
      "inputs": [
        {
          "indexed": false,
          "internalType": "address",
          "name": "collateralManagerAddress",
          "type": "address"
        }
      ],
      "name": "CollateralManagerConnected",
      "type": "event"
    },
    {
      "anonymous": false,
      "inputs": [
        {
          "indexed": false,
          "internalType": "address",
          "name": "asset",
          "type": "address"
        },
        {
          "indexed": false,
          "internalType": "uint256",
          "name": "amount",
          "type": "uint256"
        },
        {
          "indexed": false,
          "internalType": "address",
          "name": "lender",
          "type": "address"
        }
      ],
      "name": "Deposit",
      "type": "event"
    },
    {
      "anonymous": false,
      "inputs": [
        {
          "indexed": false,
          "internalType": "address",
          "name": "asset",
          "type": "address"
        },
        {
          "indexed": false,
          "internalType": "address",
          "name": "nTokenAddress",
          "type": "address"
        },
        {
          "indexed": false,
          "internalType": "address",
          "name": "debtTokenAddress",
          "type": "address"
        }
      ],
      "name": "InitReserve",
      "type": "event"
    },
    {
      "anonymous": false,
      "inputs": [
        {
          "indexed": false,
          "internalType": "uint256",
          "name": "borrowId",
          "type": "uint256"
        },
        {
          "indexed": false,
          "internalType": "address",
          "name": "asset",
          "type": "address"
        },
        {
          "indexed": false,
          "internalType": "uint256",
          "name": "liquidationAmount",
          "type": "uint256"
        },
        {
          "indexed": false,
          "internalType": "address",
          "name": "liquidator",
          "type": "address"
        }
      ],
      "name": "Liquidate",
      "type": "event"
    },
    {
      "anonymous": false,
      "inputs": [
        {
          "indexed": false,
          "internalType": "address",
          "name": "account",
          "type": "address"
        }
      ],
      "name": "Paused",
      "type": "event"
    },
    {
      "anonymous": false,
      "inputs": [
        {
          "indexed": false,
          "internalType": "uint256",
          "name": "borrowId",
          "type": "uint256"
        },
        {
          "indexed": false,
          "internalType": "address",
          "name": "asset",
          "type": "address"
        },
        {
          "indexed": false,
          "internalType": "uint256",
          "name": "repaymentAmount",
          "type": "uint256"
        },
        {
          "indexed": false,
          "internalType": "address",
          "name": "borrower",
          "type": "address"
        }
      ],
      "name": "Repay",
      "type": "event"
    },
    {
      "anonymous": false,
      "inputs": [
        {
          "indexed": false,
          "internalType": "address",
          "name": "asset",
          "type": "address"
        }
      ],
      "name": "ReserveActivated",
      "type": "event"
    },
    {
      "anonymous": false,
      "inputs": [
        {
          "indexed": false,
          "internalType": "address",
          "name": "asset",
          "type": "address"
        }
      ],
      "name": "ReserveFrozen",
      "type": "event"
    },
    {
      "anonymous": false,
      "inputs": [
        {
          "indexed": false,
          "internalType": "address",
          "name": "asset",
          "type": "address"
        }
      ],
      "name": "ReservePaused",
      "type": "event"
    },
    {
      "anonymous": false,
      "inputs": [
        {
          "indexed": false,
          "internalType": "address",
          "name": "asset",
          "type": "address"
        }
      ],
      "name": "ReserveProtected",
      "type": "event"
    },
    {
      "anonymous": false,
      "inputs": [
        {
          "indexed": true,
          "internalType": "bytes32",
          "name": "role",
          "type": "bytes32"
        },
        {
          "indexed": true,
          "internalType": "bytes32",
          "name": "previousAdminRole",
          "type": "bytes32"
        },
        {
          "indexed": true,
          "internalType": "bytes32",
          "name": "newAdminRole",
          "type": "bytes32"
        }
      ],
      "name": "RoleAdminChanged",
      "type": "event"
    },
    {
      "anonymous": false,
      "inputs": [
        {
          "indexed": true,
          "internalType": "bytes32",
          "name": "role",
          "type": "bytes32"
        },
        {
          "indexed": true,
          "internalType": "address",
          "name": "account",
          "type": "address"
        },
        {
          "indexed": true,
          "internalType": "address",
          "name": "sender",
          "type": "address"
        }
      ],
      "name": "RoleGranted",
      "type": "event"
    },
    {
      "anonymous": false,
      "inputs": [
        {
          "indexed": true,
          "internalType": "bytes32",
          "name": "role",
          "type": "bytes32"
        },
        {
          "indexed": true,
          "internalType": "address",
          "name": "account",
          "type": "address"
        },
        {
          "indexed": true,
          "internalType": "address",
          "name": "sender",
          "type": "address"
        }
      ],
      "name": "RoleRevoked",
      "type": "event"
    },
    {
      "anonymous": false,
      "inputs": [
        {
          "indexed": false,
          "internalType": "address",
          "name": "tokenPriceOracleAddress",
          "type": "address"
        }
      ],
      "name": "TokenPriceOracleConnected",
      "type": "event"
    },
    {
      "anonymous": false,
      "inputs": [
        {
          "indexed": false,
          "internalType": "address",
          "name": "account",
          "type": "address"
        }
      ],
      "name": "Unpaused",
      "type": "event"
    },
    {
      "anonymous": false,
      "inputs": [
        {
          "indexed": false,
          "internalType": "address",
          "name": "asset",
          "type": "address"
        },
        {
          "indexed": false,
          "internalType": "uint256",
          "name": "amount",
          "type": "uint256"
        },
        {
          "indexed": false,
          "internalType": "address",
          "name": "lender",
          "type": "address"
        }
      ],
      "name": "Withdraw",
      "type": "event"
    },
    {
      "inputs": [],
      "name": "DEFAULT_ADMIN_ROLE",
      "outputs": [
        {
          "internalType": "bytes32",
          "name": "",
          "type": "bytes32"
        }
      ],
      "stateMutability": "view",
      "type": "function"
    },
    {
      "inputs": [
        {
          "internalType": "address",
          "name": "asset",
          "type": "address"
        }
      ],
      "name": "activateReserve",
      "outputs": [],
      "stateMutability": "nonpayable",
      "type": "function"
    },
    {
      "inputs": [
        {
          "internalType": "address",
          "name": "asset",
          "type": "address"
        },
        {
          "internalType": "uint256",
          "name": "amount",
          "type": "uint256"
        },
        {
          "internalType": "address",
          "name": "collateral",
          "type": "address"
        },
        {
          "internalType": "uint256",
          "name": "tokenId",
          "type": "uint256"
        },
        {
          "internalType": "uint256",
          "name": "numWeeks",
          "type": "uint256"
        }
      ],
      "name": "borrow",
      "outputs": [],
      "stateMutability": "nonpayable",
      "type": "function"
    },
    {
      "inputs": [
        {
          "internalType": "address",
          "name": "collateralManagerAddress",
          "type": "address"
        }
      ],
      "name": "connectCollateralManager",
      "outputs": [],
      "stateMutability": "nonpayable",
      "type": "function"
    },
    {
      "inputs": [
        {
          "internalType": "address",
          "name": "tokenPriceOracleAddress",
          "type": "address"
        }
      ],
      "name": "connectTokenPriceOracle",
      "outputs": [],
      "stateMutability": "nonpayable",
      "type": "function"
    },
    {
      "inputs": [
        {
          "internalType": "address",
          "name": "asset",
          "type": "address"
        },
        {
          "internalType": "uint256",
          "name": "amount",
          "type": "uint256"
        }
      ],
      "name": "deposit",
      "outputs": [],
      "stateMutability": "nonpayable",
      "type": "function"
    },
    {
      "inputs": [
        {
          "internalType": "address",
          "name": "asset",
          "type": "address"
        }
      ],
      "name": "freezeReserve",
      "outputs": [],
      "stateMutability": "nonpayable",
      "type": "function"
    },
    {
      "inputs": [],
      "name": "getCollateralManagerAddress",
      "outputs": [
        {
          "internalType": "address",
          "name": "",
          "type": "address"
        }
      ],
      "stateMutability": "view",
      "type": "function"
    },
    {
      "inputs": [
        {
          "internalType": "address",
          "name": "collateral",
          "type": "address"
        },
        {
          "internalType": "address",
          "name": "asset",
          "type": "address"
        }
      ],
      "name": "getMockFloorPrice",
      "outputs": [
        {
          "internalType": "uint256",
          "name": "",
          "type": "uint256"
        }
      ],
      "stateMutability": "view",
      "type": "function"
    },
    {
      "inputs": [
        {
          "internalType": "bytes32",
          "name": "role",
          "type": "bytes32"
        }
      ],
      "name": "getRoleAdmin",
      "outputs": [
        {
          "internalType": "bytes32",
          "name": "",
          "type": "bytes32"
        }
      ],
      "stateMutability": "view",
      "type": "function"
    },
    {
      "inputs": [],
      "name": "getTokenPriceOracleAddress",
      "outputs": [
        {
          "internalType": "address",
          "name": "",
          "type": "address"
        }
      ],
      "stateMutability": "view",
      "type": "function"
    },
    {
      "inputs": [
        {
          "internalType": "bytes32",
          "name": "role",
          "type": "bytes32"
        },
        {
          "internalType": "address",
          "name": "account",
          "type": "address"
        }
      ],
      "name": "grantRole",
      "outputs": [],
      "stateMutability": "nonpayable",
      "type": "function"
    },
    {
      "inputs": [
        {
          "internalType": "bytes32",
          "name": "role",
          "type": "bytes32"
        },
        {
          "internalType": "address",
          "name": "account",
          "type": "address"
        }
      ],
      "name": "hasRole",
      "outputs": [
        {
          "internalType": "bool",
          "name": "",
          "type": "bool"
        }
      ],
      "stateMutability": "view",
      "type": "function"
    },
    {
      "inputs": [
        {
          "internalType": "address",
          "name": "asset",
          "type": "address"
        },
        {
          "internalType": "address",
          "name": "nTokenAddress",
          "type": "address"
        },
        {
          "internalType": "address",
          "name": "debtTokenAddress",
          "type": "address"
        }
      ],
      "name": "initReserve",
      "outputs": [],
      "stateMutability": "nonpayable",
      "type": "function"
    },
    {
      "inputs": [
        {
          "internalType": "address",
          "name": "asset",
          "type": "address"
        },
        {
          "internalType": "uint256",
          "name": "liquidationAmount",
          "type": "uint256"
        },
        {
          "internalType": "uint256",
          "name": "borrowId",
          "type": "uint256"
        }
      ],
      "name": "liquidate",
      "outputs": [],
      "stateMutability": "nonpayable",
      "type": "function"
    },
    {
      "inputs": [],
      "name": "pause",
      "outputs": [],
      "stateMutability": "nonpayable",
      "type": "function"
    },
    {
      "inputs": [
        {
          "internalType": "address",
          "name": "asset",
          "type": "address"
        }
      ],
      "name": "pauseReserve",
      "outputs": [],
      "stateMutability": "nonpayable",
      "type": "function"
    },
    {
      "inputs": [],
      "name": "paused",
      "outputs": [
        {
          "internalType": "bool",
          "name": "",
          "type": "bool"
        }
      ],
      "stateMutability": "view",
      "type": "function"
    },
    {
      "inputs": [
        {
          "internalType": "address",
          "name": "asset",
          "type": "address"
        }
      ],
      "name": "protectReserve",
      "outputs": [],
      "stateMutability": "nonpayable",
      "type": "function"
    },
    {
      "inputs": [
        {
          "internalType": "bytes32",
          "name": "role",
          "type": "bytes32"
        },
        {
          "internalType": "address",
          "name": "account",
          "type": "address"
        }
      ],
      "name": "renounceRole",
      "outputs": [],
      "stateMutability": "nonpayable",
      "type": "function"
    },
    {
      "inputs": [
        {
          "internalType": "address",
          "name": "asset",
          "type": "address"
        },
        {
          "internalType": "uint256",
          "name": "repaymentAmount",
          "type": "uint256"
        },
        {
          "internalType": "uint256",
          "name": "borrowId",
          "type": "uint256"
        }
      ],
      "name": "repay",
      "outputs": [],
      "stateMutability": "nonpayable",
      "type": "function"
    },
    {
      "inputs": [
        {
          "internalType": "bytes32",
          "name": "role",
          "type": "bytes32"
        },
        {
          "internalType": "address",
          "name": "account",
          "type": "address"
        }
      ],
      "name": "revokeRole",
      "outputs": [],
      "stateMutability": "nonpayable",
      "type": "function"
    },
    {
      "inputs": [
        {
          "internalType": "address",
          "name": "asset",
          "type": "address"
        },
        {
          "internalType": "uint256",
          "name": "price",
          "type": "uint256"
        }
      ],
      "name": "setMockEthTokenPrice",
      "outputs": [],
      "stateMutability": "nonpayable",
      "type": "function"
    },
    {
      "inputs": [
        {
          "internalType": "address",
          "name": "collateral",
          "type": "address"
        },
        {
          "internalType": "uint256",
          "name": "floorPrice",
          "type": "uint256"
        }
      ],
      "name": "setMockFloorPrice",
      "outputs": [],
      "stateMutability": "nonpayable",
      "type": "function"
    },
    {
      "inputs": [
        {
          "internalType": "bytes4",
          "name": "interfaceId",
          "type": "bytes4"
        }
      ],
      "name": "supportsInterface",
      "outputs": [
        {
          "internalType": "bool",
          "name": "",
          "type": "bool"
        }
      ],
      "stateMutability": "view",
      "type": "function"
    },
    {
      "inputs": [],
      "name": "unpause",
      "outputs": [],
      "stateMutability": "nonpayable",
      "type": "function"
    },
    {
      "inputs": [
        {
          "internalType": "address",
          "name": "asset",
          "type": "address"
        },
        {
          "internalType": "uint256",
          "name": "amount",
          "type": "uint256"
        }
      ],
      "name": "withdraw",
      "outputs": [],
      "stateMutability": "nonpayable",
      "type": "function"
    }
  ],
  "bytecode": "0x60806040526000600460146101000a81548160ff0219169083151502179055503480156200002c57600080fd5b5060405162006082380380620060828339818101604052810190620000529190620002e3565b6000600a60006101000a81548160ff0219169083151502179055506001600b81905550620000a77f3b49a237fe2d18fa4d9642b8a0e065923cceb71b797783b619a030a61d848bf083620000fe60201b60201c565b806000806101000a81548173ffffffffffffffffffffffffffffffffffffffff021916908373ffffffffffffffffffffffffffffffffffffffff16021790555060058081905550600560068190555050506200032a565b6200011082826200011460201b60201c565b5050565b6200012682826200020660201b60201c565b620002025760016009600084815260200190815260200160002060000160008373ffffffffffffffffffffffffffffffffffffffff1673ffffffffffffffffffffffffffffffffffffffff16815260200190815260200160002060006101000a81548160ff021916908315150217905550620001a76200027160201b60201c565b73ffffffffffffffffffffffffffffffffffffffff168173ffffffffffffffffffffffffffffffffffffffff16837f2f8788117e7eff1d82e926ec794901d17c78024a50270940304540a733656f0d60405160405180910390a45b5050565b60006009600084815260200190815260200160002060000160008373ffffffffffffffffffffffffffffffffffffffff1673ffffffffffffffffffffffffffffffffffffffff16815260200190815260200160002060009054906101000a900460ff16905092915050565b600033905090565b600080fd5b600073ffffffffffffffffffffffffffffffffffffffff82169050919050565b6000620002ab826200027e565b9050919050565b620002bd816200029e565b8114620002c957600080fd5b50565b600081519050620002dd81620002b2565b92915050565b60008060408385031215620002fd57620002fc62000279565b5b60006200030d85828601620002cc565b92505060206200032085828601620002cc565b9150509250929050565b615d48806200033a6000396000f3fe608060405234801561001057600080fd5b50600436106101a95760003560e01c80634b709a18116100f9578063932f12c811610097578063bc34746f11610071578063bc34746f14610466578063d547741f14610482578063f3fef3a31461049e578063f8500e18146104ba576101a9565b8063932f12c814610410578063a217fddf1461042c578063b75d6f341461044a576101a9565b80637aca76eb116100d35780637aca76eb1461039e5780638456cb59146103ba5780638cd2e0c7146103c457806391d14854146103e0576101a9565b80634b709a18146103465780635c975abb1461036457806361454fc414610382576101a9565b80632ad640181161016657806335a194bc1161014057806335a194bc146102e857806336568abe146103045780633f4ba83a1461032057806347e7ef241461032a576101a9565b80632ad64018146102945780632f2ff15d146102b05780632f65edaa146102cc576101a9565b806301ffc9a7146101ae5780630710285c146101de5780630fd12468146101fa5780631c29147e1461022a578063243e70b214610246578063248a9ca314610264575b600080fd5b6101c860048036038101906101c391906146e8565b6104d6565b6040516101d59190614730565b60405180910390f35b6101f860048036038101906101f391906147df565b610550565b005b610214600480360381019061020f9190614832565b6109d9565b6040516102219190614881565b60405180910390f35b610244600480360381019061023f919061489c565b610b2b565b005b61024e610c46565b60405161025b91906148d8565b60405180910390f35b61027e60048036038101906102799190614929565b610c70565b60405161028b9190614965565b60405180910390f35b6102ae60048036038101906102a99190614980565b610c90565b005b6102ca60048036038101906102c591906149fb565b610f2f565b005b6102e660048036038101906102e1919061489c565b610f58565b005b61030260048036038101906102fd919061489c565b611065565b005b61031e600480360381019061031991906149fb565b6111dd565b005b610328611260565b005b610344600480360381019061033f9190614a3b565b6112da565b005b61034e611573565b60405161035b91906148d8565b60405180910390f35b61036c61159d565b6040516103799190614730565b60405180910390f35b61039c60048036038101906103979190614a3b565b6115b4565b005b6103b860048036038101906103b3919061489c565b6115fc565b005b6103c2611717565b005b6103de60048036038101906103d991906147df565b611791565b005b6103fa60048036038101906103f591906149fb565b611a2d565b6040516104079190614730565b60405180910390f35b61042a60048036038101906104259190614a7b565b611a98565b005b610434611b18565b6040516104419190614965565b60405180910390f35b610464600480360381019061045f919061489c565b611b1f565b005b610480600480360381019061047b919061489c565b611c3a565b005b61049c600480360381019061049791906149fb565b611d55565b005b6104b860048036038101906104b39190614a3b565b611d7e565b005b6104d460048036038101906104cf9190614a3b565b612018565b005b60007f7965db0b000000000000000000000000000000000000000000000000000000007bffffffffffffffffffffffffffffffffffffffffffffffffffffffff1916827bffffffffffffffffffffffffffffffffffffffffffffffffffffffff19161480610549575061054882612060565b5b9050919050565b6002600b541415610596576040517f08c379a000000000000000000000000000000000000000000000000000000000815260040161058d90614b2b565b60405180910390fd5b6002600b819055506105a661159d565b156105e6576040517f08c379a00000000000000000000000000000000000000000000000000000000081526004016105dd90614b97565b60405180910390fd5b826000600160008373ffffffffffffffffffffffffffffffffffffffff1673ffffffffffffffffffffffffffffffffffffffff1681526020019081526020016000206040518060800160405290816000820160009054906101000a900460ff16600381111561065857610657614bb7565b5b600381111561066a57610669614bb7565b5b81526020016000820160019054906101000a900473ffffffffffffffffffffffffffffffffffffffff1673ffffffffffffffffffffffffffffffffffffffff1673ffffffffffffffffffffffffffffffffffffffff1681526020016001820160009054906101000a900473ffffffffffffffffffffffffffffffffffffffff1673ffffffffffffffffffffffffffffffffffffffff1673ffffffffffffffffffffffffffffffffffffffff1681526020016002820160009054906101000a90046fffffffffffffffffffffffffffffffff166fffffffffffffffffffffffffffffffff166fffffffffffffffffffffffffffffffff168152505090506002600381111561077a57610779614bb7565b5b8160000151600381111561079157610790614bb7565b5b14156107d2576040517f08c379a00000000000000000000000000000000000000000000000000000000081526004016107c990614c32565b60405180910390fd5b846000600160008373ffffffffffffffffffffffffffffffffffffffff1673ffffffffffffffffffffffffffffffffffffffff1681526020019081526020016000206040518060800160405290816000820160009054906101000a900460ff16600381111561084457610843614bb7565b5b600381111561085657610855614bb7565b5b81526020016000820160019054906101000a900473ffffffffffffffffffffffffffffffffffffffff1673ffffffffffffffffffffffffffffffffffffffff1673ffffffffffffffffffffffffffffffffffffffff1681526020016001820160009054906101000a900473ffffffffffffffffffffffffffffffffffffffff1673ffffffffffffffffffffffffffffffffffffffff1673ffffffffffffffffffffffffffffffffffffffff1681526020016002820160009054906101000a90046fffffffffffffffffffffffffffffffff166fffffffffffffffffffffffffffffffff166fffffffffffffffffffffffffffffffff1681525050905060038081111561096557610964614bb7565b5b8160000151600381111561097c5761097b614bb7565b5b14156109bd576040517f08c379a00000000000000000000000000000000000000000000000000000000081526004016109b490614c9e565b60405180910390fd5b6109c88787876120ca565b505050506001600b81905550505050565b600080600760008573ffffffffffffffffffffffffffffffffffffffff1673ffffffffffffffffffffffffffffffffffffffff16815260200190815260200160002054905060008111610a61576040517f08c379a0000000000000000000000000000000000000000000000000000000008152600401610a5890614d0a565b60405180910390fd5b6000600860008573ffffffffffffffffffffffffffffffffffffffff1673ffffffffffffffffffffffffffffffffffffffff16815260200190815260200160002054905060008111610ae8576040517f08c379a0000000000000000000000000000000000000000000000000000000008152600401610adf90614d76565b60405180910390fd5b6000670de0b6b3a764000090506000610b1c82610b0e858761297a90919063ffffffff16565b61299090919063ffffffff16565b90508094505050505092915050565b610b5c7f3b49a237fe2d18fa4d9642b8a0e065923cceb71b797783b619a030a61d848bf0610b576129a6565b611a2d565b610b9b576040517f08c379a0000000000000000000000000000000000000000000000000000000008152600401610b9290614de2565b60405180910390fd5b6000600160008373ffffffffffffffffffffffffffffffffffffffff1673ffffffffffffffffffffffffffffffffffffffff168152602001908152602001600020905060028160000160006101000a81548160ff02191690836003811115610c0657610c05614bb7565b5b02179055507f76fbdd4354dc9418c0c566bb694eb4f77c55b468b137d36da290a1bef6c91ce782604051610c3a91906148d8565b60405180910390a15050565b6000600360009054906101000a900473ffffffffffffffffffffffffffffffffffffffff16905090565b600060096000838152602001908152602001600020600101549050919050565b6002600b541415610cd6576040517f08c379a0000000000000000000000000000000000000000000000000000000008152600401610ccd90614b2b565b60405180910390fd5b6002600b81905550610ce661159d565b15610d26576040517f08c379a0000000000000000000000000000000000000000000000000000000008152600401610d1d90614b97565b60405180910390fd5b846000600160008373ffffffffffffffffffffffffffffffffffffffff1673ffffffffffffffffffffffffffffffffffffffff1681526020019081526020016000206040518060800160405290816000820160009054906101000a900460ff166003811115610d9857610d97614bb7565b5b6003811115610daa57610da9614bb7565b5b81526020016000820160019054906101000a900473ffffffffffffffffffffffffffffffffffffffff1673ffffffffffffffffffffffffffffffffffffffff1673ffffffffffffffffffffffffffffffffffffffff1681526020016001820160009054906101000a900473ffffffffffffffffffffffffffffffffffffffff1673ffffffffffffffffffffffffffffffffffffffff1673ffffffffffffffffffffffffffffffffffffffff1681526020016002820160009054906101000a90046fffffffffffffffffffffffffffffffff166fffffffffffffffffffffffffffffffff166fffffffffffffffffffffffffffffffff1681525050905060006003811115610eba57610eb9614bb7565b5b81600001516003811115610ed157610ed0614bb7565b5b14610f11576040517f08c379a0000000000000000000000000000000000000000000000000000000008152600401610f0890614e4e565b60405180910390fd5b610f1e87878787876129ae565b50506001600b819055505050505050565b610f3882610c70565b610f4981610f446129a6565b612edc565b610f538383612f79565b505050565b610f897f3b49a237fe2d18fa4d9642b8a0e065923cceb71b797783b619a030a61d848bf0610f846129a6565b611a2d565b610fc8576040517f08c379a0000000000000000000000000000000000000000000000000000000008152600401610fbf90614de2565b60405180910390fd5b80600460006101000a81548173ffffffffffffffffffffffffffffffffffffffff021916908373ffffffffffffffffffffffffffffffffffffffff1602179055507f10f1dce92da2d784db05b4cb655dc541638c9fa7884f1596fc702094f4151aaa600460009054906101000a900473ffffffffffffffffffffffffffffffffffffffff1660405161105a91906148d8565b60405180910390a150565b6110967f3b49a237fe2d18fa4d9642b8a0e065923cceb71b797783b619a030a61d848bf06110916129a6565b611a2d565b6110d5576040517f08c379a00000000000000000000000000000000000000000000000000000000081526004016110cc90614de2565b60405180910390fd5b600460149054906101000a900460ff1615611125576040517f08c379a000000000000000000000000000000000000000000000000000000000815260040161111c90614ee0565b60405180910390fd5b6001600460146101000a81548160ff02191690831515021790555080600360006101000a81548173ffffffffffffffffffffffffffffffffffffffff021916908373ffffffffffffffffffffffffffffffffffffffff1602179055507f316cb2e421cb7be58ffff92b21b58a1856a0093ac65a344e0a3ca9f82ca2810a600360009054906101000a900473ffffffffffffffffffffffffffffffffffffffff166040516111d291906148d8565b60405180910390a150565b6111e56129a6565b73ffffffffffffffffffffffffffffffffffffffff168173ffffffffffffffffffffffffffffffffffffffff1614611252576040517f08c379a000000000000000000000000000000000000000000000000000000000815260040161124990614f72565b60405180910390fd5b61125c828261305a565b5050565b6112917f3b49a237fe2d18fa4d9642b8a0e065923cceb71b797783b619a030a61d848bf061128c6129a6565b611a2d565b6112d0576040517f08c379a00000000000000000000000000000000000000000000000000000000081526004016112c790614de2565b60405180910390fd5b6112d861313c565b565b6002600b541415611320576040517f08c379a000000000000000000000000000000000000000000000000000000000815260040161131790614b2b565b60405180910390fd5b6002600b8190555061133061159d565b15611370576040517f08c379a000000000000000000000000000000000000000000000000000000000815260040161136790614b97565b60405180910390fd5b816000600160008373ffffffffffffffffffffffffffffffffffffffff1673ffffffffffffffffffffffffffffffffffffffff1681526020019081526020016000206040518060800160405290816000820160009054906101000a900460ff1660038111156113e2576113e1614bb7565b5b60038111156113f4576113f3614bb7565b5b81526020016000820160019054906101000a900473ffffffffffffffffffffffffffffffffffffffff1673ffffffffffffffffffffffffffffffffffffffff1673ffffffffffffffffffffffffffffffffffffffff1681526020016001820160009054906101000a900473ffffffffffffffffffffffffffffffffffffffff1673ffffffffffffffffffffffffffffffffffffffff1673ffffffffffffffffffffffffffffffffffffffff1681526020016002820160009054906101000a90046fffffffffffffffffffffffffffffffff166fffffffffffffffffffffffffffffffff166fffffffffffffffffffffffffffffffff168152505090506000600381111561150457611503614bb7565b5b8160000151600381111561151b5761151a614bb7565b5b1461155b576040517f08c379a000000000000000000000000000000000000000000000000000000000815260040161155290614e4e565b60405180910390fd5b61156584846131de565b50506001600b819055505050565b6000600460009054906101000a900473ffffffffffffffffffffffffffffffffffffffff16905090565b6000600a60009054906101000a900460ff16905090565b80600760008473ffffffffffffffffffffffffffffffffffffffff1673ffffffffffffffffffffffffffffffffffffffff168152602001908152602001600020819055505050565b61162d7f3b49a237fe2d18fa4d9642b8a0e065923cceb71b797783b619a030a61d848bf06116286129a6565b611a2d565b61166c576040517f08c379a000000000000000000000000000000000000000000000000000000000815260040161166390614de2565b60405180910390fd5b6000600160008373ffffffffffffffffffffffffffffffffffffffff1673ffffffffffffffffffffffffffffffffffffffff168152602001908152602001600020905060018160000160006101000a81548160ff021916908360038111156116d7576116d6614bb7565b5b02179055507f85dc710add8a0914461a7dc5a63f6fc529a7700f8c6089a3faf5e93256ccf12a8260405161170b91906148d8565b60405180910390a15050565b6117487f3b49a237fe2d18fa4d9642b8a0e065923cceb71b797783b619a030a61d848bf06117436129a6565b611a2d565b611787576040517f08c379a000000000000000000000000000000000000000000000000000000000815260040161177e90614de2565b60405180910390fd5b61178f61355e565b565b6002600b5414156117d7576040517f08c379a00000000000000000000000000000000000000000000000000000000081526004016117ce90614b2b565b60405180910390fd5b6002600b819055506117e761159d565b15611827576040517f08c379a000000000000000000000000000000000000000000000000000000000815260040161181e90614b97565b60405180910390fd5b826000600160008373ffffffffffffffffffffffffffffffffffffffff1673ffffffffffffffffffffffffffffffffffffffff1681526020019081526020016000206040518060800160405290816000820160009054906101000a900460ff16600381111561189957611898614bb7565b5b60038111156118ab576118aa614bb7565b5b81526020016000820160019054906101000a900473ffffffffffffffffffffffffffffffffffffffff1673ffffffffffffffffffffffffffffffffffffffff1673ffffffffffffffffffffffffffffffffffffffff1681526020016001820160009054906101000a900473ffffffffffffffffffffffffffffffffffffffff1673ffffffffffffffffffffffffffffffffffffffff1673ffffffffffffffffffffffffffffffffffffffff1681526020016002820160009054906101000a90046fffffffffffffffffffffffffffffffff166fffffffffffffffffffffffffffffffff166fffffffffffffffffffffffffffffffff16815250509050600260038111156119bb576119ba614bb7565b5b816000015160038111156119d2576119d1614bb7565b5b1415611a13576040517f08c379a0000000000000000000000000000000000000000000000000000000008152600401611a0a90614c32565b60405180910390fd5b611a1e858585613601565b50506001600b81905550505050565b60006009600084815260200190815260200160002060000160008373ffffffffffffffffffffffffffffffffffffffff1673ffffffffffffffffffffffffffffffffffffffff16815260200190815260200160002060009054906101000a900460ff16905092915050565b611ac97f3b49a237fe2d18fa4d9642b8a0e065923cceb71b797783b619a030a61d848bf0611ac46129a6565b611a2d565b611b08576040517f08c379a0000000000000000000000000000000000000000000000000000000008152600401611aff90614de2565b60405180910390fd5b611b13838383613a75565b505050565b6000801b81565b611b507f3b49a237fe2d18fa4d9642b8a0e065923cceb71b797783b619a030a61d848bf0611b4b6129a6565b611a2d565b611b8f576040517f08c379a0000000000000000000000000000000000000000000000000000000008152600401611b8690614de2565b60405180910390fd5b6000600160008373ffffffffffffffffffffffffffffffffffffffff1673ffffffffffffffffffffffffffffffffffffffff168152602001908152602001600020905060008160000160006101000a81548160ff02191690836003811115611bfa57611bf9614bb7565b5b02179055507f35b80cd8ea3440e9a8454f116fa658b858da1b64c86c48451f4559cefcdfb56c82604051611c2e91906148d8565b60405180910390a15050565b611c6b7f3b49a237fe2d18fa4d9642b8a0e065923cceb71b797783b619a030a61d848bf0611c666129a6565b611a2d565b611caa576040517f08c379a0000000000000000000000000000000000000000000000000000000008152600401611ca190614de2565b60405180910390fd5b6000600160008373ffffffffffffffffffffffffffffffffffffffff1673ffffffffffffffffffffffffffffffffffffffff168152602001908152602001600020905060038160000160006101000a81548160ff02191690836003811115611d1557611d14614bb7565b5b02179055507f2d308553613a8b5f76f8c48d472c9e87a154ff1c39ec3942a3ecca7c22b1452782604051611d4991906148d8565b60405180910390a15050565b611d5e82610c70565b611d6f81611d6a6129a6565b612edc565b611d79838361305a565b505050565b6002600b541415611dc4576040517f08c379a0000000000000000000000000000000000000000000000000000000008152600401611dbb90614b2b565b60405180910390fd5b6002600b81905550611dd461159d565b15611e14576040517f08c379a0000000000000000000000000000000000000000000000000000000008152600401611e0b90614b97565b60405180910390fd5b816000600160008373ffffffffffffffffffffffffffffffffffffffff1673ffffffffffffffffffffffffffffffffffffffff1681526020019081526020016000206040518060800160405290816000820160009054906101000a900460ff166003811115611e8657611e85614bb7565b5b6003811115611e9857611e97614bb7565b5b81526020016000820160019054906101000a900473ffffffffffffffffffffffffffffffffffffffff1673ffffffffffffffffffffffffffffffffffffffff1673ffffffffffffffffffffffffffffffffffffffff1681526020016001820160009054906101000a900473ffffffffffffffffffffffffffffffffffffffff1673ffffffffffffffffffffffffffffffffffffffff1673ffffffffffffffffffffffffffffffffffffffff1681526020016002820160009054906101000a90046fffffffffffffffffffffffffffffffff166fffffffffffffffffffffffffffffffff166fffffffffffffffffffffffffffffffff1681525050905060026003811115611fa857611fa7614bb7565b5b81600001516003811115611fbf57611fbe614bb7565b5b1415612000576040517f08c379a0000000000000000000000000000000000000000000000000000000008152600401611ff790614c32565b60405180910390fd5b61200a8484613d63565b50506001600b819055505050565b80600860008473ffffffffffffffffffffffffffffffffffffffff1673ffffffffffffffffffffffffffffffffffffffff168152602001908152602001600020819055505050565b60007f01ffc9a7000000000000000000000000000000000000000000000000000000007bffffffffffffffffffffffffffffffffffffffffffffffffffffffff1916827bffffffffffffffffffffffffffffffffffffffffffffffffffffffff1916149050919050565b600080600160008673ffffffffffffffffffffffffffffffffffffffff1673ffffffffffffffffffffffffffffffffffffffff1681526020019081526020016000206040518060800160405290816000820160009054906101000a900460ff16600381111561213c5761213b614bb7565b5b600381111561214e5761214d614bb7565b5b81526020016000820160019054906101000a900473ffffffffffffffffffffffffffffffffffffffff1673ffffffffffffffffffffffffffffffffffffffff1673ffffffffffffffffffffffffffffffffffffffff1681526020016001820160009054906101000a900473ffffffffffffffffffffffffffffffffffffffff1673ffffffffffffffffffffffffffffffffffffffff1673ffffffffffffffffffffffffffffffffffffffff1681526020016002820160009054906101000a90046fffffffffffffffffffffffffffffffff166fffffffffffffffffffffffffffffffff166fffffffffffffffffffffffffffffffff168152505090506000600360009054906101000a900473ffffffffffffffffffffffffffffffffffffffff1673ffffffffffffffffffffffffffffffffffffffff1663b176e311856040518263ffffffff1660e01b81526004016122a79190614881565b61014060405180830381600087803b1580156122c257600080fd5b505af11580156122d6573d6000803e3d6000fd5b505050506040513d601f19601f820116820180604052508101906122fa91906151a3565b9050806060015173ffffffffffffffffffffffffffffffffffffffff168673ffffffffffffffffffffffffffffffffffffffff161461236e576040517f08c379a00000000000000000000000000000000000000000000000000000000081526004016123659061521d565b60405180910390fd5b6000612382826020015160000151886109d9565b90506123ab606461239d60508461297a90919063ffffffff16565b61299090919063ffffffff16565b86146123ec576040517f08c379a00000000000000000000000000000000000000000000000000000000081526004016123e390615289565b60405180910390fd5b8160e00151811080612402575081610100015142115b612441576040517f08c379a0000000000000000000000000000000000000000000000000000000008152600401612438906152f5565b60405180910390fd5b60008260400151905060008360a0015190508873ffffffffffffffffffffffffffffffffffffffff166323b872dd6124776129a6565b8760200151846040518463ffffffff1660e01b815260040161249b93929190615315565b602060405180830381600087803b1580156124b557600080fd5b505af11580156124c9573d6000803e3d6000fd5b505050506040513d601f19601f820116820180604052508101906124ed9190615378565b95508561252f576040517f08c379a0000000000000000000000000000000000000000000000000000000008152600401612526906153f1565b60405180910390fd5b6000612544828a6141bb90919063ffffffff16565b9050600061257060646125626006548561297a90919063ffffffff16565b61299090919063ffffffff16565b9050600061258782846141bb90919063ffffffff16565b90508b73ffffffffffffffffffffffffffffffffffffffff166323b872dd6125ad6129a6565b60008054906101000a900473ffffffffffffffffffffffffffffffffffffffff16856040518463ffffffff1660e01b81526004016125ed93929190615315565b602060405180830381600087803b15801561260757600080fd5b505af115801561261b573d6000803e3d6000fd5b505050506040513d601f19601f8201168201806040525081019061263f9190615378565b985088612681576040517f08c379a0000000000000000000000000000000000000000000000000000000008152600401612678906153f1565b60405180910390fd5b8b73ffffffffffffffffffffffffffffffffffffffff166323b872dd6126a56129a6565b87846040518463ffffffff1660e01b81526004016126c593929190615315565b602060405180830381600087803b1580156126df57600080fd5b505af11580156126f3573d6000803e3d6000fd5b505050506040513d601f19601f820116820180604052508101906127179190615378565b985088612759576040517f08c379a0000000000000000000000000000000000000000000000000000000008152600401612750906153f1565b60405180910390fd5b876040015173ffffffffffffffffffffffffffffffffffffffff166379cc679086866040518363ffffffff1660e01b8152600401612798929190615411565b602060405180830381600087803b1580156127b257600080fd5b505af11580156127c6573d6000803e3d6000fd5b505050506040513d601f19601f820116820180604052508101906127ea9190615378565b98508861282c576040517f08c379a000000000000000000000000000000000000000000000000000000000815260040161282390615486565b60405180910390fd5b600360009054906101000a900473ffffffffffffffffffffffffffffffffffffffff1673ffffffffffffffffffffffffffffffffffffffff1663f39d56b18b8e876128756129a6565b6040518563ffffffff1660e01b815260040161289494939291906154a6565b602060405180830381600087803b1580156128ae57600080fd5b505af11580156128c2573d6000803e3d6000fd5b505050506040513d601f19601f820116820180604052508101906128e69190615378565b985088612928576040517f08c379a000000000000000000000000000000000000000000000000000000000815260040161291f90615537565b60405180910390fd5b7f2cc5ac246baf2255b46a628c76c4c8aeef5ed302815291f17ea16e9a124cab078a8d8d6129546129a6565b60405161296494939291906154a6565b60405180910390a1505050505050505050505050565b600081836129889190615586565b905092915050565b6000818361299e919061560f565b905092915050565b600033905090565b600080600160008873ffffffffffffffffffffffffffffffffffffffff1673ffffffffffffffffffffffffffffffffffffffff1681526020019081526020016000206040518060800160405290816000820160009054906101000a900460ff166003811115612a2057612a1f614bb7565b5b6003811115612a3257612a31614bb7565b5b81526020016000820160019054906101000a900473ffffffffffffffffffffffffffffffffffffffff1673ffffffffffffffffffffffffffffffffffffffff1673ffffffffffffffffffffffffffffffffffffffff1681526020016001820160009054906101000a900473ffffffffffffffffffffffffffffffffffffffff1673ffffffffffffffffffffffffffffffffffffffff1673ffffffffffffffffffffffffffffffffffffffff1681526020016002820160009054906101000a90046fffffffffffffffffffffffffffffffff166fffffffffffffffffffffffffffffffff166fffffffffffffffffffffffffffffffff168152505090506000612b3c888888876141d1565b9050600360009054906101000a900473ffffffffffffffffffffffffffffffffffffffff1673ffffffffffffffffffffffffffffffffffffffff1663876e264f612b846129a6565b8a89898c87600060048110612b9c57612b9b615640565b5b602002015188600160048110612bb557612bb4615640565b5b602002015189600260048110612bce57612bcd615640565b5b60200201518a600360048110612be757612be6615640565b5b60200201516040518a63ffffffff1660e01b8152600401612c109998979695949392919061566f565b602060405180830381600087803b158015612c2a57600080fd5b505af1158015612c3e573d6000803e3d6000fd5b505050506040513d601f19601f82011682018060405250810190612c629190615378565b925082612ca4576040517f08c379a0000000000000000000000000000000000000000000000000000000008152600401612c9b90615748565b60405180910390fd5b816040015173ffffffffffffffffffffffffffffffffffffffff166340c10f19612ccc6129a6565b83600060048110612ce057612cdf615640565b5b60200201516040518363ffffffff1660e01b8152600401612d02929190615411565b602060405180830381600087803b158015612d1c57600080fd5b505af1158015612d30573d6000803e3d6000fd5b505050506040513d601f19601f82011682018060405250810190612d549190615378565b925082612d96576040517f08c379a0000000000000000000000000000000000000000000000000000000008152600401612d8d906157b4565b60405180910390fd5b816020015173ffffffffffffffffffffffffffffffffffffffff16634adefaf3612dbe6129a6565b8a8a6040518463ffffffff1660e01b8152600401612dde93929190615315565b602060405180830381600087803b158015612df857600080fd5b505af1158015612e0c573d6000803e3d6000fd5b505050506040513d601f19601f82011682018060405250810190612e309190615378565b925082612e72576040517f08c379a0000000000000000000000000000000000000000000000000000000008152600401612e69906153f1565b60405180910390fd5b7f90278d024ae976a43445c28cde9a547fd7ef7920f538c2fe239dcc5d6044e667888883600060048110612ea957612ea8615640565b5b60200201518989612eb86129a6565b604051612eca969594939291906157d4565b60405180910390a15050505050505050565b612ee68282611a2d565b612f7557612f0b8173ffffffffffffffffffffffffffffffffffffffff166014614395565b612f198360001c6020614395565b604051602001612f2a929190615947565b6040516020818303038152906040526040517f08c379a0000000000000000000000000000000000000000000000000000000008152600401612f6c91906159ba565b60405180910390fd5b5050565b612f838282611a2d565b6130565760016009600084815260200190815260200160002060000160008373ffffffffffffffffffffffffffffffffffffffff1673ffffffffffffffffffffffffffffffffffffffff16815260200190815260200160002060006101000a81548160ff021916908315150217905550612ffb6129a6565b73ffffffffffffffffffffffffffffffffffffffff168173ffffffffffffffffffffffffffffffffffffffff16837f2f8788117e7eff1d82e926ec794901d17c78024a50270940304540a733656f0d60405160405180910390a45b5050565b6130648282611a2d565b156131385760006009600084815260200190815260200160002060000160008373ffffffffffffffffffffffffffffffffffffffff1673ffffffffffffffffffffffffffffffffffffffff16815260200190815260200160002060006101000a81548160ff0219169083151502179055506130dd6129a6565b73ffffffffffffffffffffffffffffffffffffffff168173ffffffffffffffffffffffffffffffffffffffff16837ff6391f5c32d9c69d2a47ea670b442974b53935d1edc7fd64eb21e047a839171b60405160405180910390a45b5050565b61314461159d565b613183576040517f08c379a000000000000000000000000000000000000000000000000000000000815260040161317a90615a28565b60405180910390fd5b6000600a60006101000a81548160ff0219169083151502179055507f5db9ee0a495bf2e6ff9c91a7834c1ba4fdd244a5e8aa4e537bd38aeae4b073aa6131c76129a6565b6040516131d491906148d8565b60405180910390a1565b600080600160008573ffffffffffffffffffffffffffffffffffffffff1673ffffffffffffffffffffffffffffffffffffffff1681526020019081526020016000206040518060800160405290816000820160009054906101000a900460ff1660038111156132505761324f614bb7565b5b600381111561326257613261614bb7565b5b81526020016000820160019054906101000a900473ffffffffffffffffffffffffffffffffffffffff1673ffffffffffffffffffffffffffffffffffffffff1673ffffffffffffffffffffffffffffffffffffffff1681526020016001820160009054906101000a900473ffffffffffffffffffffffffffffffffffffffff1673ffffffffffffffffffffffffffffffffffffffff1673ffffffffffffffffffffffffffffffffffffffff1681526020016002820160009054906101000a90046fffffffffffffffffffffffffffffffff166fffffffffffffffffffffffffffffffff166fffffffffffffffffffffffffffffffff168152505090506000816020015190508473ffffffffffffffffffffffffffffffffffffffff166323b872dd61338b6129a6565b83876040518463ffffffff1660e01b81526004016133ab93929190615315565b602060405180830381600087803b1580156133c557600080fd5b505af11580156133d9573d6000803e3d6000fd5b505050506040513d601f19601f820116820180604052508101906133fd9190615378565b92508261343f576040517f08c379a0000000000000000000000000000000000000000000000000000000008152600401613436906153f1565b60405180910390fd5b8073ffffffffffffffffffffffffffffffffffffffff166340c10f196134636129a6565b866040518363ffffffff1660e01b8152600401613481929190615411565b602060405180830381600087803b15801561349b57600080fd5b505af11580156134af573d6000803e3d6000fd5b505050506040513d601f19601f820116820180604052508101906134d39190615378565b925082613515576040517f08c379a000000000000000000000000000000000000000000000000000000000815260040161350c906157b4565b60405180910390fd5b7fe31c7b8d08ee7db0afa68782e1028ef92305caeea8626633ad44d413e30f6b2f85856135406129a6565b60405161354f93929190615a48565b60405180910390a15050505050565b61356661159d565b156135a6576040517f08c379a000000000000000000000000000000000000000000000000000000000815260040161359d90614b97565b60405180910390fd5b6001600a60006101000a81548160ff0219169083151502179055507f62e78cea01bee320cd4e420270b5ea74000d11b0c9f74754ebdbfc544b05a2586135ea6129a6565b6040516135f791906148d8565b60405180910390a1565b600080600160008673ffffffffffffffffffffffffffffffffffffffff1673ffffffffffffffffffffffffffffffffffffffff1681526020019081526020016000206040518060800160405290816000820160009054906101000a900460ff16600381111561367357613672614bb7565b5b600381111561368557613684614bb7565b5b81526020016000820160019054906101000a900473ffffffffffffffffffffffffffffffffffffffff1673ffffffffffffffffffffffffffffffffffffffff1673ffffffffffffffffffffffffffffffffffffffff1681526020016001820160009054906101000a900473ffffffffffffffffffffffffffffffffffffffff1673ffffffffffffffffffffffffffffffffffffffff1673ffffffffffffffffffffffffffffffffffffffff1681526020016002820160009054906101000a90046fffffffffffffffffffffffffffffffff166fffffffffffffffffffffffffffffffff166fffffffffffffffffffffffffffffffff16815250509050806020015173ffffffffffffffffffffffffffffffffffffffff16634ed730766137a96129a6565b87876040518463ffffffff1660e01b81526004016137c993929190615315565b602060405180830381600087803b1580156137e357600080fd5b505af11580156137f7573d6000803e3d6000fd5b505050506040513d601f19601f8201168201806040525081019061381b9190615378565b91508161385d576040517f08c379a0000000000000000000000000000000000000000000000000000000008152600401613854906153f1565b60405180910390fd5b600360009054906101000a900473ffffffffffffffffffffffffffffffffffffffff1673ffffffffffffffffffffffffffffffffffffffff1663e63697c88487876040518463ffffffff1660e01b81526004016138bc93929190615a7f565b602060405180830381600087803b1580156138d657600080fd5b505af11580156138ea573d6000803e3d6000fd5b505050506040513d601f19601f8201168201806040525081019061390e9190615378565b915081613950576040517f08c379a000000000000000000000000000000000000000000000000000000000815260040161394790615b02565b60405180910390fd5b806040015173ffffffffffffffffffffffffffffffffffffffff166379cc67906139786129a6565b866040518363ffffffff1660e01b8152600401613996929190615411565b602060405180830381600087803b1580156139b057600080fd5b505af11580156139c4573d6000803e3d6000fd5b505050506040513d601f19601f820116820180604052508101906139e89190615378565b915081613a2a576040517f08c379a0000000000000000000000000000000000000000000000000000000008152600401613a2190615486565b60405180910390fd5b7fee55f35903a68736eb797d0792468ffd756ede28825810847e1f0a5df7dfcbe3838686613a566129a6565b604051613a6694939291906154a6565b60405180910390a15050505050565b613a7d6145e7565b600081600001906003811115613a9657613a95614bb7565b5b90816003811115613aaa57613aa9614bb7565b5b8152505082816020019073ffffffffffffffffffffffffffffffffffffffff16908173ffffffffffffffffffffffffffffffffffffffff168152505081816040019073ffffffffffffffffffffffffffffffffffffffff16908173ffffffffffffffffffffffffffffffffffffffff168152505080600160008673ffffffffffffffffffffffffffffffffffffffff1673ffffffffffffffffffffffffffffffffffffffff16815260200190815260200160002060008201518160000160006101000a81548160ff02191690836003811115613b8957613b88614bb7565b5b021790555060208201518160000160016101000a81548173ffffffffffffffffffffffffffffffffffffffff021916908373ffffffffffffffffffffffffffffffffffffffff16021790555060408201518160010160006101000a81548173ffffffffffffffffffffffffffffffffffffffff021916908373ffffffffffffffffffffffffffffffffffffffff16021790555060608201518160020160006101000a8154816fffffffffffffffffffffffffffffffff02191690836fffffffffffffffffffffffffffffffff1602179055509050507f19c982943081870e1ecbb781c6c1c2189b40bbd439f6ecdb096eec0cee645ffd84600160008773ffffffffffffffffffffffffffffffffffffffff1673ffffffffffffffffffffffffffffffffffffffff16815260200190815260200160002060000160019054906101000a900473ffffffffffffffffffffffffffffffffffffffff16600160008873ffffffffffffffffffffffffffffffffffffffff1673ffffffffffffffffffffffffffffffffffffffff16815260200190815260200160002060010160009054906101000a900473ffffffffffffffffffffffffffffffffffffffff16604051613d5593929190615b22565b60405180910390a150505050565b600080600160008573ffffffffffffffffffffffffffffffffffffffff1673ffffffffffffffffffffffffffffffffffffffff1681526020019081526020016000206040518060800160405290816000820160009054906101000a900460ff166003811115613dd557613dd4614bb7565b5b6003811115613de757613de6614bb7565b5b81526020016000820160019054906101000a900473ffffffffffffffffffffffffffffffffffffffff1673ffffffffffffffffffffffffffffffffffffffff1673ffffffffffffffffffffffffffffffffffffffff1681526020016001820160009054906101000a900473ffffffffffffffffffffffffffffffffffffffff1673ffffffffffffffffffffffffffffffffffffffff1673ffffffffffffffffffffffffffffffffffffffff1681526020016002820160009054906101000a90046fffffffffffffffffffffffffffffffff166fffffffffffffffffffffffffffffffff166fffffffffffffffffffffffffffffffff1681525050905060008160200151905060008173ffffffffffffffffffffffffffffffffffffffff166370a08231613f126129a6565b6040518263ffffffff1660e01b8152600401613f2e91906148d8565b60206040518083038186803b158015613f4657600080fd5b505afa158015613f5a573d6000803e3d6000fd5b505050506040513d601f19601f82011682018060405250810190613f7e9190615b59565b905084811015613fc3576040517f08c379a0000000000000000000000000000000000000000000000000000000008152600401613fba90615bd2565b60405180910390fd5b8173ffffffffffffffffffffffffffffffffffffffff166379cc6790613fe76129a6565b876040518363ffffffff1660e01b8152600401614005929190615411565b602060405180830381600087803b15801561401f57600080fd5b505af1158015614033573d6000803e3d6000fd5b505050506040513d601f19601f820116820180604052508101906140579190615378565b935083614099576040517f08c379a000000000000000000000000000000000000000000000000000000000815260040161409090615486565b60405180910390fd5b8173ffffffffffffffffffffffffffffffffffffffff16634adefaf36140bd6129a6565b88886040518463ffffffff1660e01b81526004016140dd93929190615315565b602060405180830381600087803b1580156140f757600080fd5b505af115801561410b573d6000803e3d6000fd5b505050506040513d601f19601f8201168201806040525081019061412f9190615378565b935083614171576040517f08c379a0000000000000000000000000000000000000000000000000000000008152600401614168906153f1565b60405180910390fd5b7f56c54ba9bd38d8fd62012e42c7ee564519b09763c426d331b3661b537ead19b2868661419c6129a6565b6040516141ab93929190615a48565b60405180910390a1505050505050565b600081836141c99190615bf2565b905092915050565b6141d961465f565b6141e161465f565b6000600360009054906101000a900473ffffffffffffffffffffffffffffffffffffffff1673ffffffffffffffffffffffffffffffffffffffff1663d3ea0f89866040518263ffffffff1660e01b815260040161423e91906148d8565b602060405180830381600087803b15801561425857600080fd5b505af115801561426c573d6000803e3d6000fd5b505050506040513d601f19601f820116820180604052508101906142909190615b59565b90506142ef6142e060346142d2876142c460646142b6888e61297a90919063ffffffff16565b61299090919063ffffffff16565b61297a90919063ffffffff16565b61299090919063ffffffff16565b876145d190919063ffffffff16565b8260006004811061430357614302615640565b5b602002018181525050808260016004811061432157614320615640565b5b60200201818152505061433485886109d9565b8260026004811061434857614347615640565b5b60200201818152505062093a80846143609190615586565b4261436b9190615c26565b8260036004811061437f5761437e615640565b5b6020020181815250508192505050949350505050565b6060600060028360026143a89190615586565b6143b29190615c26565b67ffffffffffffffff8111156143cb576143ca614fa8565b5b6040519080825280601f01601f1916602001820160405280156143fd5781602001600182028036833780820191505090505b5090507f30000000000000000000000000000000000000000000000000000000000000008160008151811061443557614434615640565b5b60200101907effffffffffffffffffffffffffffffffffffffffffffffffffffffffffffff1916908160001a9053507f78000000000000000000000000000000000000000000000000000000000000008160018151811061449957614498615640565b5b60200101907effffffffffffffffffffffffffffffffffffffffffffffffffffffffffffff1916908160001a905350600060018460026144d99190615586565b6144e39190615c26565b90505b6001811115614583577f3031323334353637383961626364656600000000000000000000000000000000600f86166010811061452557614524615640565b5b1a60f81b82828151811061453c5761453b615640565b5b60200101907effffffffffffffffffffffffffffffffffffffffffffffffffffffffffffff1916908160001a905350600485901c94508061457c90615c7c565b90506144e6565b50600084146145c7576040517f08c379a00000000000000000000000000000000000000000000000000000000081526004016145be90615cf2565b60405180910390fd5b8091505092915050565b600081836145df9190615c26565b905092915050565b60405180608001604052806000600381111561460657614605614bb7565b5b8152602001600073ffffffffffffffffffffffffffffffffffffffff168152602001600073ffffffffffffffffffffffffffffffffffffffff16815260200160006fffffffffffffffffffffffffffffffff1681525090565b6040518060800160405280600490602082028036833780820191505090505090565b6000604051905090565b600080fd5b60007fffffffff0000000000000000000000000000000000000000000000000000000082169050919050565b6146c581614690565b81146146d057600080fd5b50565b6000813590506146e2816146bc565b92915050565b6000602082840312156146fe576146fd61468b565b5b600061470c848285016146d3565b91505092915050565b60008115159050919050565b61472a81614715565b82525050565b60006020820190506147456000830184614721565b92915050565b600073ffffffffffffffffffffffffffffffffffffffff82169050919050565b60006147768261474b565b9050919050565b6147868161476b565b811461479157600080fd5b50565b6000813590506147a38161477d565b92915050565b6000819050919050565b6147bc816147a9565b81146147c757600080fd5b50565b6000813590506147d9816147b3565b92915050565b6000806000606084860312156147f8576147f761468b565b5b600061480686828701614794565b9350506020614817868287016147ca565b9250506040614828868287016147ca565b9150509250925092565b600080604083850312156148495761484861468b565b5b600061485785828601614794565b925050602061486885828601614794565b9150509250929050565b61487b816147a9565b82525050565b60006020820190506148966000830184614872565b92915050565b6000602082840312156148b2576148b161468b565b5b60006148c084828501614794565b91505092915050565b6148d28161476b565b82525050565b60006020820190506148ed60008301846148c9565b92915050565b6000819050919050565b614906816148f3565b811461491157600080fd5b50565b600081359050614923816148fd565b92915050565b60006020828403121561493f5761493e61468b565b5b600061494d84828501614914565b91505092915050565b61495f816148f3565b82525050565b600060208201905061497a6000830184614956565b92915050565b600080600080600060a0868803121561499c5761499b61468b565b5b60006149aa88828901614794565b95505060206149bb888289016147ca565b94505060406149cc88828901614794565b93505060606149dd888289016147ca565b92505060806149ee888289016147ca565b9150509295509295909350565b60008060408385031215614a1257614a1161468b565b5b6000614a2085828601614914565b9250506020614a3185828601614794565b9150509250929050565b60008060408385031215614a5257614a5161468b565b5b6000614a6085828601614794565b9250506020614a71858286016147ca565b9150509250929050565b600080600060608486031215614a9457614a9361468b565b5b6000614aa286828701614794565b9350506020614ab386828701614794565b9250506040614ac486828701614794565b9150509250925092565b600082825260208201905092915050565b7f5265656e7472616e637947756172643a207265656e7472616e742063616c6c00600082015250565b6000614b15601f83614ace565b9150614b2082614adf565b602082019050919050565b60006020820190508181036000830152614b4481614b08565b9050919050565b7f5061757361626c653a2070617573656400000000000000000000000000000000600082015250565b6000614b81601083614ace565b9150614b8c82614b4b565b602082019050919050565b60006020820190508181036000830152614bb081614b74565b9050919050565b7f4e487b7100000000000000000000000000000000000000000000000000000000600052602160045260246000fd5b7f52657365727665206973207061757365642e0000000000000000000000000000600082015250565b6000614c1c601283614ace565b9150614c2782614be6565b602082019050919050565b60006020820190508181036000830152614c4b81614c0f565b9050919050565b7f526573657276652069732070726f7465637465642e0000000000000000000000600082015250565b6000614c88601583614ace565b9150614c9382614c52565b602082019050919050565b60006020820190508181036000830152614cb781614c7b565b9050919050565b7f554e5345545f4d4f434b5f464c4f4f5250524943450000000000000000000000600082015250565b6000614cf4601583614ace565b9150614cff82614cbe565b602082019050919050565b60006020820190508181036000830152614d2381614ce7565b9050919050565b7f554e5345545f4d4f434b5f544f4b454e50524943450000000000000000000000600082015250565b6000614d60601583614ace565b9150614d6b82614d2a565b602082019050919050565b60006020820190508181036000830152614d8f81614d53565b9050919050565b7f43616c6c6572206973206e6f742074686520436f6e666967757261746f720000600082015250565b6000614dcc601e83614ace565b9150614dd782614d96565b602082019050919050565b60006020820190508181036000830152614dfb81614dbf565b9050919050565b7f52657365727665206973206e6f74206163746976652e00000000000000000000600082015250565b6000614e38601683614ace565b9150614e4382614e02565b602082019050919050565b60006020820190508181036000830152614e6781614e2b565b9050919050565b7f436f6c6c61746572616c204d616e6167657220616c726561647920636f6e6e6560008201527f6374656400000000000000000000000000000000000000000000000000000000602082015250565b6000614eca602483614ace565b9150614ed582614e6e565b604082019050919050565b60006020820190508181036000830152614ef981614ebd565b9050919050565b7f416363657373436f6e74726f6c3a2063616e206f6e6c792072656e6f756e636560008201527f20726f6c657320666f722073656c660000000000000000000000000000000000602082015250565b6000614f5c602f83614ace565b9150614f6782614f00565b604082019050919050565b60006020820190508181036000830152614f8b81614f4f565b9050919050565b600080fd5b6000601f19601f8301169050919050565b7f4e487b7100000000000000000000000000000000000000000000000000000000600052604160045260246000fd5b614fe082614f97565b810181811067ffffffffffffffff82111715614fff57614ffe614fa8565b5b80604052505050565b6000615012614681565b905061501e8282614fd7565b919050565b6003811061503057600080fd5b50565b60008151905061504281615023565b92915050565b6000815190506150578161477d565b92915050565b60008151905061506c816147b3565b92915050565b60006040828403121561508857615087614f92565b5b6150926040615008565b905060006150a284828501615048565b60008301525060206150b68482850161505d565b60208301525092915050565b600061014082840312156150d9576150d8614f92565b5b6150e4610120615008565b905060006150f484828501615033565b600083015250602061510884828501615072565b602083015250606061511c84828501615048565b604083015250608061513084828501615048565b60608301525060a06151448482850161505d565b60808301525060c06151588482850161505d565b60a08301525060e061516c8482850161505d565b60c0830152506101006151818482850161505d565b60e0830152506101206151968482850161505d565b6101008301525092915050565b600061014082840312156151ba576151b961468b565b5b60006151c8848285016150c2565b91505092915050565b7f494e434f52524543545f41535345540000000000000000000000000000000000600082015250565b6000615207600f83614ace565b9150615212826151d1565b602082019050919050565b60006020820190508181036000830152615236816151fa565b9050919050565b7f494e434f52524543545f414d4f554e5400000000000000000000000000000000600082015250565b6000615273601083614ace565b915061527e8261523d565b602082019050919050565b600060208201905081810360008301526152a281615266565b9050919050565b7f424f52524f575f4e4f545f494e5f44454641554c540000000000000000000000600082015250565b60006152df601583614ace565b91506152ea826152a9565b602082019050919050565b6000602082019050818103600083015261530e816152d2565b9050919050565b600060608201905061532a60008301866148c9565b61533760208301856148c9565b6153446040830184614872565b949350505050565b61535581614715565b811461536057600080fd5b50565b6000815190506153728161534c565b92915050565b60006020828403121561538e5761538d61468b565b5b600061539c84828501615363565b91505092915050565b7f554e5355434345535346554c5f5452414e534645520000000000000000000000600082015250565b60006153db601583614ace565b91506153e6826153a5565b602082019050919050565b6000602082019050818103600083015261540a816153ce565b9050919050565b600060408201905061542660008301856148c9565b6154336020830184614872565b9392505050565b7f554e5355434345535346554c5f4255524e000000000000000000000000000000600082015250565b6000615470601183614ace565b915061547b8261543a565b602082019050919050565b6000602082019050818103600083015261549f81615463565b9050919050565b60006080820190506154bb6000830187614872565b6154c860208301866148c9565b6154d56040830185614872565b6154e260608301846148c9565b95945050505050565b7f554e5355434345535346554c5f52455452494556450000000000000000000000600082015250565b6000615521601583614ace565b915061552c826154eb565b602082019050919050565b6000602082019050818103600083015261555081615514565b9050919050565b7f4e487b7100000000000000000000000000000000000000000000000000000000600052601160045260246000fd5b6000615591826147a9565b915061559c836147a9565b9250817fffffffffffffffffffffffffffffffffffffffffffffffffffffffffffffffff04831182151516156155d5576155d4615557565b5b828202905092915050565b7f4e487b7100000000000000000000000000000000000000000000000000000000600052601260045260246000fd5b600061561a826147a9565b9150615625836147a9565b925082615635576156346155e0565b5b828204905092915050565b7f4e487b7100000000000000000000000000000000000000000000000000000000600052603260045260246000fd5b600061012082019050615685600083018c6148c9565b615692602083018b6148c9565b61569f604083018a6148c9565b6156ac6060830189614872565b6156b96080830188614872565b6156c660a0830187614872565b6156d360c0830186614872565b6156e060e0830185614872565b6156ee610100830184614872565b9a9950505050505050505050565b7f554e5355434345535346554c5f4445504f534954000000000000000000000000600082015250565b6000615732601483614ace565b915061573d826156fc565b602082019050919050565b6000602082019050818103600083015261576181615725565b9050919050565b7f554e5355434345535346554c5f4d494e54000000000000000000000000000000600082015250565b600061579e601183614ace565b91506157a982615768565b602082019050919050565b600060208201905081810360008301526157cd81615791565b9050919050565b600060c0820190506157e960008301896148c9565b6157f66020830188614872565b6158036040830187614872565b61581060608301866148c9565b61581d6080830185614872565b61582a60a08301846148c9565b979650505050505050565b600081905092915050565b7f416363657373436f6e74726f6c3a206163636f756e7420000000000000000000600082015250565b6000615876601783615835565b915061588182615840565b601782019050919050565b600081519050919050565b60005b838110156158b557808201518184015260208101905061589a565b838111156158c4576000848401525b50505050565b60006158d58261588c565b6158df8185615835565b93506158ef818560208601615897565b80840191505092915050565b7f206973206d697373696e6720726f6c6520000000000000000000000000000000600082015250565b6000615931601183615835565b915061593c826158fb565b601182019050919050565b600061595282615869565b915061595e82856158ca565b915061596982615924565b915061597582846158ca565b91508190509392505050565b600061598c8261588c565b6159968185614ace565b93506159a6818560208601615897565b6159af81614f97565b840191505092915050565b600060208201905081810360008301526159d48184615981565b905092915050565b7f5061757361626c653a206e6f7420706175736564000000000000000000000000600082015250565b6000615a12601483614ace565b9150615a1d826159dc565b602082019050919050565b60006020820190508181036000830152615a4181615a05565b9050919050565b6000606082019050615a5d60008301866148c9565b615a6a6020830185614872565b615a7760408301846148c9565b949350505050565b6000606082019050615a946000830186614872565b615aa160208301856148c9565b615aae6040830184614872565b949350505050565b7f554e5355434345535346554c5f57495448445241570000000000000000000000600082015250565b6000615aec601583614ace565b9150615af782615ab6565b602082019050919050565b60006020820190508181036000830152615b1b81615adf565b9050919050565b6000606082019050615b3760008301866148c9565b615b4460208301856148c9565b615b5160408301846148c9565b949350505050565b600060208284031215615b6f57615b6e61468b565b5b6000615b7d8482850161505d565b91505092915050565b7f494e53554646494349454e545f42414c414e4345000000000000000000000000600082015250565b6000615bbc601483614ace565b9150615bc782615b86565b602082019050919050565b60006020820190508181036000830152615beb81615baf565b9050919050565b6000615bfd826147a9565b9150615c08836147a9565b925082821015615c1b57615c1a615557565b5b828203905092915050565b6000615c31826147a9565b9150615c3c836147a9565b9250827fffffffffffffffffffffffffffffffffffffffffffffffffffffffffffffffff03821115615c7157615c70615557565b5b828201905092915050565b6000615c87826147a9565b91506000821415615c9b57615c9a615557565b5b600182039050919050565b7f537472696e67733a20686578206c656e67746820696e73756666696369656e74600082015250565b6000615cdc602083614ace565b9150615ce782615ca6565b602082019050919050565b60006020820190508181036000830152615d0b81615ccf565b905091905056fea26469706673582212208d8689e10570e990f778b6caf631bb9593102cf9a2abeaa6dad189a1b123028a64736f6c63430008090033",
  "linkReferences": {},
  "deployedLinkReferences": {}
}