{
  "contractName": "NFTlendV1LendingPool",
  "abi": [
    {
      "anonymous": false,
      "inputs": [
        {
          "indexed": false,
          "internalType": "address",
          "name": "user",
          "type": "address"
        },
        {
          "indexed": false,
          "internalType": "address",
          "name": "asset",
          "type": "address"
        },
        {
          "indexed": false,
          "internalType": "uint256",
          "name": "amount",
          "type": "uint256"
        },
        {
          "indexed": false,
          "internalType": "address",
          "name": "collateral",
          "type": "address"
        },
        {
          "indexed": false,
          "internalType": "uint32",
          "name": "tokenId",
          "type": "uint32"
        }
      ],
      "name": "Borrow",
      "type": "event"
    },
    {
      "anonymous": false,
      "inputs": [
        {
          "indexed": false,
          "internalType": "address",
          "name": "user",
          "type": "address"
        },
        {
          "indexed": false,
          "internalType": "address",
          "name": "collateral",
          "type": "address"
        },
        {
          "indexed": false,
          "internalType": "uint32",
          "name": "tokenId",
          "type": "uint32"
        }
      ],
      "name": "DepositNFT",
      "type": "event"
    },
    {
      "anonymous": false,
      "inputs": [
        {
          "indexed": false,
          "internalType": "address",
          "name": "user",
          "type": "address"
        },
        {
          "indexed": false,
          "internalType": "address",
          "name": "asset",
          "type": "address"
        },
        {
          "indexed": false,
          "internalType": "uint256",
          "name": "amount",
          "type": "uint256"
        }
      ],
      "name": "DepositToken",
      "type": "event"
    },
    {
      "anonymous": false,
      "inputs": [
        {
          "indexed": false,
          "internalType": "address",
          "name": "user",
          "type": "address"
        },
        {
          "indexed": false,
          "internalType": "address",
          "name": "collateral",
          "type": "address"
        },
        {
          "indexed": false,
          "internalType": "uint32",
          "name": "tokenId",
          "type": "uint32"
        }
      ],
      "name": "Liquidate",
      "type": "event"
    },
    {
      "anonymous": false,
      "inputs": [
        {
          "indexed": false,
          "internalType": "address",
          "name": "user",
          "type": "address"
        },
        {
          "indexed": false,
          "internalType": "address",
          "name": "asset",
          "type": "address"
        },
        {
          "indexed": false,
          "internalType": "uint256",
          "name": "amount",
          "type": "uint256"
        },
        {
          "indexed": false,
          "internalType": "address",
          "name": "collateral",
          "type": "address"
        },
        {
          "indexed": false,
          "internalType": "uint32",
          "name": "tokenId",
          "type": "uint32"
        }
      ],
      "name": "Repay",
      "type": "event"
    },
    {
      "anonymous": false,
      "inputs": [
        {
          "indexed": false,
          "internalType": "address",
          "name": "user",
          "type": "address"
        },
        {
          "indexed": false,
          "internalType": "address",
          "name": "collateral",
          "type": "address"
        },
        {
          "indexed": false,
          "internalType": "uint32",
          "name": "tokenId",
          "type": "uint32"
        }
      ],
      "name": "WithdrawNFT",
      "type": "event"
    },
    {
      "anonymous": false,
      "inputs": [
        {
          "indexed": false,
          "internalType": "address",
          "name": "user",
          "type": "address"
        },
        {
          "indexed": false,
          "internalType": "address",
          "name": "asset",
          "type": "address"
        },
        {
          "indexed": false,
          "internalType": "uint256",
          "name": "amount",
          "type": "uint256"
        }
      ],
      "name": "WithdrawToken",
      "type": "event"
    },
    {
      "inputs": [
        {
          "internalType": "address",
          "name": "asset",
          "type": "address"
        },
        {
          "internalType": "uint256",
          "name": "amount",
          "type": "uint256"
        }
      ],
      "name": "depositToken",
      "outputs": [],
      "stateMutability": "nonpayable",
      "type": "function"
    },
    {
      "inputs": [
        {
          "internalType": "address",
          "name": "asset",
          "type": "address"
        },
        {
          "internalType": "uint256",
          "name": "amount",
          "type": "uint256"
        }
      ],
      "name": "withdrawToken",
      "outputs": [],
      "stateMutability": "nonpayable",
      "type": "function"
    },
    {
      "inputs": [
        {
          "internalType": "address",
          "name": "collateral",
          "type": "address"
        },
        {
          "internalType": "uint32",
          "name": "tokenId",
          "type": "uint32"
        }
      ],
      "name": "depositNFT",
      "outputs": [],
      "stateMutability": "nonpayable",
      "type": "function"
    },
    {
      "inputs": [
        {
          "internalType": "address",
          "name": "collateral",
          "type": "address"
        },
        {
          "internalType": "uint32",
          "name": "tokenId",
          "type": "uint32"
        }
      ],
      "name": "withdrawNFT",
      "outputs": [],
      "stateMutability": "nonpayable",
      "type": "function"
    },
    {
      "inputs": [
        {
          "internalType": "address",
          "name": "asset",
          "type": "address"
        },
        {
          "internalType": "address",
          "name": "collateral",
          "type": "address"
        },
        {
          "internalType": "uint256",
          "name": "amount",
          "type": "uint256"
        },
        {
          "internalType": "uint32",
          "name": "tokenId",
          "type": "uint32"
        }
      ],
      "name": "borrow",
      "outputs": [],
      "stateMutability": "nonpayable",
      "type": "function"
    },
    {
      "inputs": [
        {
          "internalType": "address",
          "name": "asset",
          "type": "address"
        },
        {
          "internalType": "address",
          "name": "collateral",
          "type": "address"
        },
        {
          "internalType": "uint256",
          "name": "amount",
          "type": "uint256"
        },
        {
          "internalType": "uint32",
          "name": "tokenId",
          "type": "uint32"
        }
      ],
      "name": "repay",
      "outputs": [],
      "stateMutability": "nonpayable",
      "type": "function"
    },
    {
      "inputs": [
        {
          "internalType": "address",
          "name": "collateral",
          "type": "address"
        },
        {
          "internalType": "uint32",
          "name": "tokenId",
          "type": "uint32"
        }
      ],
      "name": "liquidate",
      "outputs": [],
      "stateMutability": "nonpayable",
      "type": "function"
    }
  ],
  "bytecode": "0x608060405234801561001057600080fd5b506105eb806100206000396000f3fe608060405234801561001057600080fd5b506004361061007d5760003560e01c8063a16b732c1161005b578063a16b732c146100d6578063bc0cd0da146100f2578063e082eacf1461010e578063f6d0cbd01461012a5761007d565b8063338b5dea146100825780634862ce001461009e5780639e281a98146100ba575b600080fd5b61009c600480360381019061009791906103a4565b610146565b005b6100b860048036038101906100b39190610420565b610185565b005b6100d460048036038101906100cf91906103a4565b6101ca565b005b6100f060048036038101906100eb9190610487565b610209565b005b61010c60048036038101906101079190610487565b610248565b005b61012860048036038101906101239190610487565b610287565b005b610144600480360381019061013f9190610420565b6102c6565b005b7f4b3f81827ede20c81afbf1bb77b954afcdcae24d391d99042310cb1d9210dd57338383604051610179939291906104e5565b60405180910390a15050565b7f2d5d5d750f553f92c04ffd47d00a343cba347635d415313672cb4eb530d694ca33858486856040516101bc95949392919061052b565b60405180910390a150505050565b7f037238854fe57fbf51f09946f854fc3916fe83938d6521f09bd05463839f13043383836040516101fd939291906104e5565b60405180910390a15050565b7f75f30940a7e9ca02e6d4bcd6c1a1b3df1c18aa388dcd76e802e97486dae35a9d33838360405161023c9392919061057e565b60405180910390a15050565b7faf6255f9bf6535dcbc359361c528b02002efffdf48f994f3416894853a803a7033838360405161027b9392919061057e565b60405180910390a15050565b7f96df457c864fc54ebaf95ebe9e6eff2dc16bb97b9326ff6b09b9bd2834632f0d3383836040516102ba9392919061057e565b60405180910390a15050565b7f8e045b1d6598ddb32fe4fb1578d1269c39042ac2edd504358289b6d17f5d182333858486856040516102fd95949392919061052b565b60405180910390a150505050565b600080fd5b600073ffffffffffffffffffffffffffffffffffffffff82169050919050565b600061033b82610310565b9050919050565b61034b81610330565b811461035657600080fd5b50565b60008135905061036881610342565b92915050565b6000819050919050565b6103818161036e565b811461038c57600080fd5b50565b60008135905061039e81610378565b92915050565b600080604083850312156103bb576103ba61030b565b5b60006103c985828601610359565b92505060206103da8582860161038f565b9150509250929050565b600063ffffffff82169050919050565b6103fd816103e4565b811461040857600080fd5b50565b60008135905061041a816103f4565b92915050565b6000806000806080858703121561043a5761043961030b565b5b600061044887828801610359565b945050602061045987828801610359565b935050604061046a8782880161038f565b925050606061047b8782880161040b565b91505092959194509250565b6000806040838503121561049e5761049d61030b565b5b60006104ac85828601610359565b92505060206104bd8582860161040b565b9150509250929050565b6104d081610330565b82525050565b6104df8161036e565b82525050565b60006060820190506104fa60008301866104c7565b61050760208301856104c7565b61051460408301846104d6565b949350505050565b610525816103e4565b82525050565b600060a08201905061054060008301886104c7565b61054d60208301876104c7565b61055a60408301866104d6565b61056760608301856104c7565b610574608083018461051c565b9695505050505050565b600060608201905061059360008301866104c7565b6105a060208301856104c7565b6105ad604083018461051c565b94935050505056fea2646970667358221220a2e4b79eb18ec5445ac6ad74deaee6c17bc1b0cda9bdd9170e106e7695ec044e64736f6c63430008090033",
  "immutableReferences": {},
  "source": "// SPDX-License-Identifier: busl-1.1\r\npragma solidity 0.8.9;\r\n\r\ncontract NFTlendV1LendingPool {\r\n\r\n    event DepositToken(address user, address asset, uint256 amount);\r\n    event WithdrawToken(address user, address asset, uint256 amount);\r\n    event DepositNFT(address user, address collateral, uint32 tokenId);\r\n    event WithdrawNFT(address user, address collateral, uint32 tokenId);\r\n    event Borrow(address user, address asset, uint256 amount, address collateral, uint32 tokenId);\r\n    event Repay(address user, address asset, uint256 amount, address collateral, uint32 tokenId);\r\n    event Liquidate(address user, address collateral, uint32 tokenId);\r\n\r\n    function depositToken(\r\n        address asset,\r\n        uint256 amount\r\n    ) external {\r\n        emit DepositToken(msg.sender, asset, amount);\r\n    }\r\n\r\n    function withdrawToken(\r\n        address asset,\r\n        uint256 amount\r\n    ) external {\r\n        emit WithdrawToken(msg.sender, asset, amount);\r\n    }\r\n\r\n    function depositNFT(\r\n        address collateral,\r\n        uint32 tokenId\r\n    ) external {\r\n        emit DepositNFT(msg.sender, collateral, tokenId);\r\n    }\r\n\r\n    function withdrawNFT(\r\n        address collateral,\r\n        uint32 tokenId\r\n    ) external {\r\n        emit WithdrawNFT(msg.sender, collateral, tokenId);\r\n    }\r\n\r\n    function borrow(\r\n        address asset,\r\n        address collateral,\r\n        uint256 amount,\r\n        uint32 tokenId\r\n    ) external {\r\n        emit Borrow(msg.sender, asset, amount, collateral, tokenId);\r\n    }\r\n\r\n    function repay(\r\n        address asset,\r\n        address collateral, \r\n        uint256 amount,\r\n        uint32 tokenId\r\n    ) external {\r\n        emit Repay(msg.sender, asset, amount, collateral, tokenId);\r\n    }\r\n\r\n    function liquidate(\r\n        address collateral,\r\n        uint32 tokenId\r\n    ) external {\r\n        emit Liquidate(msg.sender, collateral, tokenId);\r\n    }\r\n}",
  "sourcePath": "C:\\Users\\michael\\dev\\consensys\\blockchain-developer-bootcamp-final-project\\NFTlend\\v1-core\\contracts\\lendingpool\\NFTlendV1LendingPool.sol",
  "compiler": {
    "name": "solc",
    "version": "0.8.9+commit.e5eed63a.Emscripten.clang"
  },
  "schemaVersion": "3.4.3",
  "updatedAt": "2021-10-26T16:11:34.545Z",
  "networkType": "ethereum",
  "devdoc": {
    "kind": "dev",
    "methods": {},
    "version": 1
  },
  "userdoc": {
    "kind": "user",
    "methods": {},
    "version": 1
  }
}