{
  "contractName": "NFTlendV1LendingPool",
  "abi": [
    {
      "anonymous": false,
      "inputs": [
        {
          "indexed": false,
          "internalType": "address",
          "name": "user",
          "type": "address"
        },
        {
          "indexed": false,
          "internalType": "address",
          "name": "asset",
          "type": "address"
        },
        {
          "indexed": false,
          "internalType": "uint256",
          "name": "amount",
          "type": "uint256"
        },
        {
          "indexed": false,
          "internalType": "address",
          "name": "collateral",
          "type": "address"
        },
        {
          "indexed": false,
          "internalType": "uint32",
          "name": "tokenId",
          "type": "uint32"
        }
      ],
      "name": "Borrow",
      "type": "event"
    },
    {
      "anonymous": false,
      "inputs": [
        {
          "indexed": false,
          "internalType": "address",
          "name": "user",
          "type": "address"
        },
        {
          "indexed": false,
          "internalType": "address",
          "name": "asset",
          "type": "address"
        },
        {
          "indexed": false,
          "internalType": "uint32",
          "name": "tokenId",
          "type": "uint32"
        }
      ],
      "name": "DepositNFT",
      "type": "event"
    },
    {
      "anonymous": false,
      "inputs": [
        {
          "indexed": false,
          "internalType": "address",
          "name": "user",
          "type": "address"
        },
        {
          "indexed": false,
          "internalType": "address",
          "name": "asset",
          "type": "address"
        },
        {
          "indexed": false,
          "internalType": "uint256",
          "name": "amount",
          "type": "uint256"
        }
      ],
      "name": "DepositToken",
      "type": "event"
    },
    {
      "anonymous": false,
      "inputs": [
        {
          "indexed": false,
          "internalType": "address",
          "name": "user",
          "type": "address"
        },
        {
          "indexed": false,
          "internalType": "address",
          "name": "asset",
          "type": "address"
        },
        {
          "indexed": false,
          "internalType": "uint256",
          "name": "amount",
          "type": "uint256"
        },
        {
          "indexed": false,
          "internalType": "address",
          "name": "collateral",
          "type": "address"
        },
        {
          "indexed": false,
          "internalType": "uint32",
          "name": "tokenId",
          "type": "uint32"
        }
      ],
      "name": "Repay",
      "type": "event"
    },
    {
      "anonymous": false,
      "inputs": [
        {
          "indexed": false,
          "internalType": "address",
          "name": "user",
          "type": "address"
        },
        {
          "indexed": false,
          "internalType": "address",
          "name": "asset",
          "type": "address"
        },
        {
          "indexed": false,
          "internalType": "uint32",
          "name": "tokenId",
          "type": "uint32"
        }
      ],
      "name": "WithdrawNFT",
      "type": "event"
    },
    {
      "anonymous": false,
      "inputs": [
        {
          "indexed": false,
          "internalType": "address",
          "name": "user",
          "type": "address"
        },
        {
          "indexed": false,
          "internalType": "address",
          "name": "asset",
          "type": "address"
        },
        {
          "indexed": false,
          "internalType": "uint256",
          "name": "amount",
          "type": "uint256"
        }
      ],
      "name": "WithdrawToken",
      "type": "event"
    },
    {
      "inputs": [
        {
          "internalType": "address",
          "name": "asset",
          "type": "address"
        },
        {
          "internalType": "uint256",
          "name": "amount",
          "type": "uint256"
        }
      ],
      "name": "depositToken",
      "outputs": [],
      "stateMutability": "nonpayable",
      "type": "function"
    },
    {
      "inputs": [
        {
          "internalType": "address",
          "name": "asset",
          "type": "address"
        },
        {
          "internalType": "uint256",
          "name": "amount",
          "type": "uint256"
        }
      ],
      "name": "withdrawToken",
      "outputs": [],
      "stateMutability": "nonpayable",
      "type": "function"
    },
    {
      "inputs": [
        {
          "internalType": "address",
          "name": "asset",
          "type": "address"
        },
        {
          "internalType": "uint32",
          "name": "tokenId",
          "type": "uint32"
        }
      ],
      "name": "depositNFT",
      "outputs": [],
      "stateMutability": "nonpayable",
      "type": "function"
    },
    {
      "inputs": [
        {
          "internalType": "address",
          "name": "asset",
          "type": "address"
        },
        {
          "internalType": "uint32",
          "name": "tokenId",
          "type": "uint32"
        }
      ],
      "name": "withdrawNFT",
      "outputs": [],
      "stateMutability": "nonpayable",
      "type": "function"
    },
    {
      "inputs": [
        {
          "internalType": "address",
          "name": "asset",
          "type": "address"
        },
        {
          "internalType": "address",
          "name": "collateral",
          "type": "address"
        },
        {
          "internalType": "uint256",
          "name": "amount",
          "type": "uint256"
        },
        {
          "internalType": "uint32",
          "name": "tokenId",
          "type": "uint32"
        }
      ],
      "name": "borrow",
      "outputs": [],
      "stateMutability": "nonpayable",
      "type": "function"
    },
    {
      "inputs": [
        {
          "internalType": "address",
          "name": "asset",
          "type": "address"
        },
        {
          "internalType": "address",
          "name": "collateral",
          "type": "address"
        },
        {
          "internalType": "uint256",
          "name": "amount",
          "type": "uint256"
        },
        {
          "internalType": "uint32",
          "name": "tokenId",
          "type": "uint32"
        }
      ],
      "name": "repay",
      "outputs": [],
      "stateMutability": "nonpayable",
      "type": "function"
    }
  ],
  "bytecode": "0x608060405234801561001057600080fd5b50610575806100206000396000f3fe608060405234801561001057600080fd5b50600436106100625760003560e01c8063338b5dea146100675780634862ce00146100835780639e281a981461009f578063a16b732c146100bb578063bc0cd0da146100d7578063f6d0cbd0146100f3575b600080fd5b610081600480360381019061007c919061032e565b61010f565b005b61009d600480360381019061009891906103aa565b61014e565b005b6100b960048036038101906100b4919061032e565b610193565b005b6100d560048036038101906100d09190610411565b6101d2565b005b6100f160048036038101906100ec9190610411565b610211565b005b61010d600480360381019061010891906103aa565b610250565b005b7f4b3f81827ede20c81afbf1bb77b954afcdcae24d391d99042310cb1d9210dd573383836040516101429392919061046f565b60405180910390a15050565b7f2d5d5d750f553f92c04ffd47d00a343cba347635d415313672cb4eb530d694ca33858486856040516101859594939291906104b5565b60405180910390a150505050565b7f037238854fe57fbf51f09946f854fc3916fe83938d6521f09bd05463839f13043383836040516101c69392919061046f565b60405180910390a15050565b7f75f30940a7e9ca02e6d4bcd6c1a1b3df1c18aa388dcd76e802e97486dae35a9d33838360405161020593929190610508565b60405180910390a15050565b7faf6255f9bf6535dcbc359361c528b02002efffdf48f994f3416894853a803a7033838360405161024493929190610508565b60405180910390a15050565b7f8e045b1d6598ddb32fe4fb1578d1269c39042ac2edd504358289b6d17f5d182333858486856040516102879594939291906104b5565b60405180910390a150505050565b600080fd5b600073ffffffffffffffffffffffffffffffffffffffff82169050919050565b60006102c58261029a565b9050919050565b6102d5816102ba565b81146102e057600080fd5b50565b6000813590506102f2816102cc565b92915050565b6000819050919050565b61030b816102f8565b811461031657600080fd5b50565b60008135905061032881610302565b92915050565b6000806040838503121561034557610344610295565b5b6000610353858286016102e3565b925050602061036485828601610319565b9150509250929050565b600063ffffffff82169050919050565b6103878161036e565b811461039257600080fd5b50565b6000813590506103a48161037e565b92915050565b600080600080608085870312156103c4576103c3610295565b5b60006103d2878288016102e3565b94505060206103e3878288016102e3565b93505060406103f487828801610319565b925050606061040587828801610395565b91505092959194509250565b6000806040838503121561042857610427610295565b5b6000610436858286016102e3565b925050602061044785828601610395565b9150509250929050565b61045a816102ba565b82525050565b610469816102f8565b82525050565b60006060820190506104846000830186610451565b6104916020830185610451565b61049e6040830184610460565b949350505050565b6104af8161036e565b82525050565b600060a0820190506104ca6000830188610451565b6104d76020830187610451565b6104e46040830186610460565b6104f16060830185610451565b6104fe60808301846104a6565b9695505050505050565b600060608201905061051d6000830186610451565b61052a6020830185610451565b61053760408301846104a6565b94935050505056fea26469706673582212200c795fc8a0b69b10053b911ea582701f3893773a3c5262ec7976abaf34e07b9264736f6c63430008090033",
  "immutableReferences": {},
  "source": "// SPDX-License-Identifier: busl-1.1\r\npragma solidity 0.8.9;\r\n\r\ncontract NFTlendV1LendingPool {\r\n\r\n    event DepositToken(address user, address asset, uint256 amount);\r\n    event WithdrawToken(address user, address asset, uint256 amount);\r\n    event DepositNFT(address user, address asset, uint32 tokenId);\r\n    event WithdrawNFT(address user, address asset, uint32 tokenId);\r\n    event Borrow(address user, address asset, uint256 amount, address collateral, uint32 tokenId);\r\n    event Repay(address user, address asset, uint256 amount, address collateral, uint32 tokenId);\r\n\r\n    function depositToken(\r\n        address asset,\r\n        uint256 amount\r\n    ) external {\r\n        emit DepositToken(msg.sender, asset, amount);\r\n    }\r\n\r\n    function withdrawToken(\r\n        address asset,\r\n        uint256 amount\r\n    ) external {\r\n        emit WithdrawToken(msg.sender, asset, amount);\r\n    }\r\n\r\n    function depositNFT(\r\n        address asset,\r\n        uint32 tokenId\r\n    ) external {\r\n        emit DepositNFT(msg.sender, asset, tokenId);\r\n    }\r\n\r\n    function withdrawNFT(\r\n        address asset,\r\n        uint32 tokenId\r\n    ) external {\r\n        emit WithdrawNFT(msg.sender, asset, tokenId);\r\n    }\r\n\r\n    function borrow(\r\n        address asset,\r\n        address collateral,\r\n        uint256 amount,\r\n        uint32 tokenId\r\n    ) external {\r\n        emit Borrow(msg.sender, asset, amount, collateral, tokenId);\r\n    }\r\n\r\n    function repay(\r\n        address asset,\r\n        address collateral, \r\n        uint256 amount,\r\n        uint32 tokenId\r\n    ) external {\r\n        emit Repay(msg.sender, asset, amount, collateral, tokenId);\r\n    }\r\n\r\n\r\n}",
  "sourcePath": "C:\\Users\\michael\\dev\\consensys\\blockchain-developer-bootcamp-final-project\\NFTlend\\v1-core\\contracts\\lendingpool\\NFTlendV1LendingPool.sol",
  "compiler": {
    "name": "solc",
    "version": "0.8.9+commit.e5eed63a.Emscripten.clang"
  },
  "schemaVersion": "3.4.3",
  "updatedAt": "2021-10-26T14:28:08.583Z",
  "networkType": "ethereum",
  "devdoc": {
    "kind": "dev",
    "methods": {},
    "version": 1
  },
  "userdoc": {
    "kind": "user",
    "methods": {},
    "version": 1
  }
}