{
  "_format": "hh-sol-artifact-1",
  "contractName": "NToken",
  "sourceName": "contracts/NToken.sol",
  "abi": [
    {
      "inputs": [
        {
          "internalType": "address",
          "name": "configurator",
          "type": "address"
        },
        {
          "internalType": "address",
          "name": "lendingPool",
          "type": "address"
        },
        {
          "internalType": "string",
          "name": "name",
          "type": "string"
        },
        {
          "internalType": "string",
          "name": "symbol",
          "type": "string"
        }
      ],
      "stateMutability": "nonpayable",
      "type": "constructor"
    },
    {
      "anonymous": false,
      "inputs": [
        {
          "indexed": true,
          "internalType": "address",
          "name": "owner",
          "type": "address"
        },
        {
          "indexed": true,
          "internalType": "address",
          "name": "spender",
          "type": "address"
        },
        {
          "indexed": false,
          "internalType": "uint256",
          "name": "value",
          "type": "uint256"
        }
      ],
      "name": "Approval",
      "type": "event"
    },
    {
      "anonymous": false,
      "inputs": [
        {
          "indexed": false,
          "internalType": "address",
          "name": "account",
          "type": "address"
        }
      ],
      "name": "Paused",
      "type": "event"
    },
    {
      "anonymous": false,
      "inputs": [
        {
          "indexed": false,
          "internalType": "address",
          "name": "from",
          "type": "address"
        },
        {
          "indexed": false,
          "internalType": "address",
          "name": "to",
          "type": "address"
        },
        {
          "indexed": false,
          "internalType": "uint256",
          "name": "amount",
          "type": "uint256"
        }
      ],
      "name": "ReserveTransfer",
      "type": "event"
    },
    {
      "anonymous": false,
      "inputs": [
        {
          "indexed": true,
          "internalType": "bytes32",
          "name": "role",
          "type": "bytes32"
        },
        {
          "indexed": true,
          "internalType": "bytes32",
          "name": "previousAdminRole",
          "type": "bytes32"
        },
        {
          "indexed": true,
          "internalType": "bytes32",
          "name": "newAdminRole",
          "type": "bytes32"
        }
      ],
      "name": "RoleAdminChanged",
      "type": "event"
    },
    {
      "anonymous": false,
      "inputs": [
        {
          "indexed": true,
          "internalType": "bytes32",
          "name": "role",
          "type": "bytes32"
        },
        {
          "indexed": true,
          "internalType": "address",
          "name": "account",
          "type": "address"
        },
        {
          "indexed": true,
          "internalType": "address",
          "name": "sender",
          "type": "address"
        }
      ],
      "name": "RoleGranted",
      "type": "event"
    },
    {
      "anonymous": false,
      "inputs": [
        {
          "indexed": true,
          "internalType": "bytes32",
          "name": "role",
          "type": "bytes32"
        },
        {
          "indexed": true,
          "internalType": "address",
          "name": "account",
          "type": "address"
        },
        {
          "indexed": true,
          "internalType": "address",
          "name": "sender",
          "type": "address"
        }
      ],
      "name": "RoleRevoked",
      "type": "event"
    },
    {
      "anonymous": false,
      "inputs": [
        {
          "indexed": true,
          "internalType": "address",
          "name": "from",
          "type": "address"
        },
        {
          "indexed": true,
          "internalType": "address",
          "name": "to",
          "type": "address"
        },
        {
          "indexed": false,
          "internalType": "uint256",
          "name": "value",
          "type": "uint256"
        }
      ],
      "name": "Transfer",
      "type": "event"
    },
    {
      "anonymous": false,
      "inputs": [
        {
          "indexed": false,
          "internalType": "address",
          "name": "account",
          "type": "address"
        }
      ],
      "name": "Unpaused",
      "type": "event"
    },
    {
      "inputs": [],
      "name": "CONFIGURATOR_ROLE",
      "outputs": [
        {
          "internalType": "bytes32",
          "name": "",
          "type": "bytes32"
        }
      ],
      "stateMutability": "view",
      "type": "function"
    },
    {
      "inputs": [],
      "name": "DEFAULT_ADMIN_ROLE",
      "outputs": [
        {
          "internalType": "bytes32",
          "name": "",
          "type": "bytes32"
        }
      ],
      "stateMutability": "view",
      "type": "function"
    },
    {
      "inputs": [],
      "name": "LENDING_POOL_ROLE",
      "outputs": [
        {
          "internalType": "bytes32",
          "name": "",
          "type": "bytes32"
        }
      ],
      "stateMutability": "view",
      "type": "function"
    },
    {
      "inputs": [
        {
          "internalType": "address",
          "name": "owner",
          "type": "address"
        },
        {
          "internalType": "address",
          "name": "spender",
          "type": "address"
        }
      ],
      "name": "allowance",
      "outputs": [
        {
          "internalType": "uint256",
          "name": "",
          "type": "uint256"
        }
      ],
      "stateMutability": "view",
      "type": "function"
    },
    {
      "inputs": [
        {
          "internalType": "address",
          "name": "spender",
          "type": "address"
        },
        {
          "internalType": "uint256",
          "name": "amount",
          "type": "uint256"
        }
      ],
      "name": "approve",
      "outputs": [
        {
          "internalType": "bool",
          "name": "",
          "type": "bool"
        }
      ],
      "stateMutability": "nonpayable",
      "type": "function"
    },
    {
      "inputs": [
        {
          "internalType": "address",
          "name": "account",
          "type": "address"
        }
      ],
      "name": "balanceOf",
      "outputs": [
        {
          "internalType": "uint256",
          "name": "",
          "type": "uint256"
        }
      ],
      "stateMutability": "view",
      "type": "function"
    },
    {
      "inputs": [
        {
          "internalType": "uint256",
          "name": "amount",
          "type": "uint256"
        }
      ],
      "name": "burn",
      "outputs": [
        {
          "internalType": "bool",
          "name": "",
          "type": "bool"
        }
      ],
      "stateMutability": "nonpayable",
      "type": "function"
    },
    {
      "inputs": [
        {
          "internalType": "address",
          "name": "account",
          "type": "address"
        },
        {
          "internalType": "uint256",
          "name": "amount",
          "type": "uint256"
        }
      ],
      "name": "burnFrom",
      "outputs": [
        {
          "internalType": "bool",
          "name": "",
          "type": "bool"
        }
      ],
      "stateMutability": "nonpayable",
      "type": "function"
    },
    {
      "inputs": [],
      "name": "decimals",
      "outputs": [
        {
          "internalType": "uint8",
          "name": "",
          "type": "uint8"
        }
      ],
      "stateMutability": "view",
      "type": "function"
    },
    {
      "inputs": [
        {
          "internalType": "address",
          "name": "spender",
          "type": "address"
        },
        {
          "internalType": "uint256",
          "name": "subtractedValue",
          "type": "uint256"
        }
      ],
      "name": "decreaseAllowance",
      "outputs": [
        {
          "internalType": "bool",
          "name": "",
          "type": "bool"
        }
      ],
      "stateMutability": "nonpayable",
      "type": "function"
    },
    {
      "inputs": [],
      "name": "getCurrentAPY",
      "outputs": [
        {
          "internalType": "uint256",
          "name": "",
          "type": "uint256"
        }
      ],
      "stateMutability": "view",
      "type": "function"
    },
    {
      "inputs": [
        {
          "internalType": "bytes32",
          "name": "role",
          "type": "bytes32"
        }
      ],
      "name": "getRoleAdmin",
      "outputs": [
        {
          "internalType": "bytes32",
          "name": "",
          "type": "bytes32"
        }
      ],
      "stateMutability": "view",
      "type": "function"
    },
    {
      "inputs": [
        {
          "internalType": "bytes32",
          "name": "role",
          "type": "bytes32"
        },
        {
          "internalType": "address",
          "name": "account",
          "type": "address"
        }
      ],
      "name": "grantRole",
      "outputs": [],
      "stateMutability": "nonpayable",
      "type": "function"
    },
    {
      "inputs": [
        {
          "internalType": "bytes32",
          "name": "role",
          "type": "bytes32"
        },
        {
          "internalType": "address",
          "name": "account",
          "type": "address"
        }
      ],
      "name": "hasRole",
      "outputs": [
        {
          "internalType": "bool",
          "name": "",
          "type": "bool"
        }
      ],
      "stateMutability": "view",
      "type": "function"
    },
    {
      "inputs": [
        {
          "internalType": "address",
          "name": "spender",
          "type": "address"
        },
        {
          "internalType": "uint256",
          "name": "addedValue",
          "type": "uint256"
        }
      ],
      "name": "increaseAllowance",
      "outputs": [
        {
          "internalType": "bool",
          "name": "",
          "type": "bool"
        }
      ],
      "stateMutability": "nonpayable",
      "type": "function"
    },
    {
      "inputs": [
        {
          "internalType": "address",
          "name": "to",
          "type": "address"
        },
        {
          "internalType": "uint256",
          "name": "amount",
          "type": "uint256"
        }
      ],
      "name": "mint",
      "outputs": [
        {
          "internalType": "bool",
          "name": "",
          "type": "bool"
        }
      ],
      "stateMutability": "nonpayable",
      "type": "function"
    },
    {
      "inputs": [],
      "name": "name",
      "outputs": [
        {
          "internalType": "string",
          "name": "",
          "type": "string"
        }
      ],
      "stateMutability": "view",
      "type": "function"
    },
    {
      "inputs": [],
      "name": "pause",
      "outputs": [],
      "stateMutability": "nonpayable",
      "type": "function"
    },
    {
      "inputs": [],
      "name": "paused",
      "outputs": [
        {
          "internalType": "bool",
          "name": "",
          "type": "bool"
        }
      ],
      "stateMutability": "view",
      "type": "function"
    },
    {
      "inputs": [
        {
          "internalType": "bytes32",
          "name": "role",
          "type": "bytes32"
        },
        {
          "internalType": "address",
          "name": "account",
          "type": "address"
        }
      ],
      "name": "renounceRole",
      "outputs": [],
      "stateMutability": "nonpayable",
      "type": "function"
    },
    {
      "inputs": [
        {
          "internalType": "address",
          "name": "to",
          "type": "address"
        },
        {
          "internalType": "address",
          "name": "asset",
          "type": "address"
        },
        {
          "internalType": "uint256",
          "name": "amount",
          "type": "uint256"
        }
      ],
      "name": "reserveTransfer",
      "outputs": [
        {
          "internalType": "bool",
          "name": "",
          "type": "bool"
        }
      ],
      "stateMutability": "nonpayable",
      "type": "function"
    },
    {
      "inputs": [
        {
          "internalType": "address",
          "name": "from",
          "type": "address"
        },
        {
          "internalType": "address",
          "name": "asset",
          "type": "address"
        },
        {
          "internalType": "uint256",
          "name": "amount",
          "type": "uint256"
        }
      ],
      "name": "reserveTransferFrom",
      "outputs": [
        {
          "internalType": "bool",
          "name": "",
          "type": "bool"
        }
      ],
      "stateMutability": "nonpayable",
      "type": "function"
    },
    {
      "inputs": [
        {
          "internalType": "bytes32",
          "name": "role",
          "type": "bytes32"
        },
        {
          "internalType": "address",
          "name": "account",
          "type": "address"
        }
      ],
      "name": "revokeRole",
      "outputs": [],
      "stateMutability": "nonpayable",
      "type": "function"
    },
    {
      "inputs": [
        {
          "internalType": "bytes4",
          "name": "interfaceId",
          "type": "bytes4"
        }
      ],
      "name": "supportsInterface",
      "outputs": [
        {
          "internalType": "bool",
          "name": "",
          "type": "bool"
        }
      ],
      "stateMutability": "view",
      "type": "function"
    },
    {
      "inputs": [],
      "name": "symbol",
      "outputs": [
        {
          "internalType": "string",
          "name": "",
          "type": "string"
        }
      ],
      "stateMutability": "view",
      "type": "function"
    },
    {
      "inputs": [],
      "name": "totalSupply",
      "outputs": [
        {
          "internalType": "uint256",
          "name": "",
          "type": "uint256"
        }
      ],
      "stateMutability": "view",
      "type": "function"
    },
    {
      "inputs": [
        {
          "internalType": "address",
          "name": "recipient",
          "type": "address"
        },
        {
          "internalType": "uint256",
          "name": "amount",
          "type": "uint256"
        }
      ],
      "name": "transfer",
      "outputs": [
        {
          "internalType": "bool",
          "name": "",
          "type": "bool"
        }
      ],
      "stateMutability": "nonpayable",
      "type": "function"
    },
    {
      "inputs": [
        {
          "internalType": "address",
          "name": "sender",
          "type": "address"
        },
        {
          "internalType": "address",
          "name": "recipient",
          "type": "address"
        },
        {
          "internalType": "uint256",
          "name": "amount",
          "type": "uint256"
        }
      ],
      "name": "transferFrom",
      "outputs": [
        {
          "internalType": "bool",
          "name": "",
          "type": "bool"
        }
      ],
      "stateMutability": "nonpayable",
      "type": "function"
    },
    {
      "inputs": [],
      "name": "unpause",
      "outputs": [],
      "stateMutability": "nonpayable",
      "type": "function"
    }
  ],
  "bytecode": "0x60806040523480156200001157600080fd5b50604051620041863803806200418683398181016040528101906200003791906200052b565b818181600390805190602001906200005192919062000279565b5080600490805190602001906200006a92919062000279565b5050506000600560006101000a81548160ff0219169083151502179055506001600781905550620000c27f3b49a237fe2d18fa4d9642b8a0e065923cceb71b797783b619a030a61d848bf085620000fe60201b60201c565b620000f47fa05e016071881d2170d364744d63b2e41aeb933bc5c5727596db7b66f663c3ea84620000fe60201b60201c565b5050505062000640565b6200011082826200011460201b60201c565b5050565b6200012682826200020660201b60201c565b620002025760016006600084815260200190815260200160002060000160008373ffffffffffffffffffffffffffffffffffffffff1673ffffffffffffffffffffffffffffffffffffffff16815260200190815260200160002060006101000a81548160ff021916908315150217905550620001a76200027160201b60201c565b73ffffffffffffffffffffffffffffffffffffffff168173ffffffffffffffffffffffffffffffffffffffff16837f2f8788117e7eff1d82e926ec794901d17c78024a50270940304540a733656f0d60405160405180910390a45b5050565b60006006600084815260200190815260200160002060000160008373ffffffffffffffffffffffffffffffffffffffff1673ffffffffffffffffffffffffffffffffffffffff16815260200190815260200160002060009054906101000a900460ff16905092915050565b600033905090565b82805462000287906200060a565b90600052602060002090601f016020900481019282620002ab5760008555620002f7565b82601f10620002c657805160ff1916838001178555620002f7565b82800160010185558215620002f7579182015b82811115620002f6578251825591602001919060010190620002d9565b5b5090506200030691906200030a565b5090565b5b80821115620003255760008160009055506001016200030b565b5090565b6000604051905090565b600080fd5b600080fd5b600073ffffffffffffffffffffffffffffffffffffffff82169050919050565b60006200036a826200033d565b9050919050565b6200037c816200035d565b81146200038857600080fd5b50565b6000815190506200039c8162000371565b92915050565b600080fd5b600080fd5b6000601f19601f8301169050919050565b7f4e487b7100000000000000000000000000000000000000000000000000000000600052604160045260246000fd5b620003f782620003ac565b810181811067ffffffffffffffff82111715620004195762000418620003bd565b5b80604052505050565b60006200042e62000329565b90506200043c8282620003ec565b919050565b600067ffffffffffffffff8211156200045f576200045e620003bd565b5b6200046a82620003ac565b9050602081019050919050565b60005b83811015620004975780820151818401526020810190506200047a565b83811115620004a7576000848401525b50505050565b6000620004c4620004be8462000441565b62000422565b905082815260208101848484011115620004e357620004e2620003a7565b5b620004f084828562000477565b509392505050565b600082601f83011262000510576200050f620003a2565b5b815162000522848260208601620004ad565b91505092915050565b6000806000806080858703121562000548576200054762000333565b5b600062000558878288016200038b565b94505060206200056b878288016200038b565b935050604085015167ffffffffffffffff8111156200058f576200058e62000338565b5b6200059d87828801620004f8565b925050606085015167ffffffffffffffff811115620005c157620005c062000338565b5b620005cf87828801620004f8565b91505092959194509250565b7f4e487b7100000000000000000000000000000000000000000000000000000000600052602260045260246000fd5b600060028204905060018216806200062357607f821691505b602082108114156200063a5762000639620005db565b5b50919050565b613b3680620006506000396000f3fe608060405234801561001057600080fd5b50600436106101cf5760003560e01c80634ed7307611610104578063962ca496116100a2578063d547741f11610071578063d547741f14610592578063d853015e146105ae578063dd62ed3e146105cc578063e0268636146105fc576101cf565b8063962ca496146104f6578063a217fddf14610514578063a457c2d714610532578063a9059cbb14610562576101cf565b806379cc6790116100de57806379cc67901461046e5780638456cb591461049e57806391d14854146104a857806395d89b41146104d8576101cf565b80634ed73076146103f05780635c975abb1461042057806370a082311461043e576101cf565b8063313ce567116101715780633f4ba83a1161014b5780633f4ba83a1461035657806340c10f191461036057806342966c68146103905780634adefaf3146103c0576101cf565b8063313ce567146102ec57806336568abe1461030a5780633950935114610326576101cf565b806318160ddd116101ad57806318160ddd1461025257806323b872dd14610270578063248a9ca3146102a05780632f2ff15d146102d0576101cf565b806301ffc9a7146101d457806306fdde0314610204578063095ea7b314610222575b600080fd5b6101ee60048036038101906101e991906126fc565b61061a565b6040516101fb9190612744565b60405180910390f35b61020c610694565b60405161021991906127f8565b60405180910390f35b61023c600480360381019061023791906128ae565b610726565b6040516102499190612744565b60405180910390f35b61025a610744565b60405161026791906128fd565b60405180910390f35b61028a60048036038101906102859190612918565b61074e565b6040516102979190612744565b60405180910390f35b6102ba60048036038101906102b591906129a1565b610846565b6040516102c791906129dd565b60405180910390f35b6102ea60048036038101906102e591906129f8565b610866565b005b6102f461088f565b6040516103019190612a54565b60405180910390f35b610324600480360381019061031f91906129f8565b610898565b005b610340600480360381019061033b91906128ae565b61091b565b60405161034d9190612744565b60405180910390f35b61035e6109c7565b005b61037a600480360381019061037591906128ae565b610a41565b6040516103879190612744565b60405180910390f35b6103aa60048036038101906103a59190612a6f565b610b65565b6040516103b79190612744565b60405180910390f35b6103da60048036038101906103d59190612918565b610c39565b6040516103e79190612744565b60405180910390f35b61040a60048036038101906104059190612918565b610ffa565b6040516104179190612744565b60405180910390f35b6104286112ee565b6040516104359190612744565b60405180910390f35b61045860048036038101906104539190612a9c565b611305565b60405161046591906128fd565b60405180910390f35b610488600480360381019061048391906128ae565b61134d565b6040516104959190612744565b60405180910390f35b6104a66114de565b005b6104c260048036038101906104bd91906129f8565b611558565b6040516104cf9190612744565b60405180910390f35b6104e06115c3565b6040516104ed91906127f8565b60405180910390f35b6104fe611655565b60405161050b91906128fd565b60405180910390f35b61051c61165f565b60405161052991906129dd565b60405180910390f35b61054c600480360381019061054791906128ae565b611666565b6040516105599190612744565b60405180910390f35b61057c600480360381019061057791906128ae565b611751565b6040516105899190612744565b60405180910390f35b6105ac60048036038101906105a791906129f8565b61176f565b005b6105b6611798565b6040516105c391906129dd565b60405180910390f35b6105e660048036038101906105e19190612ac9565b6117bc565b6040516105f391906128fd565b60405180910390f35b610604611843565b60405161061191906129dd565b60405180910390f35b60007f7965db0b000000000000000000000000000000000000000000000000000000007bffffffffffffffffffffffffffffffffffffffffffffffffffffffff1916827bffffffffffffffffffffffffffffffffffffffffffffffffffffffff1916148061068d575061068c82611867565b5b9050919050565b6060600380546106a390612b38565b80601f01602080910402602001604051908101604052809291908181526020018280546106cf90612b38565b801561071c5780601f106106f15761010080835404028352916020019161071c565b820191906000526020600020905b8154815290600101906020018083116106ff57829003601f168201915b5050505050905090565b600061073a6107336118d1565b84846118d9565b6001905092915050565b6000600254905090565b600061075b848484611aa4565b6000600160008673ffffffffffffffffffffffffffffffffffffffff1673ffffffffffffffffffffffffffffffffffffffff16815260200190815260200160002060006107a66118d1565b73ffffffffffffffffffffffffffffffffffffffff1673ffffffffffffffffffffffffffffffffffffffff16815260200190815260200160002054905082811015610826576040517f08c379a000000000000000000000000000000000000000000000000000000000815260040161081d90612bdc565b60405180910390fd5b61083a856108326118d1565b8584036118d9565b60019150509392505050565b600060066000838152602001908152602001600020600101549050919050565b61086f82610846565b6108808161087b6118d1565b611d25565b61088a8383611dc2565b505050565b60006012905090565b6108a06118d1565b73ffffffffffffffffffffffffffffffffffffffff168173ffffffffffffffffffffffffffffffffffffffff161461090d576040517f08c379a000000000000000000000000000000000000000000000000000000000815260040161090490612c6e565b60405180910390fd5b6109178282611ea3565b5050565b60006109bd6109286118d1565b8484600160006109366118d1565b73ffffffffffffffffffffffffffffffffffffffff1673ffffffffffffffffffffffffffffffffffffffff16815260200190815260200160002060008873ffffffffffffffffffffffffffffffffffffffff1673ffffffffffffffffffffffffffffffffffffffff168152602001908152602001600020546109b89190612cbd565b6118d9565b6001905092915050565b6109f87f3b49a237fe2d18fa4d9642b8a0e065923cceb71b797783b619a030a61d848bf06109f36118d1565b611558565b610a37576040517f08c379a0000000000000000000000000000000000000000000000000000000008152600401610a2e90612d5f565b60405180910390fd5b610a3f611f85565b565b600060026007541415610a89576040517f08c379a0000000000000000000000000000000000000000000000000000000008152600401610a8090612dcb565b60405180910390fd5b6002600781905550610ac27fa05e016071881d2170d364744d63b2e41aeb933bc5c5727596db7b66f663c3ea610abd6118d1565b611558565b610b01576040517f08c379a0000000000000000000000000000000000000000000000000000000008152600401610af890612e37565b60405180910390fd5b610b096112ee565b15610b49576040517f08c379a0000000000000000000000000000000000000000000000000000000008152600401610b4090612ea3565b60405180910390fd5b610b538383612027565b60019050600160078190555092915050565b6000610b987fa05e016071881d2170d364744d63b2e41aeb933bc5c5727596db7b66f663c3ea610b936118d1565b611558565b610bd7576040517f08c379a0000000000000000000000000000000000000000000000000000000008152600401610bce90612e37565b60405180910390fd5b610bdf6112ee565b15610c1f576040517f08c379a0000000000000000000000000000000000000000000000000000000008152600401610c1690612ea3565b60405180910390fd5b610c30610c2a6118d1565b83612187565b60019050919050565b600060026007541415610c81576040517f08c379a0000000000000000000000000000000000000000000000000000000008152600401610c7890612dcb565b60405180910390fd5b6002600781905550610cba7fa05e016071881d2170d364744d63b2e41aeb933bc5c5727596db7b66f663c3ea610cb56118d1565b611558565b610cf9576040517f08c379a0000000000000000000000000000000000000000000000000000000008152600401610cf090612e37565b60405180910390fd5b610d016112ee565b15610d41576040517f08c379a0000000000000000000000000000000000000000000000000000000008152600401610d3890612ea3565b60405180910390fd5b6000828473ffffffffffffffffffffffffffffffffffffffff166370a08231306040518263ffffffff1660e01b8152600401610d7d9190612ed2565b60206040518083038186803b158015610d9557600080fd5b505afa158015610da9573d6000803e3d6000fd5b505050506040513d601f19601f82011682018060405250810190610dcd9190612f02565b1015610e0e576040517f08c379a0000000000000000000000000000000000000000000000000000000008152600401610e0590612fa1565b60405180910390fd5b8373ffffffffffffffffffffffffffffffffffffffff1663095ea7b386856040518363ffffffff1660e01b8152600401610e49929190612fc1565b602060405180830381600087803b158015610e6357600080fd5b505af1158015610e77573d6000803e3d6000fd5b505050506040513d601f19601f82011682018060405250810190610e9b9190613016565b905080610edd576040517f08c379a0000000000000000000000000000000000000000000000000000000008152600401610ed49061308f565b60405180910390fd5b8373ffffffffffffffffffffffffffffffffffffffff1663a9059cbb86856040518363ffffffff1660e01b8152600401610f18929190612fc1565b602060405180830381600087803b158015610f3257600080fd5b505af1158015610f46573d6000803e3d6000fd5b505050506040513d601f19601f82011682018060405250810190610f6a9190613016565b905080610fac576040517f08c379a0000000000000000000000000000000000000000000000000000000008152600401610fa3906130fb565b60405180910390fd5b7fabe203d9797be4ff7b3b25cc5f015d716fe717deafd6185036aa35e497e6c730308685604051610fdf9392919061311b565b60405180910390a18091505060016007819055509392505050565b600060026007541415611042576040517f08c379a000000000000000000000000000000000000000000000000000000000815260040161103990612dcb565b60405180910390fd5b600260078190555061107b7fa05e016071881d2170d364744d63b2e41aeb933bc5c5727596db7b66f663c3ea6110766118d1565b611558565b6110ba576040517f08c379a00000000000000000000000000000000000000000000000000000000081526004016110b190612e37565b60405180910390fd5b6110c26112ee565b15611102576040517f08c379a00000000000000000000000000000000000000000000000000000000081526004016110f990612ea3565b60405180910390fd5b6000828473ffffffffffffffffffffffffffffffffffffffff166370a08231876040518263ffffffff1660e01b815260040161113e9190612ed2565b60206040518083038186803b15801561115657600080fd5b505afa15801561116a573d6000803e3d6000fd5b505050506040513d601f19601f8201168201806040525081019061118e9190612f02565b10156111cf576040517f08c379a00000000000000000000000000000000000000000000000000000000081526004016111c6906131c4565b60405180910390fd5b8373ffffffffffffffffffffffffffffffffffffffff166323b872dd8630866040518463ffffffff1660e01b815260040161120c9392919061311b565b602060405180830381600087803b15801561122657600080fd5b505af115801561123a573d6000803e3d6000fd5b505050506040513d601f19601f8201168201806040525081019061125e9190613016565b9050806112a0576040517f08c379a0000000000000000000000000000000000000000000000000000000008152600401611297906130fb565b60405180910390fd5b7fabe203d9797be4ff7b3b25cc5f015d716fe717deafd6185036aa35e497e6c7308530856040516112d39392919061311b565b60405180910390a18091505060016007819055509392505050565b6000600560009054906101000a900460ff16905090565b60008060008373ffffffffffffffffffffffffffffffffffffffff1673ffffffffffffffffffffffffffffffffffffffff168152602001908152602001600020549050919050565b600060026007541415611395576040517f08c379a000000000000000000000000000000000000000000000000000000000815260040161138c90612dcb565b60405180910390fd5b60026007819055506113ce7fa05e016071881d2170d364744d63b2e41aeb933bc5c5727596db7b66f663c3ea6113c96118d1565b611558565b61140d576040517f08c379a000000000000000000000000000000000000000000000000000000000815260040161140490612e37565b60405180910390fd5b6114156112ee565b15611455576040517f08c379a000000000000000000000000000000000000000000000000000000000815260040161144c90612ea3565b60405180910390fd5b6000611468846114636118d1565b6117bc565b9050828110156114ad576040517f08c379a00000000000000000000000000000000000000000000000000000000081526004016114a490613256565b60405180910390fd5b6114c1846114b96118d1565b8584036118d9565b6114cb8484612187565b6001915050600160078190555092915050565b61150f7f3b49a237fe2d18fa4d9642b8a0e065923cceb71b797783b619a030a61d848bf061150a6118d1565b611558565b61154e576040517f08c379a000000000000000000000000000000000000000000000000000000000815260040161154590612d5f565b60405180910390fd5b61155661235e565b565b60006006600084815260200190815260200160002060000160008373ffffffffffffffffffffffffffffffffffffffff1673ffffffffffffffffffffffffffffffffffffffff16815260200190815260200160002060009054906101000a900460ff16905092915050565b6060600480546115d290612b38565b80601f01602080910402602001604051908101604052809291908181526020018280546115fe90612b38565b801561164b5780601f106116205761010080835404028352916020019161164b565b820191906000526020600020905b81548152906001019060200180831161162e57829003601f168201915b5050505050905090565b6000600854905090565b6000801b81565b600080600160006116756118d1565b73ffffffffffffffffffffffffffffffffffffffff1673ffffffffffffffffffffffffffffffffffffffff16815260200190815260200160002060008573ffffffffffffffffffffffffffffffffffffffff1673ffffffffffffffffffffffffffffffffffffffff16815260200190815260200160002054905082811015611732576040517f08c379a0000000000000000000000000000000000000000000000000000000008152600401611729906132e8565b60405180910390fd5b61174661173d6118d1565b858584036118d9565b600191505092915050565b600061176561175e6118d1565b8484611aa4565b6001905092915050565b61177882610846565b611789816117846118d1565b611d25565b6117938383611ea3565b505050565b7f3b49a237fe2d18fa4d9642b8a0e065923cceb71b797783b619a030a61d848bf081565b6000600160008473ffffffffffffffffffffffffffffffffffffffff1673ffffffffffffffffffffffffffffffffffffffff16815260200190815260200160002060008373ffffffffffffffffffffffffffffffffffffffff1673ffffffffffffffffffffffffffffffffffffffff16815260200190815260200160002054905092915050565b7fa05e016071881d2170d364744d63b2e41aeb933bc5c5727596db7b66f663c3ea81565b60007f01ffc9a7000000000000000000000000000000000000000000000000000000007bffffffffffffffffffffffffffffffffffffffffffffffffffffffff1916827bffffffffffffffffffffffffffffffffffffffffffffffffffffffff1916149050919050565b600033905090565b600073ffffffffffffffffffffffffffffffffffffffff168373ffffffffffffffffffffffffffffffffffffffff161415611949576040517f08c379a00000000000000000000000000000000000000000000000000000000081526004016119409061337a565b60405180910390fd5b600073ffffffffffffffffffffffffffffffffffffffff168273ffffffffffffffffffffffffffffffffffffffff1614156119b9576040517f08c379a00000000000000000000000000000000000000000000000000000000081526004016119b09061340c565b60405180910390fd5b80600160008573ffffffffffffffffffffffffffffffffffffffff1673ffffffffffffffffffffffffffffffffffffffff16815260200190815260200160002060008473ffffffffffffffffffffffffffffffffffffffff1673ffffffffffffffffffffffffffffffffffffffff168152602001908152602001600020819055508173ffffffffffffffffffffffffffffffffffffffff168373ffffffffffffffffffffffffffffffffffffffff167f8c5be1e5ebec7d5bd14f71427d1e84f3dd0314c0f7b2291e5b200ac8c7c3b92583604051611a9791906128fd565b60405180910390a3505050565b600073ffffffffffffffffffffffffffffffffffffffff168373ffffffffffffffffffffffffffffffffffffffff161415611b14576040517f08c379a0000000000000000000000000000000000000000000000000000000008152600401611b0b9061349e565b60405180910390fd5b600073ffffffffffffffffffffffffffffffffffffffff168273ffffffffffffffffffffffffffffffffffffffff161415611b84576040517f08c379a0000000000000000000000000000000000000000000000000000000008152600401611b7b90613530565b60405180910390fd5b611b8f838383612401565b60008060008573ffffffffffffffffffffffffffffffffffffffff1673ffffffffffffffffffffffffffffffffffffffff16815260200190815260200160002054905081811015611c15576040517f08c379a0000000000000000000000000000000000000000000000000000000008152600401611c0c906135c2565b60405180910390fd5b8181036000808673ffffffffffffffffffffffffffffffffffffffff1673ffffffffffffffffffffffffffffffffffffffff16815260200190815260200160002081905550816000808573ffffffffffffffffffffffffffffffffffffffff1673ffffffffffffffffffffffffffffffffffffffff1681526020019081526020016000206000828254611ca89190612cbd565b925050819055508273ffffffffffffffffffffffffffffffffffffffff168473ffffffffffffffffffffffffffffffffffffffff167fddf252ad1be2c89b69c2b068fc378daa952ba7f163c4a11628f55a4df523b3ef84604051611d0c91906128fd565b60405180910390a3611d1f848484612459565b50505050565b611d2f8282611558565b611dbe57611d548173ffffffffffffffffffffffffffffffffffffffff16601461245e565b611d628360001c602061245e565b604051602001611d739291906136b6565b6040516020818303038152906040526040517f08c379a0000000000000000000000000000000000000000000000000000000008152600401611db591906127f8565b60405180910390fd5b5050565b611dcc8282611558565b611e9f5760016006600084815260200190815260200160002060000160008373ffffffffffffffffffffffffffffffffffffffff1673ffffffffffffffffffffffffffffffffffffffff16815260200190815260200160002060006101000a81548160ff021916908315150217905550611e446118d1565b73ffffffffffffffffffffffffffffffffffffffff168173ffffffffffffffffffffffffffffffffffffffff16837f2f8788117e7eff1d82e926ec794901d17c78024a50270940304540a733656f0d60405160405180910390a45b5050565b611ead8282611558565b15611f815760006006600084815260200190815260200160002060000160008373ffffffffffffffffffffffffffffffffffffffff1673ffffffffffffffffffffffffffffffffffffffff16815260200190815260200160002060006101000a81548160ff021916908315150217905550611f266118d1565b73ffffffffffffffffffffffffffffffffffffffff168173ffffffffffffffffffffffffffffffffffffffff16837ff6391f5c32d9c69d2a47ea670b442974b53935d1edc7fd64eb21e047a839171b60405160405180910390a45b5050565b611f8d6112ee565b611fcc576040517f08c379a0000000000000000000000000000000000000000000000000000000008152600401611fc39061373c565b60405180910390fd5b6000600560006101000a81548160ff0219169083151502179055507f5db9ee0a495bf2e6ff9c91a7834c1ba4fdd244a5e8aa4e537bd38aeae4b073aa6120106118d1565b60405161201d9190612ed2565b60405180910390a1565b600073ffffffffffffffffffffffffffffffffffffffff168273ffffffffffffffffffffffffffffffffffffffff161415612097576040517f08c379a000000000000000000000000000000000000000000000000000000000815260040161208e906137a8565b60405180910390fd5b6120a360008383612401565b80600260008282546120b59190612cbd565b92505081905550806000808473ffffffffffffffffffffffffffffffffffffffff1673ffffffffffffffffffffffffffffffffffffffff168152602001908152602001600020600082825461210a9190612cbd565b925050819055508173ffffffffffffffffffffffffffffffffffffffff16600073ffffffffffffffffffffffffffffffffffffffff167fddf252ad1be2c89b69c2b068fc378daa952ba7f163c4a11628f55a4df523b3ef8360405161216f91906128fd565b60405180910390a361218360008383612459565b5050565b600073ffffffffffffffffffffffffffffffffffffffff168273ffffffffffffffffffffffffffffffffffffffff1614156121f7576040517f08c379a00000000000000000000000000000000000000000000000000000000081526004016121ee9061383a565b60405180910390fd5b61220382600083612401565b60008060008473ffffffffffffffffffffffffffffffffffffffff1673ffffffffffffffffffffffffffffffffffffffff16815260200190815260200160002054905081811015612289576040517f08c379a0000000000000000000000000000000000000000000000000000000008152600401612280906138cc565b60405180910390fd5b8181036000808573ffffffffffffffffffffffffffffffffffffffff1673ffffffffffffffffffffffffffffffffffffffff1681526020019081526020016000208190555081600260008282546122e091906138ec565b92505081905550600073ffffffffffffffffffffffffffffffffffffffff168373ffffffffffffffffffffffffffffffffffffffff167fddf252ad1be2c89b69c2b068fc378daa952ba7f163c4a11628f55a4df523b3ef8460405161234591906128fd565b60405180910390a361235983600084612459565b505050565b6123666112ee565b156123a6576040517f08c379a000000000000000000000000000000000000000000000000000000000815260040161239d90612ea3565b60405180910390fd5b6001600560006101000a81548160ff0219169083151502179055507f62e78cea01bee320cd4e420270b5ea74000d11b0c9f74754ebdbfc544b05a2586123ea6118d1565b6040516123f79190612ed2565b60405180910390a1565b61240c83838361269a565b6124146112ee565b15612454576040517f08c379a000000000000000000000000000000000000000000000000000000000815260040161244b90613992565b60405180910390fd5b505050565b505050565b60606000600283600261247191906139b2565b61247b9190612cbd565b67ffffffffffffffff81111561249457612493613a0c565b5b6040519080825280601f01601f1916602001820160405280156124c65781602001600182028036833780820191505090505b5090507f3000000000000000000000000000000000000000000000000000000000000000816000815181106124fe576124fd613a3b565b5b60200101907effffffffffffffffffffffffffffffffffffffffffffffffffffffffffffff1916908160001a9053507f78000000000000000000000000000000000000000000000000000000000000008160018151811061256257612561613a3b565b5b60200101907effffffffffffffffffffffffffffffffffffffffffffffffffffffffffffff1916908160001a905350600060018460026125a291906139b2565b6125ac9190612cbd565b90505b600181111561264c577f3031323334353637383961626364656600000000000000000000000000000000600f8616601081106125ee576125ed613a3b565b5b1a60f81b82828151811061260557612604613a3b565b5b60200101907effffffffffffffffffffffffffffffffffffffffffffffffffffffffffffff1916908160001a905350600485901c94508061264590613a6a565b90506125af565b5060008414612690576040517f08c379a000000000000000000000000000000000000000000000000000000000815260040161268790613ae0565b60405180910390fd5b8091505092915050565b505050565b600080fd5b60007fffffffff0000000000000000000000000000000000000000000000000000000082169050919050565b6126d9816126a4565b81146126e457600080fd5b50565b6000813590506126f6816126d0565b92915050565b6000602082840312156127125761271161269f565b5b6000612720848285016126e7565b91505092915050565b60008115159050919050565b61273e81612729565b82525050565b60006020820190506127596000830184612735565b92915050565b600081519050919050565b600082825260208201905092915050565b60005b8381101561279957808201518184015260208101905061277e565b838111156127a8576000848401525b50505050565b6000601f19601f8301169050919050565b60006127ca8261275f565b6127d4818561276a565b93506127e481856020860161277b565b6127ed816127ae565b840191505092915050565b6000602082019050818103600083015261281281846127bf565b905092915050565b600073ffffffffffffffffffffffffffffffffffffffff82169050919050565b60006128458261281a565b9050919050565b6128558161283a565b811461286057600080fd5b50565b6000813590506128728161284c565b92915050565b6000819050919050565b61288b81612878565b811461289657600080fd5b50565b6000813590506128a881612882565b92915050565b600080604083850312156128c5576128c461269f565b5b60006128d385828601612863565b92505060206128e485828601612899565b9150509250929050565b6128f781612878565b82525050565b600060208201905061291260008301846128ee565b92915050565b6000806000606084860312156129315761293061269f565b5b600061293f86828701612863565b935050602061295086828701612863565b925050604061296186828701612899565b9150509250925092565b6000819050919050565b61297e8161296b565b811461298957600080fd5b50565b60008135905061299b81612975565b92915050565b6000602082840312156129b7576129b661269f565b5b60006129c58482850161298c565b91505092915050565b6129d78161296b565b82525050565b60006020820190506129f260008301846129ce565b92915050565b60008060408385031215612a0f57612a0e61269f565b5b6000612a1d8582860161298c565b9250506020612a2e85828601612863565b9150509250929050565b600060ff82169050919050565b612a4e81612a38565b82525050565b6000602082019050612a696000830184612a45565b92915050565b600060208284031215612a8557612a8461269f565b5b6000612a9384828501612899565b91505092915050565b600060208284031215612ab257612ab161269f565b5b6000612ac084828501612863565b91505092915050565b60008060408385031215612ae057612adf61269f565b5b6000612aee85828601612863565b9250506020612aff85828601612863565b9150509250929050565b7f4e487b7100000000000000000000000000000000000000000000000000000000600052602260045260246000fd5b60006002820490506001821680612b5057607f821691505b60208210811415612b6457612b63612b09565b5b50919050565b7f45524332303a207472616e7366657220616d6f756e742065786365656473206160008201527f6c6c6f77616e6365000000000000000000000000000000000000000000000000602082015250565b6000612bc660288361276a565b9150612bd182612b6a565b604082019050919050565b60006020820190508181036000830152612bf581612bb9565b9050919050565b7f416363657373436f6e74726f6c3a2063616e206f6e6c792072656e6f756e636560008201527f20726f6c657320666f722073656c660000000000000000000000000000000000602082015250565b6000612c58602f8361276a565b9150612c6382612bfc565b604082019050919050565b60006020820190508181036000830152612c8781612c4b565b9050919050565b7f4e487b7100000000000000000000000000000000000000000000000000000000600052601160045260246000fd5b6000612cc882612878565b9150612cd383612878565b9250827fffffffffffffffffffffffffffffffffffffffffffffffffffffffffffffffff03821115612d0857612d07612c8e565b5b828201905092915050565b7f43616c6c6572206973206e6f742074686520436f6e666967757261746f720000600082015250565b6000612d49601e8361276a565b9150612d5482612d13565b602082019050919050565b60006020820190508181036000830152612d7881612d3c565b9050919050565b7f5265656e7472616e637947756172643a207265656e7472616e742063616c6c00600082015250565b6000612db5601f8361276a565b9150612dc082612d7f565b602082019050919050565b60006020820190508181036000830152612de481612da8565b9050919050565b7f43616c6c6572206973206e6f7420746865204c656e64696e6720506f6f6c0000600082015250565b6000612e21601e8361276a565b9150612e2c82612deb565b602082019050919050565b60006020820190508181036000830152612e5081612e14565b9050919050565b7f5061757361626c653a2070617573656400000000000000000000000000000000600082015250565b6000612e8d60108361276a565b9150612e9882612e57565b602082019050919050565b60006020820190508181036000830152612ebc81612e80565b9050919050565b612ecc8161283a565b82525050565b6000602082019050612ee76000830184612ec3565b92915050565b600081519050612efc81612882565b92915050565b600060208284031215612f1857612f1761269f565b5b6000612f2684828501612eed565b91505092915050565b7f496e73756666696369656e7420737570706c79206f6620617373657420746f6b60008201527f656e20696e20726573657276652e000000000000000000000000000000000000602082015250565b6000612f8b602e8361276a565b9150612f9682612f2f565b604082019050919050565b60006020820190508181036000830152612fba81612f7e565b9050919050565b6000604082019050612fd66000830185612ec3565b612fe360208301846128ee565b9392505050565b612ff381612729565b8114612ffe57600080fd5b50565b60008151905061301081612fea565b92915050565b60006020828403121561302c5761302b61269f565b5b600061303a84828501613001565b91505092915050565b7f554e5355434345535346554c5f415050524f5645000000000000000000000000600082015250565b600061307960148361276a565b915061308482613043565b602082019050919050565b600060208201905081810360008301526130a88161306c565b9050919050565b7f554e5355434345535346554c5f5452414e534645520000000000000000000000600082015250565b60006130e560158361276a565b91506130f0826130af565b602082019050919050565b60006020820190508181036000830152613114816130d8565b9050919050565b60006060820190506131306000830186612ec3565b61313d6020830185612ec3565b61314a60408301846128ee565b949350505050565b7f496e73756666696369656e74207573657220617373657420746f6b656e20626160008201527f6c616e63652e0000000000000000000000000000000000000000000000000000602082015250565b60006131ae60268361276a565b91506131b982613152565b604082019050919050565b600060208201905081810360008301526131dd816131a1565b9050919050565b7f45524332303a206275726e20616d6f756e74206578636565647320616c6c6f7760008201527f616e636500000000000000000000000000000000000000000000000000000000602082015250565b600061324060248361276a565b915061324b826131e4565b604082019050919050565b6000602082019050818103600083015261326f81613233565b9050919050565b7f45524332303a2064656372656173656420616c6c6f77616e63652062656c6f7760008201527f207a65726f000000000000000000000000000000000000000000000000000000602082015250565b60006132d260258361276a565b91506132dd82613276565b604082019050919050565b60006020820190508181036000830152613301816132c5565b9050919050565b7f45524332303a20617070726f76652066726f6d20746865207a65726f2061646460008201527f7265737300000000000000000000000000000000000000000000000000000000602082015250565b600061336460248361276a565b915061336f82613308565b604082019050919050565b6000602082019050818103600083015261339381613357565b9050919050565b7f45524332303a20617070726f766520746f20746865207a65726f20616464726560008201527f7373000000000000000000000000000000000000000000000000000000000000602082015250565b60006133f660228361276a565b91506134018261339a565b604082019050919050565b60006020820190508181036000830152613425816133e9565b9050919050565b7f45524332303a207472616e736665722066726f6d20746865207a65726f20616460008201527f6472657373000000000000000000000000000000000000000000000000000000602082015250565b600061348860258361276a565b91506134938261342c565b604082019050919050565b600060208201905081810360008301526134b78161347b565b9050919050565b7f45524332303a207472616e7366657220746f20746865207a65726f206164647260008201527f6573730000000000000000000000000000000000000000000000000000000000602082015250565b600061351a60238361276a565b9150613525826134be565b604082019050919050565b600060208201905081810360008301526135498161350d565b9050919050565b7f45524332303a207472616e7366657220616d6f756e742065786365656473206260008201527f616c616e63650000000000000000000000000000000000000000000000000000602082015250565b60006135ac60268361276a565b91506135b782613550565b604082019050919050565b600060208201905081810360008301526135db8161359f565b9050919050565b600081905092915050565b7f416363657373436f6e74726f6c3a206163636f756e7420000000000000000000600082015250565b60006136236017836135e2565b915061362e826135ed565b601782019050919050565b60006136448261275f565b61364e81856135e2565b935061365e81856020860161277b565b80840191505092915050565b7f206973206d697373696e6720726f6c6520000000000000000000000000000000600082015250565b60006136a06011836135e2565b91506136ab8261366a565b601182019050919050565b60006136c182613616565b91506136cd8285613639565b91506136d882613693565b91506136e48284613639565b91508190509392505050565b7f5061757361626c653a206e6f7420706175736564000000000000000000000000600082015250565b600061372660148361276a565b9150613731826136f0565b602082019050919050565b6000602082019050818103600083015261375581613719565b9050919050565b7f45524332303a206d696e7420746f20746865207a65726f206164647265737300600082015250565b6000613792601f8361276a565b915061379d8261375c565b602082019050919050565b600060208201905081810360008301526137c181613785565b9050919050565b7f45524332303a206275726e2066726f6d20746865207a65726f2061646472657360008201527f7300000000000000000000000000000000000000000000000000000000000000602082015250565b600061382460218361276a565b915061382f826137c8565b604082019050919050565b6000602082019050818103600083015261385381613817565b9050919050565b7f45524332303a206275726e20616d6f756e7420657863656564732062616c616e60008201527f6365000000000000000000000000000000000000000000000000000000000000602082015250565b60006138b660228361276a565b91506138c18261385a565b604082019050919050565b600060208201905081810360008301526138e5816138a9565b9050919050565b60006138f782612878565b915061390283612878565b92508282101561391557613914612c8e565b5b828203905092915050565b7f45524332305061757361626c653a20746f6b656e207472616e7366657220776860008201527f696c652070617573656400000000000000000000000000000000000000000000602082015250565b600061397c602a8361276a565b915061398782613920565b604082019050919050565b600060208201905081810360008301526139ab8161396f565b9050919050565b60006139bd82612878565b91506139c883612878565b9250817fffffffffffffffffffffffffffffffffffffffffffffffffffffffffffffffff0483118215151615613a0157613a00612c8e565b5b828202905092915050565b7f4e487b7100000000000000000000000000000000000000000000000000000000600052604160045260246000fd5b7f4e487b7100000000000000000000000000000000000000000000000000000000600052603260045260246000fd5b6000613a7582612878565b91506000821415613a8957613a88612c8e565b5b600182039050919050565b7f537472696e67733a20686578206c656e67746820696e73756666696369656e74600082015250565b6000613aca60208361276a565b9150613ad582613a94565b602082019050919050565b60006020820190508181036000830152613af981613abd565b905091905056fea2646970667358221220b535f2daf689c78d146db042b6bcdff55752da05016ea6a9fc8fd0706524073964736f6c63430008090033",
  "linkReferences": {},
  "deployedLinkReferences": {}
}