{
  "_format": "hh-sol-artifact-1",
  "contractName": "CollateralManager",
  "sourceName": "contracts/CollateralManager.sol",
  "abi": [
    {
      "inputs": [
        {
          "internalType": "address",
          "name": "configurator",
          "type": "address"
        },
        {
          "internalType": "address",
          "name": "lendingPool",
          "type": "address"
        }
      ],
      "stateMutability": "nonpayable",
      "type": "constructor"
    },
    {
      "anonymous": false,
      "inputs": [
        {
          "indexed": false,
          "internalType": "address",
          "name": "borrower",
          "type": "address"
        },
        {
          "indexed": false,
          "internalType": "address",
          "name": "erc721Token",
          "type": "address"
        },
        {
          "indexed": false,
          "internalType": "uint256",
          "name": "tokenId",
          "type": "uint256"
        },
        {
          "indexed": false,
          "internalType": "uint256",
          "name": "id",
          "type": "uint256"
        }
      ],
      "name": "DepositCollateral",
      "type": "event"
    },
    {
      "anonymous": false,
      "inputs": [
        {
          "indexed": false,
          "internalType": "address",
          "name": "liquidator",
          "type": "address"
        },
        {
          "indexed": false,
          "internalType": "address",
          "name": "erc721Token",
          "type": "address"
        },
        {
          "indexed": false,
          "internalType": "uint256",
          "name": "tokenId",
          "type": "uint256"
        },
        {
          "indexed": false,
          "internalType": "uint256",
          "name": "id",
          "type": "uint256"
        }
      ],
      "name": "LiquidateCollateral",
      "type": "event"
    },
    {
      "anonymous": false,
      "inputs": [
        {
          "indexed": false,
          "internalType": "address",
          "name": "account",
          "type": "address"
        }
      ],
      "name": "Paused",
      "type": "event"
    },
    {
      "anonymous": false,
      "inputs": [
        {
          "indexed": true,
          "internalType": "bytes32",
          "name": "role",
          "type": "bytes32"
        },
        {
          "indexed": true,
          "internalType": "bytes32",
          "name": "previousAdminRole",
          "type": "bytes32"
        },
        {
          "indexed": true,
          "internalType": "bytes32",
          "name": "newAdminRole",
          "type": "bytes32"
        }
      ],
      "name": "RoleAdminChanged",
      "type": "event"
    },
    {
      "anonymous": false,
      "inputs": [
        {
          "indexed": true,
          "internalType": "bytes32",
          "name": "role",
          "type": "bytes32"
        },
        {
          "indexed": true,
          "internalType": "address",
          "name": "account",
          "type": "address"
        },
        {
          "indexed": true,
          "internalType": "address",
          "name": "sender",
          "type": "address"
        }
      ],
      "name": "RoleGranted",
      "type": "event"
    },
    {
      "anonymous": false,
      "inputs": [
        {
          "indexed": true,
          "internalType": "bytes32",
          "name": "role",
          "type": "bytes32"
        },
        {
          "indexed": true,
          "internalType": "address",
          "name": "account",
          "type": "address"
        },
        {
          "indexed": true,
          "internalType": "address",
          "name": "sender",
          "type": "address"
        }
      ],
      "name": "RoleRevoked",
      "type": "event"
    },
    {
      "anonymous": false,
      "inputs": [
        {
          "indexed": false,
          "internalType": "address",
          "name": "erc721Token",
          "type": "address"
        },
        {
          "indexed": false,
          "internalType": "uint256",
          "name": "interestRate",
          "type": "uint256"
        }
      ],
      "name": "SetInterestRate",
      "type": "event"
    },
    {
      "anonymous": false,
      "inputs": [
        {
          "indexed": false,
          "internalType": "address",
          "name": "erc721Token",
          "type": "address"
        },
        {
          "indexed": false,
          "internalType": "uint256",
          "name": "liquidationThreshold",
          "type": "uint256"
        }
      ],
      "name": "SetLiquidationThreshold",
      "type": "event"
    },
    {
      "anonymous": false,
      "inputs": [
        {
          "indexed": false,
          "internalType": "address",
          "name": "account",
          "type": "address"
        }
      ],
      "name": "Unpaused",
      "type": "event"
    },
    {
      "anonymous": false,
      "inputs": [
        {
          "indexed": false,
          "internalType": "address",
          "name": "erc721Token",
          "type": "address"
        },
        {
          "indexed": false,
          "internalType": "bool",
          "name": "isWhitelisted",
          "type": "bool"
        }
      ],
      "name": "Whitelisted",
      "type": "event"
    },
    {
      "anonymous": false,
      "inputs": [
        {
          "indexed": false,
          "internalType": "address",
          "name": "borrower",
          "type": "address"
        },
        {
          "indexed": false,
          "internalType": "address",
          "name": "erc721Token",
          "type": "address"
        },
        {
          "indexed": false,
          "internalType": "uint256",
          "name": "tokenId",
          "type": "uint256"
        },
        {
          "indexed": false,
          "internalType": "uint256",
          "name": "id",
          "type": "uint256"
        }
      ],
      "name": "WithdrawCollateral",
      "type": "event"
    },
    {
      "inputs": [],
      "name": "CONFIGURATOR_ROLE",
      "outputs": [
        {
          "internalType": "bytes32",
          "name": "",
          "type": "bytes32"
        }
      ],
      "stateMutability": "view",
      "type": "function"
    },
    {
      "inputs": [],
      "name": "DEFAULT_ADMIN_ROLE",
      "outputs": [
        {
          "internalType": "bytes32",
          "name": "",
          "type": "bytes32"
        }
      ],
      "stateMutability": "view",
      "type": "function"
    },
    {
      "inputs": [],
      "name": "LENDING_POOL_ROLE",
      "outputs": [
        {
          "internalType": "bytes32",
          "name": "",
          "type": "bytes32"
        }
      ],
      "stateMutability": "view",
      "type": "function"
    },
    {
      "inputs": [
        {
          "internalType": "uint256",
          "name": "",
          "type": "uint256"
        }
      ],
      "name": "borrows",
      "outputs": [
        {
          "internalType": "enum DataTypes.BorrowStatus",
          "name": "status",
          "type": "uint8"
        },
        {
          "components": [
            {
              "internalType": "address",
              "name": "erc721Token",
              "type": "address"
            },
            {
              "internalType": "uint256",
              "name": "tokenId",
              "type": "uint256"
            }
          ],
          "internalType": "struct DataTypes.Collateral",
          "name": "collateral",
          "type": "tuple"
        },
        {
          "internalType": "address",
          "name": "borrower",
          "type": "address"
        },
        {
          "internalType": "address",
          "name": "erc20Token",
          "type": "address"
        },
        {
          "internalType": "uint256",
          "name": "borrowAmount",
          "type": "uint256"
        },
        {
          "internalType": "uint256",
          "name": "repaymentAmount",
          "type": "uint256"
        },
        {
          "internalType": "uint256",
          "name": "interestRate",
          "type": "uint256"
        },
        {
          "internalType": "uint256",
          "name": "liquidationPrice",
          "type": "uint256"
        },
        {
          "internalType": "uint256",
          "name": "maturity",
          "type": "uint256"
        }
      ],
      "stateMutability": "view",
      "type": "function"
    },
    {
      "inputs": [
        {
          "internalType": "address",
          "name": "borrower",
          "type": "address"
        },
        {
          "internalType": "address",
          "name": "erc20Token",
          "type": "address"
        },
        {
          "internalType": "address",
          "name": "erc721Token",
          "type": "address"
        },
        {
          "internalType": "uint256",
          "name": "tokenId",
          "type": "uint256"
        },
        {
          "internalType": "uint256",
          "name": "borrowAmount",
          "type": "uint256"
        },
        {
          "internalType": "uint256",
          "name": "repaymentAmount",
          "type": "uint256"
        },
        {
          "internalType": "uint256",
          "name": "interestRate",
          "type": "uint256"
        },
        {
          "internalType": "uint256",
          "name": "collateralFloorPrice",
          "type": "uint256"
        },
        {
          "internalType": "uint256",
          "name": "maturity",
          "type": "uint256"
        }
      ],
      "name": "deposit",
      "outputs": [
        {
          "internalType": "bool",
          "name": "",
          "type": "bool"
        }
      ],
      "stateMutability": "nonpayable",
      "type": "function"
    },
    {
      "inputs": [
        {
          "internalType": "uint256",
          "name": "borrowId",
          "type": "uint256"
        }
      ],
      "name": "getBorrow",
      "outputs": [
        {
          "components": [
            {
              "internalType": "enum DataTypes.BorrowStatus",
              "name": "status",
              "type": "uint8"
            },
            {
              "components": [
                {
                  "internalType": "address",
                  "name": "erc721Token",
                  "type": "address"
                },
                {
                  "internalType": "uint256",
                  "name": "tokenId",
                  "type": "uint256"
                }
              ],
              "internalType": "struct DataTypes.Collateral",
              "name": "collateral",
              "type": "tuple"
            },
            {
              "internalType": "address",
              "name": "borrower",
              "type": "address"
            },
            {
              "internalType": "address",
              "name": "erc20Token",
              "type": "address"
            },
            {
              "internalType": "uint256",
              "name": "borrowAmount",
              "type": "uint256"
            },
            {
              "internalType": "uint256",
              "name": "repaymentAmount",
              "type": "uint256"
            },
            {
              "internalType": "uint256",
              "name": "interestRate",
              "type": "uint256"
            },
            {
              "internalType": "uint256",
              "name": "liquidationPrice",
              "type": "uint256"
            },
            {
              "internalType": "uint256",
              "name": "maturity",
              "type": "uint256"
            }
          ],
          "internalType": "struct DataTypes.Borrow",
          "name": "",
          "type": "tuple"
        }
      ],
      "stateMutability": "view",
      "type": "function"
    },
    {
      "inputs": [
        {
          "internalType": "address",
          "name": "erc721Token",
          "type": "address"
        }
      ],
      "name": "getInterestRate",
      "outputs": [
        {
          "internalType": "uint256",
          "name": "",
          "type": "uint256"
        }
      ],
      "stateMutability": "view",
      "type": "function"
    },
    {
      "inputs": [],
      "name": "getLastBorrowId",
      "outputs": [
        {
          "internalType": "uint256",
          "name": "",
          "type": "uint256"
        }
      ],
      "stateMutability": "view",
      "type": "function"
    },
    {
      "inputs": [
        {
          "internalType": "address",
          "name": "_erc721Token",
          "type": "address"
        }
      ],
      "name": "getLiquidationThreshold",
      "outputs": [
        {
          "internalType": "uint256",
          "name": "",
          "type": "uint256"
        }
      ],
      "stateMutability": "view",
      "type": "function"
    },
    {
      "inputs": [
        {
          "internalType": "bytes32",
          "name": "role",
          "type": "bytes32"
        }
      ],
      "name": "getRoleAdmin",
      "outputs": [
        {
          "internalType": "bytes32",
          "name": "",
          "type": "bytes32"
        }
      ],
      "stateMutability": "view",
      "type": "function"
    },
    {
      "inputs": [
        {
          "internalType": "address",
          "name": "user",
          "type": "address"
        }
      ],
      "name": "getUserBorrowIds",
      "outputs": [
        {
          "internalType": "uint256[]",
          "name": "",
          "type": "uint256[]"
        }
      ],
      "stateMutability": "view",
      "type": "function"
    },
    {
      "inputs": [],
      "name": "getWhitelist",
      "outputs": [
        {
          "internalType": "address[]",
          "name": "",
          "type": "address[]"
        }
      ],
      "stateMutability": "view",
      "type": "function"
    },
    {
      "inputs": [
        {
          "internalType": "bytes32",
          "name": "role",
          "type": "bytes32"
        },
        {
          "internalType": "address",
          "name": "account",
          "type": "address"
        }
      ],
      "name": "grantRole",
      "outputs": [],
      "stateMutability": "nonpayable",
      "type": "function"
    },
    {
      "inputs": [
        {
          "internalType": "bytes32",
          "name": "role",
          "type": "bytes32"
        },
        {
          "internalType": "address",
          "name": "account",
          "type": "address"
        }
      ],
      "name": "hasRole",
      "outputs": [
        {
          "internalType": "bool",
          "name": "",
          "type": "bool"
        }
      ],
      "stateMutability": "view",
      "type": "function"
    },
    {
      "inputs": [
        {
          "internalType": "address",
          "name": "",
          "type": "address"
        }
      ],
      "name": "interestRates",
      "outputs": [
        {
          "internalType": "uint256",
          "name": "",
          "type": "uint256"
        }
      ],
      "stateMutability": "view",
      "type": "function"
    },
    {
      "inputs": [
        {
          "internalType": "address",
          "name": "",
          "type": "address"
        }
      ],
      "name": "liquidationThresholds",
      "outputs": [
        {
          "internalType": "uint256",
          "name": "",
          "type": "uint256"
        }
      ],
      "stateMutability": "view",
      "type": "function"
    },
    {
      "inputs": [
        {
          "internalType": "address",
          "name": "",
          "type": "address"
        },
        {
          "internalType": "address",
          "name": "",
          "type": "address"
        },
        {
          "internalType": "uint256",
          "name": "",
          "type": "uint256"
        },
        {
          "internalType": "bytes",
          "name": "",
          "type": "bytes"
        }
      ],
      "name": "onERC721Received",
      "outputs": [
        {
          "internalType": "bytes4",
          "name": "",
          "type": "bytes4"
        }
      ],
      "stateMutability": "nonpayable",
      "type": "function"
    },
    {
      "inputs": [],
      "name": "pause",
      "outputs": [],
      "stateMutability": "nonpayable",
      "type": "function"
    },
    {
      "inputs": [],
      "name": "paused",
      "outputs": [
        {
          "internalType": "bool",
          "name": "",
          "type": "bool"
        }
      ],
      "stateMutability": "view",
      "type": "function"
    },
    {
      "inputs": [
        {
          "internalType": "bytes32",
          "name": "role",
          "type": "bytes32"
        },
        {
          "internalType": "address",
          "name": "account",
          "type": "address"
        }
      ],
      "name": "renounceRole",
      "outputs": [],
      "stateMutability": "nonpayable",
      "type": "function"
    },
    {
      "inputs": [
        {
          "internalType": "uint256",
          "name": "_id",
          "type": "uint256"
        },
        {
          "internalType": "address",
          "name": "_asset",
          "type": "address"
        },
        {
          "internalType": "uint256",
          "name": "_repaymentAmount",
          "type": "uint256"
        },
        {
          "internalType": "address",
          "name": "_liquidator",
          "type": "address"
        }
      ],
      "name": "retrieve",
      "outputs": [
        {
          "internalType": "bool",
          "name": "",
          "type": "bool"
        }
      ],
      "stateMutability": "nonpayable",
      "type": "function"
    },
    {
      "inputs": [
        {
          "internalType": "bytes32",
          "name": "role",
          "type": "bytes32"
        },
        {
          "internalType": "address",
          "name": "account",
          "type": "address"
        }
      ],
      "name": "revokeRole",
      "outputs": [],
      "stateMutability": "nonpayable",
      "type": "function"
    },
    {
      "inputs": [
        {
          "internalType": "address",
          "name": "erc721Token",
          "type": "address"
        },
        {
          "internalType": "uint256",
          "name": "interestRate",
          "type": "uint256"
        }
      ],
      "name": "setInterestRate",
      "outputs": [],
      "stateMutability": "nonpayable",
      "type": "function"
    },
    {
      "inputs": [
        {
          "internalType": "address",
          "name": "_erc721Token",
          "type": "address"
        },
        {
          "internalType": "uint256",
          "name": "_threshold",
          "type": "uint256"
        }
      ],
      "name": "setLiquidationThreshold",
      "outputs": [],
      "stateMutability": "nonpayable",
      "type": "function"
    },
    {
      "inputs": [
        {
          "internalType": "bytes4",
          "name": "interfaceId",
          "type": "bytes4"
        }
      ],
      "name": "supportsInterface",
      "outputs": [
        {
          "internalType": "bool",
          "name": "",
          "type": "bool"
        }
      ],
      "stateMutability": "view",
      "type": "function"
    },
    {
      "inputs": [],
      "name": "unpause",
      "outputs": [],
      "stateMutability": "nonpayable",
      "type": "function"
    },
    {
      "inputs": [
        {
          "internalType": "address",
          "name": "erc721Token",
          "type": "address"
        },
        {
          "internalType": "bool",
          "name": "isWhitelisted",
          "type": "bool"
        }
      ],
      "name": "updateWhitelist",
      "outputs": [],
      "stateMutability": "nonpayable",
      "type": "function"
    },
    {
      "inputs": [
        {
          "internalType": "address",
          "name": "",
          "type": "address"
        },
        {
          "internalType": "uint256",
          "name": "",
          "type": "uint256"
        }
      ],
      "name": "userBorrows",
      "outputs": [
        {
          "internalType": "uint256",
          "name": "",
          "type": "uint256"
        }
      ],
      "stateMutability": "view",
      "type": "function"
    },
    {
      "inputs": [
        {
          "internalType": "uint256",
          "name": "",
          "type": "uint256"
        }
      ],
      "name": "whitelist",
      "outputs": [
        {
          "internalType": "address",
          "name": "",
          "type": "address"
        }
      ],
      "stateMutability": "view",
      "type": "function"
    },
    {
      "inputs": [
        {
          "internalType": "uint256",
          "name": "_id",
          "type": "uint256"
        },
        {
          "internalType": "address",
          "name": "_asset",
          "type": "address"
        },
        {
          "internalType": "uint256",
          "name": "_repaymentAmount",
          "type": "uint256"
        }
      ],
      "name": "withdraw",
      "outputs": [
        {
          "internalType": "bool",
          "name": "",
          "type": "bool"
        }
      ],
      "stateMutability": "nonpayable",
      "type": "function"
    }
  ],
  "bytecode": "0x60806040523480156200001157600080fd5b5060405162004563380380620045638339818101604052810190620000379190620002a9565b6000600160006101000a81548160ff02191690831515021790555060016002819055506200008c7f3b49a237fe2d18fa4d9642b8a0e065923cceb71b797783b619a030a61d848bf083620000c660201b60201c565b620000be7fa05e016071881d2170d364744d63b2e41aeb933bc5c5727596db7b66f663c3ea82620000c660201b60201c565b5050620002f0565b620000d88282620000dc60201b60201c565b5050565b620000ee8282620001cd60201b60201c565b620001c957600160008084815260200190815260200160002060000160008373ffffffffffffffffffffffffffffffffffffffff1673ffffffffffffffffffffffffffffffffffffffff16815260200190815260200160002060006101000a81548160ff0219169083151502179055506200016e6200023760201b60201c565b73ffffffffffffffffffffffffffffffffffffffff168173ffffffffffffffffffffffffffffffffffffffff16837f2f8788117e7eff1d82e926ec794901d17c78024a50270940304540a733656f0d60405160405180910390a45b5050565b600080600084815260200190815260200160002060000160008373ffffffffffffffffffffffffffffffffffffffff1673ffffffffffffffffffffffffffffffffffffffff16815260200190815260200160002060009054906101000a900460ff16905092915050565b600033905090565b600080fd5b600073ffffffffffffffffffffffffffffffffffffffff82169050919050565b6000620002718262000244565b9050919050565b620002838162000264565b81146200028f57600080fd5b50565b600081519050620002a38162000278565b92915050565b60008060408385031215620002c357620002c26200023f565b5b6000620002d38582860162000292565b9250506020620002e68582860162000292565b9150509250929050565b61426380620003006000396000f3fe608060405234801561001057600080fd5b50600436106101da5760003560e01c80637ebd1b3011610104578063d01f63f5116100a2578063dccda03d11610071578063dccda03d146105a9578063e0268636146105d9578063e63697c8146105f7578063f39d56b114610627576101da565b8063d01f63f514610521578063d3ea0f891461053f578063d547741f1461056f578063d853015e1461058b576101da565b806391d14854116100de57806391d1485414610473578063a217fddf146104a3578063b176e311146104c1578063b696bdf9146104f1576101da565b80637ebd1b30146104095780638456cb5914610439578063876e264f14610443576101da565b80632f2ff15d1161017c5780635c975abb1161014b5780635c975abb1461036f57806373e5515e1461038d57806378327438146103a95780637b86e42c146103d9576101da565b80632f2ff15d146102fd57806336568abe146103195780633f4ba83a146103355780634124e58c1461033f576101da565b8063150b7a02116101b8578063150b7a0214610247578063191e9d7c146102775780631c5b9e4c146102af578063248a9ca3146102cd576101da565b806301ffc9a7146101df5780630d392cd91461020f5780630e30428d1461022b575b600080fd5b6101f960048036038101906101f49190612c98565b610657565b6040516102069190612ce0565b60405180910390f35b61022960048036038101906102249190612d85565b6106d1565b005b61024560048036038101906102409190612dfb565b6109da565b005b610261600480360381019061025c9190612f81565b610acb565b60405161026e9190613013565b60405180910390f35b610291600480360381019061028c919061302e565b610adf565b6040516102a69998979695949392919061313d565b60405180910390f35b6102b7610be4565b6040516102c491906131cb565b60405180910390f35b6102e760048036038101906102e2919061321c565b610bf1565b6040516102f49190613258565b60405180910390f35b61031760048036038101906103129190613273565b610c10565b005b610333600480360381019061032e9190613273565b610c39565b005b61033d610cbc565b005b610359600480360381019061035491906132b3565b610d36565b604051610366919061338f565b60405180910390f35b610377610dcd565b6040516103849190612ce0565b60405180910390f35b6103a760048036038101906103a29190612dfb565b610de4565b005b6103c360048036038101906103be91906132b3565b610ed5565b6040516103d091906131cb565b60405180910390f35b6103f360048036038101906103ee91906132b3565b610eed565b60405161040091906131cb565b60405180910390f35b610423600480360381019061041e919061302e565b610f36565b60405161043091906133b1565b60405180910390f35b610441610f75565b005b61045d600480360381019061045891906133cc565b610fef565b60405161046a9190612ce0565b60405180910390f35b61048d60048036038101906104889190613273565b611123565b60405161049a9190612ce0565b60405180910390f35b6104ab61118d565b6040516104b89190613258565b60405180910390f35b6104db60048036038101906104d6919061302e565b611194565b6040516104e8919061358c565b60405180910390f35b61050b60048036038101906105069190612dfb565b61134f565b60405161051891906131cb565b60405180910390f35b610529611380565b6040516105369190613657565b60405180910390f35b610559600480360381019061055491906132b3565b61140e565b60405161056691906131cb565b60405180910390f35b61058960048036038101906105849190613273565b611457565b005b610593611480565b6040516105a09190613258565b60405180910390f35b6105c360048036038101906105be91906132b3565b6114a4565b6040516105d091906131cb565b60405180910390f35b6105e16114bc565b6040516105ee9190613258565b60405180910390f35b610611600480360381019061060c9190613679565b6114e0565b60405161061e9190612ce0565b60405180910390f35b610641600480360381019061063c91906136cc565b611694565b60405161064e9190612ce0565b60405180910390f35b60007f7965db0b000000000000000000000000000000000000000000000000000000007bffffffffffffffffffffffffffffffffffffffffffffffffffffffff1916827bffffffffffffffffffffffffffffffffffffffffffffffffffffffff191614806106ca57506106c98261184a565b5b9050919050565b6107027f3b49a237fe2d18fa4d9642b8a0e065923cceb71b797783b619a030a61d848bf06106fd6118b4565b611123565b610741576040517f08c379a000000000000000000000000000000000000000000000000000000000815260040161073890613790565b60405180910390fd5b80600860008473ffffffffffffffffffffffffffffffffffffffff1673ffffffffffffffffffffffffffffffffffffffff16815260200190815260200160002060006101000a81548160ff0219169083151502179055508015610806576003829080600181540180825580915050600190039060005260206000200160009091909190916101000a81548173ffffffffffffffffffffffffffffffffffffffff021916908373ffffffffffffffffffffffffffffffffffffffff16021790555061099d565b60005b600160038054905061081b91906137df565b81101561099b578273ffffffffffffffffffffffffffffffffffffffff166003828154811061084d5761084c613813565b5b9060005260206000200160009054906101000a900473ffffffffffffffffffffffffffffffffffffffff1673ffffffffffffffffffffffffffffffffffffffff16141561098857600360016003805490506108a891906137df565b815481106108b9576108b8613813565b5b9060005260206000200160009054906101000a900473ffffffffffffffffffffffffffffffffffffffff16600382815481106108f8576108f7613813565b5b9060005260206000200160006101000a81548173ffffffffffffffffffffffffffffffffffffffff021916908373ffffffffffffffffffffffffffffffffffffffff160217905550600380548061095257610951613842565b5b6001900381819060005260206000200160006101000a81549073ffffffffffffffffffffffffffffffffffffffff021916905590555b808061099390613871565b915050610809565b505b7fa54714518c5d275fdcd3d2a461e4858e4e8cb04fb93cd0bca9d6d34115f2644082826040516109ce9291906138ba565b60405180910390a15050565b610a0b7f3b49a237fe2d18fa4d9642b8a0e065923cceb71b797783b619a030a61d848bf0610a066118b4565b611123565b610a4a576040517f08c379a0000000000000000000000000000000000000000000000000000000008152600401610a4190613790565b60405180910390fd5b80600660008473ffffffffffffffffffffffffffffffffffffffff1673ffffffffffffffffffffffffffffffffffffffff168152602001908152602001600020819055507f2fab7440ce203a9450c55c0dd9e4743fa2b89ba9b6847cacc45ae01c574b45378282604051610abf9291906138e3565b60405180910390a15050565b600063150b7a0260e01b9050949350505050565b60046020528060005260406000206000915090508060000160009054906101000a900460ff1690806001016040518060400160405290816000820160009054906101000a900473ffffffffffffffffffffffffffffffffffffffff1673ffffffffffffffffffffffffffffffffffffffff1673ffffffffffffffffffffffffffffffffffffffff168152602001600182015481525050908060030160009054906101000a900473ffffffffffffffffffffffffffffffffffffffff16908060040160009054906101000a900473ffffffffffffffffffffffffffffffffffffffff16908060050154908060060154908060070154908060080154908060090154905089565b6000600960000154905090565b6000806000838152602001908152602001600020600101549050919050565b610c1982610bf1565b610c2a81610c256118b4565b6118bc565b610c348383611959565b505050565b610c416118b4565b73ffffffffffffffffffffffffffffffffffffffff168173ffffffffffffffffffffffffffffffffffffffff1614610cae576040517f08c379a0000000000000000000000000000000000000000000000000000000008152600401610ca59061397e565b60405180910390fd5b610cb88282611a39565b5050565b610ced7f3b49a237fe2d18fa4d9642b8a0e065923cceb71b797783b619a030a61d848bf0610ce86118b4565b611123565b610d2c576040517f08c379a0000000000000000000000000000000000000000000000000000000008152600401610d2390613790565b60405180910390fd5b610d34611b1a565b565b6060600560008373ffffffffffffffffffffffffffffffffffffffff1673ffffffffffffffffffffffffffffffffffffffff168152602001908152602001600020805480602002602001604051908101604052809291908181526020018280548015610dc157602002820191906000526020600020905b815481526020019060010190808311610dad575b50505050509050919050565b6000600160009054906101000a900460ff16905090565b610e157f3b49a237fe2d18fa4d9642b8a0e065923cceb71b797783b619a030a61d848bf0610e106118b4565b611123565b610e54576040517f08c379a0000000000000000000000000000000000000000000000000000000008152600401610e4b90613790565b60405180910390fd5b80600760008473ffffffffffffffffffffffffffffffffffffffff1673ffffffffffffffffffffffffffffffffffffffff168152602001908152602001600020819055507f3a230c1b95fcab5ed7226b6bdd5c18658d49769760e2de5821025edcd815fc948282604051610ec99291906138e3565b60405180910390a15050565b60066020528060005260406000206000915090505481565b6000600660008373ffffffffffffffffffffffffffffffffffffffff1673ffffffffffffffffffffffffffffffffffffffff168152602001908152602001600020549050919050565b60038181548110610f4657600080fd5b906000526020600020016000915054906101000a900473ffffffffffffffffffffffffffffffffffffffff1681565b610fa67f3b49a237fe2d18fa4d9642b8a0e065923cceb71b797783b619a030a61d848bf0610fa16118b4565b611123565b610fe5576040517f08c379a0000000000000000000000000000000000000000000000000000000008152600401610fdc90613790565b60405180910390fd5b610fed611bbc565b565b6000600280541415611036576040517f08c379a000000000000000000000000000000000000000000000000000000000815260040161102d906139ea565b60405180910390fd5b6002808190555061106e7fa05e016071881d2170d364744d63b2e41aeb933bc5c5727596db7b66f663c3ea6110696118b4565b611123565b6110ad576040517f08c379a00000000000000000000000000000000000000000000000000000000081526004016110a490613a56565b60405180910390fd5b6110b5610dcd565b156110f5576040517f08c379a00000000000000000000000000000000000000000000000000000000081526004016110ec90613ac2565b60405180910390fd5b60006111088b8b8b8b8b8b8b8b8b611c5e565b90508091505060016002819055509998505050505050505050565b600080600084815260200190815260200160002060000160008373ffffffffffffffffffffffffffffffffffffffff1673ffffffffffffffffffffffffffffffffffffffff16815260200190815260200160002060009054906101000a900460ff16905092915050565b6000801b81565b61119c612b6c565b60046000838152602001908152602001600020604051806101200160405290816000820160009054906101000a900460ff1660028111156111e0576111df61305b565b5b60028111156111f2576111f161305b565b5b8152602001600182016040518060400160405290816000820160009054906101000a900473ffffffffffffffffffffffffffffffffffffffff1673ffffffffffffffffffffffffffffffffffffffff1673ffffffffffffffffffffffffffffffffffffffff16815260200160018201548152505081526020016003820160009054906101000a900473ffffffffffffffffffffffffffffffffffffffff1673ffffffffffffffffffffffffffffffffffffffff1673ffffffffffffffffffffffffffffffffffffffff1681526020016004820160009054906101000a900473ffffffffffffffffffffffffffffffffffffffff1673ffffffffffffffffffffffffffffffffffffffff1673ffffffffffffffffffffffffffffffffffffffff168152602001600582015481526020016006820154815260200160078201548152602001600882015481526020016009820154815250509050919050565b6005602052816000526040600020818154811061136b57600080fd5b90600052602060002001600091509150505481565b6060600380548060200260200160405190810160405280929190818152602001828054801561140457602002820191906000526020600020905b8160009054906101000a900473ffffffffffffffffffffffffffffffffffffffff1673ffffffffffffffffffffffffffffffffffffffff16815260200190600101908083116113ba575b5050505050905090565b6000600760008373ffffffffffffffffffffffffffffffffffffffff1673ffffffffffffffffffffffffffffffffffffffff168152602001908152602001600020549050919050565b61146082610bf1565b6114718161146c6118b4565b6118bc565b61147b8383611a39565b505050565b7f3b49a237fe2d18fa4d9642b8a0e065923cceb71b797783b619a030a61d848bf081565b60076020528060005260406000206000915090505481565b7fa05e016071881d2170d364744d63b2e41aeb933bc5c5727596db7b66f663c3ea81565b6000600280541415611527576040517f08c379a000000000000000000000000000000000000000000000000000000000815260040161151e906139ea565b60405180910390fd5b6002808190555061155f7fa05e016071881d2170d364744d63b2e41aeb933bc5c5727596db7b66f663c3ea61155a6118b4565b611123565b61159e576040517f08c379a000000000000000000000000000000000000000000000000000000000815260040161159590613a56565b60405180910390fd5b6115a6610dcd565b156115e6576040517f08c379a00000000000000000000000000000000000000000000000000000000081526004016115dd90613ac2565b60405180910390fd5b83600060028111156115fb576115fa61305b565b5b6004600083815260200190815260200160002060000160009054906101000a900460ff1660028111156116315761163061305b565b5b14611671576040517f08c379a000000000000000000000000000000000000000000000000000000000815260040161166890613b2e565b60405180910390fd5b600061167e86868661213f565b9050809250505060016002819055509392505050565b60006002805414156116db576040517f08c379a00000000000000000000000000000000000000000000000000000000081526004016116d2906139ea565b60405180910390fd5b600280819055506117137fa05e016071881d2170d364744d63b2e41aeb933bc5c5727596db7b66f663c3ea61170e6118b4565b611123565b611752576040517f08c379a000000000000000000000000000000000000000000000000000000000815260040161174990613a56565b60405180910390fd5b61175a610dcd565b1561179a576040517f08c379a000000000000000000000000000000000000000000000000000000000815260040161179190613ac2565b60405180910390fd5b84600060028111156117af576117ae61305b565b5b6004600083815260200190815260200160002060000160009054906101000a900460ff1660028111156117e5576117e461305b565b5b14611825576040517f08c379a000000000000000000000000000000000000000000000000000000000815260040161181c90613b2e565b60405180910390fd5b6000611833878787876124d4565b905080925050506001600281905550949350505050565b60007f01ffc9a7000000000000000000000000000000000000000000000000000000007bffffffffffffffffffffffffffffffffffffffffffffffffffffffff1916827bffffffffffffffffffffffffffffffffffffffffffffffffffffffff1916149050919050565b600033905090565b6118c68282611123565b611955576118eb8173ffffffffffffffffffffffffffffffffffffffff16601461282e565b6118f98360001c602061282e565b60405160200161190a929190613c60565b6040516020818303038152906040526040517f08c379a000000000000000000000000000000000000000000000000000000000815260040161194c9190613cd3565b60405180910390fd5b5050565b6119638282611123565b611a3557600160008084815260200190815260200160002060000160008373ffffffffffffffffffffffffffffffffffffffff1673ffffffffffffffffffffffffffffffffffffffff16815260200190815260200160002060006101000a81548160ff0219169083151502179055506119da6118b4565b73ffffffffffffffffffffffffffffffffffffffff168173ffffffffffffffffffffffffffffffffffffffff16837f2f8788117e7eff1d82e926ec794901d17c78024a50270940304540a733656f0d60405160405180910390a45b5050565b611a438282611123565b15611b1657600080600084815260200190815260200160002060000160008373ffffffffffffffffffffffffffffffffffffffff1673ffffffffffffffffffffffffffffffffffffffff16815260200190815260200160002060006101000a81548160ff021916908315150217905550611abb6118b4565b73ffffffffffffffffffffffffffffffffffffffff168173ffffffffffffffffffffffffffffffffffffffff16837ff6391f5c32d9c69d2a47ea670b442974b53935d1edc7fd64eb21e047a839171b60405160405180910390a45b5050565b611b22610dcd565b611b61576040517f08c379a0000000000000000000000000000000000000000000000000000000008152600401611b5890613d41565b60405180910390fd5b6000600160006101000a81548160ff0219169083151502179055507f5db9ee0a495bf2e6ff9c91a7834c1ba4fdd244a5e8aa4e537bd38aeae4b073aa611ba56118b4565b604051611bb291906133b1565b60405180910390a1565b611bc4610dcd565b15611c04576040517f08c379a0000000000000000000000000000000000000000000000000000000008152600401611bfb90613ac2565b60405180910390fd5b60018060006101000a81548160ff0219169083151502179055507f62e78cea01bee320cd4e420270b5ea74000d11b0c9f74754ebdbfc544b05a258611c476118b4565b604051611c5491906133b1565b60405180910390a1565b600080600860008a73ffffffffffffffffffffffffffffffffffffffff1673ffffffffffffffffffffffffffffffffffffffff16815260200190815260200160002060009054906101000a900460ff16611ced576040517f08c379a0000000000000000000000000000000000000000000000000000000008152600401611ce490613dad565b60405180910390fd5b8873ffffffffffffffffffffffffffffffffffffffff166323b872dd8c308b6040518463ffffffff1660e01b8152600401611d2a93929190613dcd565b600060405180830381600087803b158015611d4457600080fd5b505af1158015611d58573d6000803e3d6000fd5b505050508873ffffffffffffffffffffffffffffffffffffffff16636352211e896040518263ffffffff1660e01b8152600401611d9591906131cb565b60206040518083038186803b158015611dad57600080fd5b505afa158015611dc1573d6000803e3d6000fd5b505050506040513d601f19601f82011682018060405250810190611de59190613e19565b90503073ffffffffffffffffffffffffffffffffffffffff168173ffffffffffffffffffffffffffffffffffffffff1614611e55576040517f08c379a0000000000000000000000000000000000000000000000000000000008152600401611e4c90613e92565b60405180910390fd5b6000611e616009612a6a565b90506000611e708b8a88612a78565b905060405180610120016040528060006002811115611e9257611e9161305b565b5b815260200160405180604001604052808e73ffffffffffffffffffffffffffffffffffffffff1681526020018d81525081526020018e73ffffffffffffffffffffffffffffffffffffffff1681526020018d73ffffffffffffffffffffffffffffffffffffffff1681526020018a8152602001898152602001888152602001828152602001868152506004600084815260200190815260200160002060008201518160000160006101000a81548160ff02191690836002811115611f5957611f5861305b565b5b021790555060208201518160010160008201518160000160006101000a81548173ffffffffffffffffffffffffffffffffffffffff021916908373ffffffffffffffffffffffffffffffffffffffff16021790555060208201518160010155505060408201518160030160006101000a81548173ffffffffffffffffffffffffffffffffffffffff021916908373ffffffffffffffffffffffffffffffffffffffff16021790555060608201518160040160006101000a81548173ffffffffffffffffffffffffffffffffffffffff021916908373ffffffffffffffffffffffffffffffffffffffff1602179055506080820151816005015560a0820151816006015560c0820151816007015560e082015181600801556101008201518160090155905050600560008e73ffffffffffffffffffffffffffffffffffffffff1673ffffffffffffffffffffffffffffffffffffffff1681526020019081526020016000208290806001815401808255809150506001900390600052602060002001600090919091909150556120ee6009612b2a565b7fac10d219b7928ad8d4e8185923b71b7e015ebf3f46ca669bab618fbb27d9a07f8d8c8c856040516121239493929190613eb2565b60405180910390a1600193505050509998505050505050505050565b60008060006004600087815260200190815260200160002060040160009054906101000a900473ffffffffffffffffffffffffffffffffffffffff1690506000600460008881526020019081526020016000206006015490508573ffffffffffffffffffffffffffffffffffffffff168273ffffffffffffffffffffffffffffffffffffffff1614612206576040517f08c379a00000000000000000000000000000000000000000000000000000000081526004016121fd90613f69565b60405180910390fd5b848114612248576040517f08c379a000000000000000000000000000000000000000000000000000000000815260040161223f90613ffb565b60405180910390fd5b60006004600089815260200190815260200160002060030160009054906101000a900473ffffffffffffffffffffffffffffffffffffffff1690506000600460008a815260200190815260200160002060010160000160009054906101000a900473ffffffffffffffffffffffffffffffffffffffff1690506000600460008b81526020019081526020016000206001016001015490508173ffffffffffffffffffffffffffffffffffffffff166323b872dd3085846040518463ffffffff1660e01b815260040161231c93929190613dcd565b600060405180830381600087803b15801561233657600080fd5b505af115801561234a573d6000803e3d6000fd5b505050508173ffffffffffffffffffffffffffffffffffffffff16636352211e826040518263ffffffff1660e01b815260040161238791906131cb565b60206040518083038186803b15801561239f57600080fd5b505afa1580156123b3573d6000803e3d6000fd5b505050506040513d601f19601f820116820180604052508101906123d79190613e19565b95508273ffffffffffffffffffffffffffffffffffffffff168673ffffffffffffffffffffffffffffffffffffffff1614612447576040517f08c379a000000000000000000000000000000000000000000000000000000000815260040161243e90613e92565b60405180910390fd5b6001600460008c815260200190815260200160002060000160006101000a81548160ff021916908360028111156124815761248061305b565b5b02179055507f7defc562b3eeddf62fd801e6b306167eef4078e7db2c676313406bffd53cbe3a8383838d6040516124bb9493929190613eb2565b60405180910390a1600196505050505050509392505050565b60008060006004600088815260200190815260200160002060040160009054906101000a900473ffffffffffffffffffffffffffffffffffffffff1690506000600460008981526020019081526020016000206006015490508673ffffffffffffffffffffffffffffffffffffffff168273ffffffffffffffffffffffffffffffffffffffff161461259b576040517f08c379a000000000000000000000000000000000000000000000000000000000815260040161259290613f69565b60405180910390fd5b8581146125dd576040517f08c379a00000000000000000000000000000000000000000000000000000000081526004016125d490613ffb565b60405180910390fd5b6000600460008a815260200190815260200160002060010160000160009054906101000a900473ffffffffffffffffffffffffffffffffffffffff1690506000600460008b81526020019081526020016000206001016001015490508173ffffffffffffffffffffffffffffffffffffffff166323b872dd3089846040518463ffffffff1660e01b815260040161267693929190613dcd565b600060405180830381600087803b15801561269057600080fd5b505af11580156126a4573d6000803e3d6000fd5b505050508173ffffffffffffffffffffffffffffffffffffffff16636352211e826040518263ffffffff1660e01b81526004016126e191906131cb565b60206040518083038186803b1580156126f957600080fd5b505afa15801561270d573d6000803e3d6000fd5b505050506040513d601f19601f820116820180604052508101906127319190613e19565b94508673ffffffffffffffffffffffffffffffffffffffff168573ffffffffffffffffffffffffffffffffffffffff16146127a1576040517f08c379a000000000000000000000000000000000000000000000000000000000815260040161279890613e92565b60405180910390fd5b6002600460008c815260200190815260200160002060000160006101000a81548160ff021916908360028111156127db576127da61305b565b5b02179055507fe21c21137ea075e13375f50c1239ff6f98ab4a80c3a70e43a31bac17e7710d0e8783838d6040516128159493929190613eb2565b60405180910390a1600195505050505050949350505050565b606060006002836002612841919061401b565b61284b9190614075565b67ffffffffffffffff81111561286457612863612e56565b5b6040519080825280601f01601f1916602001820160405280156128965781602001600182028036833780820191505090505b5090507f3000000000000000000000000000000000000000000000000000000000000000816000815181106128ce576128cd613813565b5b60200101907effffffffffffffffffffffffffffffffffffffffffffffffffffffffffffff1916908160001a9053507f78000000000000000000000000000000000000000000000000000000000000008160018151811061293257612931613813565b5b60200101907effffffffffffffffffffffffffffffffffffffffffffffffffffffffffffff1916908160001a90535060006001846002612972919061401b565b61297c9190614075565b90505b6001811115612a1c577f3031323334353637383961626364656600000000000000000000000000000000600f8616601081106129be576129bd613813565b5b1a60f81b8282815181106129d5576129d4613813565b5b60200101907effffffffffffffffffffffffffffffffffffffffffffffffffffffffffffff1916908160001a905350600485901c945080612a15906140cb565b905061297f565b5060008414612a60576040517f08c379a0000000000000000000000000000000000000000000000000000000008152600401612a5790614141565b60405180910390fd5b8091505092915050565b600081600001549050919050565b600080612a8485610eed565b90506000612aae82612aa0606487612b4090919063ffffffff16565b612b5690919063ffffffff16565b905080851115612af3576040517f08c379a0000000000000000000000000000000000000000000000000000000008152600401612aea906141ad565b60405180910390fd5b6000612b1b6064612b0d8589612b4090919063ffffffff16565b612b5690919063ffffffff16565b90508093505050509392505050565b6001816000016000828254019250508190555050565b60008183612b4e919061401b565b905092915050565b60008183612b6491906141fc565b905092915050565b60405180610120016040528060006002811115612b8c57612b8b61305b565b5b8152602001612b99612bfc565b8152602001600073ffffffffffffffffffffffffffffffffffffffff168152602001600073ffffffffffffffffffffffffffffffffffffffff16815260200160008152602001600081526020016000815260200160008152602001600081525090565b6040518060400160405280600073ffffffffffffffffffffffffffffffffffffffff168152602001600081525090565b6000604051905090565b600080fd5b600080fd5b60007fffffffff0000000000000000000000000000000000000000000000000000000082169050919050565b612c7581612c40565b8114612c8057600080fd5b50565b600081359050612c9281612c6c565b92915050565b600060208284031215612cae57612cad612c36565b5b6000612cbc84828501612c83565b91505092915050565b60008115159050919050565b612cda81612cc5565b82525050565b6000602082019050612cf56000830184612cd1565b92915050565b600073ffffffffffffffffffffffffffffffffffffffff82169050919050565b6000612d2682612cfb565b9050919050565b612d3681612d1b565b8114612d4157600080fd5b50565b600081359050612d5381612d2d565b92915050565b612d6281612cc5565b8114612d6d57600080fd5b50565b600081359050612d7f81612d59565b92915050565b60008060408385031215612d9c57612d9b612c36565b5b6000612daa85828601612d44565b9250506020612dbb85828601612d70565b9150509250929050565b6000819050919050565b612dd881612dc5565b8114612de357600080fd5b50565b600081359050612df581612dcf565b92915050565b60008060408385031215612e1257612e11612c36565b5b6000612e2085828601612d44565b9250506020612e3185828601612de6565b9150509250929050565b600080fd5b600080fd5b6000601f19601f8301169050919050565b7f4e487b7100000000000000000000000000000000000000000000000000000000600052604160045260246000fd5b612e8e82612e45565b810181811067ffffffffffffffff82111715612ead57612eac612e56565b5b80604052505050565b6000612ec0612c2c565b9050612ecc8282612e85565b919050565b600067ffffffffffffffff821115612eec57612eeb612e56565b5b612ef582612e45565b9050602081019050919050565b82818337600083830152505050565b6000612f24612f1f84612ed1565b612eb6565b905082815260208101848484011115612f4057612f3f612e40565b5b612f4b848285612f02565b509392505050565b600082601f830112612f6857612f67612e3b565b5b8135612f78848260208601612f11565b91505092915050565b60008060008060808587031215612f9b57612f9a612c36565b5b6000612fa987828801612d44565b9450506020612fba87828801612d44565b9350506040612fcb87828801612de6565b925050606085013567ffffffffffffffff811115612fec57612feb612c3b565b5b612ff887828801612f53565b91505092959194509250565b61300d81612c40565b82525050565b60006020820190506130286000830184613004565b92915050565b60006020828403121561304457613043612c36565b5b600061305284828501612de6565b91505092915050565b7f4e487b7100000000000000000000000000000000000000000000000000000000600052602160045260246000fd5b6003811061309b5761309a61305b565b5b50565b60008190506130ac8261308a565b919050565b60006130bc8261309e565b9050919050565b6130cc816130b1565b82525050565b6130db81612d1b565b82525050565b6130ea81612dc5565b82525050565b60408201600082015161310660008501826130d2565b50602082015161311960208501826130e1565b50505050565b61312881612d1b565b82525050565b61313781612dc5565b82525050565b600061014082019050613153600083018c6130c3565b613160602083018b6130f0565b61316d606083018a61311f565b61317a608083018961311f565b61318760a083018861312e565b61319460c083018761312e565b6131a160e083018661312e565b6131af61010083018561312e565b6131bd61012083018461312e565b9a9950505050505050505050565b60006020820190506131e0600083018461312e565b92915050565b6000819050919050565b6131f9816131e6565b811461320457600080fd5b50565b600081359050613216816131f0565b92915050565b60006020828403121561323257613231612c36565b5b600061324084828501613207565b91505092915050565b613252816131e6565b82525050565b600060208201905061326d6000830184613249565b92915050565b6000806040838503121561328a57613289612c36565b5b600061329885828601613207565b92505060206132a985828601612d44565b9150509250929050565b6000602082840312156132c9576132c8612c36565b5b60006132d784828501612d44565b91505092915050565b600081519050919050565b600082825260208201905092915050565b6000819050602082019050919050565b600061331883836130e1565b60208301905092915050565b6000602082019050919050565b600061333c826132e0565b61334681856132eb565b9350613351836132fc565b8060005b83811015613382578151613369888261330c565b975061337483613324565b925050600181019050613355565b5085935050505092915050565b600060208201905081810360008301526133a98184613331565b905092915050565b60006020820190506133c6600083018461311f565b92915050565b60008060008060008060008060006101208a8c0312156133ef576133ee612c36565b5b60006133fd8c828d01612d44565b995050602061340e8c828d01612d44565b985050604061341f8c828d01612d44565b97505060606134308c828d01612de6565b96505060806134418c828d01612de6565b95505060a06134528c828d01612de6565b94505060c06134638c828d01612de6565b93505060e06134748c828d01612de6565b9250506101006134868c828d01612de6565b9150509295985092959850929598565b61349f816130b1565b82525050565b6040820160008201516134bb60008501826130d2565b5060208201516134ce60208501826130e1565b50505050565b610140820160008201516134eb6000850182613496565b5060208201516134fe60208501826134a5565b50604082015161351160608501826130d2565b50606082015161352460808501826130d2565b50608082015161353760a08501826130e1565b5060a082015161354a60c08501826130e1565b5060c082015161355d60e08501826130e1565b5060e08201516135716101008501826130e1565b506101008201516135866101208501826130e1565b50505050565b6000610140820190506135a260008301846134d4565b92915050565b600081519050919050565b600082825260208201905092915050565b6000819050602082019050919050565b60006135e083836130d2565b60208301905092915050565b6000602082019050919050565b6000613604826135a8565b61360e81856135b3565b9350613619836135c4565b8060005b8381101561364a57815161363188826135d4565b975061363c836135ec565b92505060018101905061361d565b5085935050505092915050565b6000602082019050818103600083015261367181846135f9565b905092915050565b60008060006060848603121561369257613691612c36565b5b60006136a086828701612de6565b93505060206136b186828701612d44565b92505060406136c286828701612de6565b9150509250925092565b600080600080608085870312156136e6576136e5612c36565b5b60006136f487828801612de6565b945050602061370587828801612d44565b935050604061371687828801612de6565b925050606061372787828801612d44565b91505092959194509250565b600082825260208201905092915050565b7f43616c6c6572206973206e6f742074686520436f6e666967757261746f720000600082015250565b600061377a601e83613733565b915061378582613744565b602082019050919050565b600060208201905081810360008301526137a98161376d565b9050919050565b7f4e487b7100000000000000000000000000000000000000000000000000000000600052601160045260246000fd5b60006137ea82612dc5565b91506137f583612dc5565b925082821015613808576138076137b0565b5b828203905092915050565b7f4e487b7100000000000000000000000000000000000000000000000000000000600052603260045260246000fd5b7f4e487b7100000000000000000000000000000000000000000000000000000000600052603160045260246000fd5b600061387c82612dc5565b91507fffffffffffffffffffffffffffffffffffffffffffffffffffffffffffffffff8214156138af576138ae6137b0565b5b600182019050919050565b60006040820190506138cf600083018561311f565b6138dc6020830184612cd1565b9392505050565b60006040820190506138f8600083018561311f565b613905602083018461312e565b9392505050565b7f416363657373436f6e74726f6c3a2063616e206f6e6c792072656e6f756e636560008201527f20726f6c657320666f722073656c660000000000000000000000000000000000602082015250565b6000613968602f83613733565b91506139738261390c565b604082019050919050565b600060208201905081810360008301526139978161395b565b9050919050565b7f5265656e7472616e637947756172643a207265656e7472616e742063616c6c00600082015250565b60006139d4601f83613733565b91506139df8261399e565b602082019050919050565b60006020820190508181036000830152613a03816139c7565b9050919050565b7f43616c6c6572206973206e6f7420746865204c656e64696e6720506f6f6c0000600082015250565b6000613a40601e83613733565b9150613a4b82613a0a565b602082019050919050565b60006020820190508181036000830152613a6f81613a33565b9050919050565b7f5061757361626c653a2070617573656400000000000000000000000000000000600082015250565b6000613aac601083613733565b9150613ab782613a76565b602082019050919050565b60006020820190508181036000830152613adb81613a9f565b9050919050565b7f426f72726f77206973206e6f7420616374697665000000000000000000000000600082015250565b6000613b18601483613733565b9150613b2382613ae2565b602082019050919050565b60006020820190508181036000830152613b4781613b0b565b9050919050565b600081905092915050565b7f416363657373436f6e74726f6c3a206163636f756e7420000000000000000000600082015250565b6000613b8f601783613b4e565b9150613b9a82613b59565b601782019050919050565b600081519050919050565b60005b83811015613bce578082015181840152602081019050613bb3565b83811115613bdd576000848401525b50505050565b6000613bee82613ba5565b613bf88185613b4e565b9350613c08818560208601613bb0565b80840191505092915050565b7f206973206d697373696e6720726f6c6520000000000000000000000000000000600082015250565b6000613c4a601183613b4e565b9150613c5582613c14565b601182019050919050565b6000613c6b82613b82565b9150613c778285613be3565b9150613c8282613c3d565b9150613c8e8284613be3565b91508190509392505050565b6000613ca582613ba5565b613caf8185613733565b9350613cbf818560208601613bb0565b613cc881612e45565b840191505092915050565b60006020820190508181036000830152613ced8184613c9a565b905092915050565b7f5061757361626c653a206e6f7420706175736564000000000000000000000000600082015250565b6000613d2b601483613733565b9150613d3682613cf5565b602082019050919050565b60006020820190508181036000830152613d5a81613d1e565b9050919050565b7f4e4654206e6f742077686974656c697374656400000000000000000000000000600082015250565b6000613d97601383613733565b9150613da282613d61565b602082019050919050565b60006020820190508181036000830152613dc681613d8a565b9050919050565b6000606082019050613de2600083018661311f565b613def602083018561311f565b613dfc604083018461312e565b949350505050565b600081519050613e1381612d2d565b92915050565b600060208284031215613e2f57613e2e612c36565b5b6000613e3d84828501613e04565b91505092915050565b7f554e5355434345535346554c5f5452414e534645520000000000000000000000600082015250565b6000613e7c601583613733565b9150613e8782613e46565b602082019050919050565b60006020820190508181036000830152613eab81613e6f565b9050919050565b6000608082019050613ec7600083018761311f565b613ed4602083018661311f565b613ee1604083018561312e565b613eee606083018461312e565b95945050505050565b7f52657061796d656e7420617373657420646f65736e2774206d6174636820626f60008201527f72726f7700000000000000000000000000000000000000000000000000000000602082015250565b6000613f53602483613733565b9150613f5e82613ef7565b604082019050919050565b60006020820190508181036000830152613f8281613f46565b9050919050565b7f52657061796d656e7420616d6f756e7420646f65736e2774206d61746368206260008201527f6f72726f77000000000000000000000000000000000000000000000000000000602082015250565b6000613fe5602583613733565b9150613ff082613f89565b604082019050919050565b6000602082019050818103600083015261401481613fd8565b9050919050565b600061402682612dc5565b915061403183612dc5565b9250817fffffffffffffffffffffffffffffffffffffffffffffffffffffffffffffffff048311821515161561406a576140696137b0565b5b828202905092915050565b600061408082612dc5565b915061408b83612dc5565b9250827fffffffffffffffffffffffffffffffffffffffffffffffffffffffffffffffff038211156140c0576140bf6137b0565b5b828201905092915050565b60006140d682612dc5565b915060008214156140ea576140e96137b0565b5b600182039050919050565b7f537472696e67733a20686578206c656e67746820696e73756666696369656e74600082015250565b600061412b602083613733565b9150614136826140f5565b602082019050919050565b6000602082019050818103600083015261415a8161411e565b9050919050565b7f554e444552434f4c4c41544552414c495a454400000000000000000000000000600082015250565b6000614197601383613733565b91506141a282614161565b602082019050919050565b600060208201905081810360008301526141c68161418a565b9050919050565b7f4e487b7100000000000000000000000000000000000000000000000000000000600052601260045260246000fd5b600061420782612dc5565b915061421283612dc5565b925082614222576142216141cd565b5b82820490509291505056fea2646970667358221220965ebce908dd89bb8ae35ed0b53bd66e97387ba71febe057f9692751c2d851ff64736f6c63430008090033",
  "linkReferences": {},
  "deployedLinkReferences": {}
}