{
  "_format": "hh-sol-artifact-1",
  "contractName": "Configurator",
  "sourceName": "contracts/Configurator.sol",
  "abi": [
    {
      "inputs": [
        {
          "internalType": "address",
          "name": "emergencyAdmin",
          "type": "address"
        },
        {
          "internalType": "address",
          "name": "admin",
          "type": "address"
        }
      ],
      "stateMutability": "nonpayable",
      "type": "constructor"
    },
    {
      "anonymous": false,
      "inputs": [
        {
          "indexed": true,
          "internalType": "bytes32",
          "name": "role",
          "type": "bytes32"
        },
        {
          "indexed": true,
          "internalType": "bytes32",
          "name": "previousAdminRole",
          "type": "bytes32"
        },
        {
          "indexed": true,
          "internalType": "bytes32",
          "name": "newAdminRole",
          "type": "bytes32"
        }
      ],
      "name": "RoleAdminChanged",
      "type": "event"
    },
    {
      "anonymous": false,
      "inputs": [
        {
          "indexed": true,
          "internalType": "bytes32",
          "name": "role",
          "type": "bytes32"
        },
        {
          "indexed": true,
          "internalType": "address",
          "name": "account",
          "type": "address"
        },
        {
          "indexed": true,
          "internalType": "address",
          "name": "sender",
          "type": "address"
        }
      ],
      "name": "RoleGranted",
      "type": "event"
    },
    {
      "anonymous": false,
      "inputs": [
        {
          "indexed": true,
          "internalType": "bytes32",
          "name": "role",
          "type": "bytes32"
        },
        {
          "indexed": true,
          "internalType": "address",
          "name": "account",
          "type": "address"
        },
        {
          "indexed": true,
          "internalType": "address",
          "name": "sender",
          "type": "address"
        }
      ],
      "name": "RoleRevoked",
      "type": "event"
    },
    {
      "inputs": [],
      "name": "ADMIN_ROLE",
      "outputs": [
        {
          "internalType": "bytes32",
          "name": "",
          "type": "bytes32"
        }
      ],
      "stateMutability": "view",
      "type": "function"
    },
    {
      "inputs": [],
      "name": "DEFAULT_ADMIN_ROLE",
      "outputs": [
        {
          "internalType": "bytes32",
          "name": "",
          "type": "bytes32"
        }
      ],
      "stateMutability": "view",
      "type": "function"
    },
    {
      "inputs": [],
      "name": "EMERGENCY_ADMIN_ROLE",
      "outputs": [
        {
          "internalType": "bytes32",
          "name": "",
          "type": "bytes32"
        }
      ],
      "stateMutability": "view",
      "type": "function"
    },
    {
      "inputs": [
        {
          "internalType": "address",
          "name": "asset",
          "type": "address"
        }
      ],
      "name": "activateLendingPoolReserve",
      "outputs": [],
      "stateMutability": "nonpayable",
      "type": "function"
    },
    {
      "inputs": [],
      "name": "collateralManagerAddress",
      "outputs": [
        {
          "internalType": "address",
          "name": "",
          "type": "address"
        }
      ],
      "stateMutability": "view",
      "type": "function"
    },
    {
      "inputs": [
        {
          "internalType": "address",
          "name": "_collateralManagerAddress",
          "type": "address"
        }
      ],
      "name": "connectCollateralManager",
      "outputs": [],
      "stateMutability": "nonpayable",
      "type": "function"
    },
    {
      "inputs": [
        {
          "internalType": "address",
          "name": "_lendingPoolAddress",
          "type": "address"
        }
      ],
      "name": "connectLendingPool",
      "outputs": [],
      "stateMutability": "nonpayable",
      "type": "function"
    },
    {
      "inputs": [],
      "name": "connectLendingPoolCollateralManager",
      "outputs": [],
      "stateMutability": "nonpayable",
      "type": "function"
    },
    {
      "inputs": [
        {
          "internalType": "address",
          "name": "tokenPriceOracleAddress",
          "type": "address"
        }
      ],
      "name": "connectLendingPoolTokenPriceOracle",
      "outputs": [],
      "stateMutability": "nonpayable",
      "type": "function"
    },
    {
      "inputs": [
        {
          "internalType": "address",
          "name": "asset",
          "type": "address"
        }
      ],
      "name": "freezeLendingPoolReserve",
      "outputs": [],
      "stateMutability": "nonpayable",
      "type": "function"
    },
    {
      "inputs": [],
      "name": "getLendingPoolAddress",
      "outputs": [
        {
          "internalType": "address",
          "name": "",
          "type": "address"
        }
      ],
      "stateMutability": "view",
      "type": "function"
    },
    {
      "inputs": [
        {
          "internalType": "bytes32",
          "name": "role",
          "type": "bytes32"
        }
      ],
      "name": "getRoleAdmin",
      "outputs": [
        {
          "internalType": "bytes32",
          "name": "",
          "type": "bytes32"
        }
      ],
      "stateMutability": "view",
      "type": "function"
    },
    {
      "inputs": [
        {
          "internalType": "bytes32",
          "name": "role",
          "type": "bytes32"
        },
        {
          "internalType": "address",
          "name": "account",
          "type": "address"
        }
      ],
      "name": "grantRole",
      "outputs": [],
      "stateMutability": "nonpayable",
      "type": "function"
    },
    {
      "inputs": [
        {
          "internalType": "bytes32",
          "name": "role",
          "type": "bytes32"
        },
        {
          "internalType": "address",
          "name": "account",
          "type": "address"
        }
      ],
      "name": "hasRole",
      "outputs": [
        {
          "internalType": "bool",
          "name": "",
          "type": "bool"
        }
      ],
      "stateMutability": "view",
      "type": "function"
    },
    {
      "inputs": [
        {
          "internalType": "address",
          "name": "asset",
          "type": "address"
        },
        {
          "internalType": "address",
          "name": "nTokenAddress",
          "type": "address"
        },
        {
          "internalType": "address",
          "name": "debtTokenAddress",
          "type": "address"
        }
      ],
      "name": "initLendingPoolReserve",
      "outputs": [],
      "stateMutability": "nonpayable",
      "type": "function"
    },
    {
      "inputs": [],
      "name": "lendingPoolAddress",
      "outputs": [
        {
          "internalType": "address",
          "name": "",
          "type": "address"
        }
      ],
      "stateMutability": "view",
      "type": "function"
    },
    {
      "inputs": [],
      "name": "pauseCollateralManager",
      "outputs": [],
      "stateMutability": "nonpayable",
      "type": "function"
    },
    {
      "inputs": [
        {
          "internalType": "address",
          "name": "debtTokenAddress",
          "type": "address"
        }
      ],
      "name": "pauseDebtToken",
      "outputs": [],
      "stateMutability": "nonpayable",
      "type": "function"
    },
    {
      "inputs": [],
      "name": "pauseLendingPool",
      "outputs": [],
      "stateMutability": "nonpayable",
      "type": "function"
    },
    {
      "inputs": [
        {
          "internalType": "address",
          "name": "asset",
          "type": "address"
        }
      ],
      "name": "pauseLendingPoolReserve",
      "outputs": [],
      "stateMutability": "nonpayable",
      "type": "function"
    },
    {
      "inputs": [
        {
          "internalType": "address",
          "name": "nTokenAddress",
          "type": "address"
        }
      ],
      "name": "pauseNToken",
      "outputs": [],
      "stateMutability": "nonpayable",
      "type": "function"
    },
    {
      "inputs": [
        {
          "internalType": "address",
          "name": "asset",
          "type": "address"
        }
      ],
      "name": "protectLendingPoolReserve",
      "outputs": [],
      "stateMutability": "nonpayable",
      "type": "function"
    },
    {
      "inputs": [
        {
          "internalType": "bytes32",
          "name": "role",
          "type": "bytes32"
        },
        {
          "internalType": "address",
          "name": "account",
          "type": "address"
        }
      ],
      "name": "renounceRole",
      "outputs": [],
      "stateMutability": "nonpayable",
      "type": "function"
    },
    {
      "inputs": [
        {
          "internalType": "bytes32",
          "name": "role",
          "type": "bytes32"
        },
        {
          "internalType": "address",
          "name": "account",
          "type": "address"
        }
      ],
      "name": "revokeRole",
      "outputs": [],
      "stateMutability": "nonpayable",
      "type": "function"
    },
    {
      "inputs": [
        {
          "internalType": "address",
          "name": "erc721token",
          "type": "address"
        },
        {
          "internalType": "uint256",
          "name": "interestRate",
          "type": "uint256"
        }
      ],
      "name": "setCollateralManagerInterestRate",
      "outputs": [],
      "stateMutability": "nonpayable",
      "type": "function"
    },
    {
      "inputs": [
        {
          "internalType": "address",
          "name": "_erc721Token",
          "type": "address"
        },
        {
          "internalType": "uint256",
          "name": "_threshold",
          "type": "uint256"
        }
      ],
      "name": "setCollateralManagerLiquidationThreshold",
      "outputs": [],
      "stateMutability": "nonpayable",
      "type": "function"
    },
    {
      "inputs": [
        {
          "internalType": "bytes4",
          "name": "interfaceId",
          "type": "bytes4"
        }
      ],
      "name": "supportsInterface",
      "outputs": [
        {
          "internalType": "bool",
          "name": "",
          "type": "bool"
        }
      ],
      "stateMutability": "view",
      "type": "function"
    },
    {
      "inputs": [],
      "name": "unpauseCollateralManager",
      "outputs": [],
      "stateMutability": "nonpayable",
      "type": "function"
    },
    {
      "inputs": [
        {
          "internalType": "address",
          "name": "debtTokenAddress",
          "type": "address"
        }
      ],
      "name": "unpauseDebtToken",
      "outputs": [],
      "stateMutability": "nonpayable",
      "type": "function"
    },
    {
      "inputs": [],
      "name": "unpauseLendingPool",
      "outputs": [],
      "stateMutability": "nonpayable",
      "type": "function"
    },
    {
      "inputs": [
        {
          "internalType": "address",
          "name": "nTokenAddress",
          "type": "address"
        }
      ],
      "name": "unpauseNToken",
      "outputs": [],
      "stateMutability": "nonpayable",
      "type": "function"
    },
    {
      "inputs": [
        {
          "internalType": "address",
          "name": "erc721Token",
          "type": "address"
        },
        {
          "internalType": "bool",
          "name": "isWhitelisted",
          "type": "bool"
        }
      ],
      "name": "updateCollateralManagerWhitelist",
      "outputs": [],
      "stateMutability": "nonpayable",
      "type": "function"
    }
  ],
  "bytecode": "0x60806040523480156200001157600080fd5b506040516200364c3803806200364c833981810160405281019062000037919062000286565b620000697f5358bcfd81d1ef3da152b1755e1c3c6739686fa7e83dbcad0071568cc4b73a6383620000a360201b60201c565b6200009b7fa49807205ce4d355092ef5a8a18f56e8913cf4a201fbe287825b095693c2177582620000a360201b60201c565b5050620002cd565b620000b58282620000b960201b60201c565b5050565b620000cb8282620001aa60201b60201c565b620001a657600160008084815260200190815260200160002060000160008373ffffffffffffffffffffffffffffffffffffffff1673ffffffffffffffffffffffffffffffffffffffff16815260200190815260200160002060006101000a81548160ff0219169083151502179055506200014b6200021460201b60201c565b73ffffffffffffffffffffffffffffffffffffffff168173ffffffffffffffffffffffffffffffffffffffff16837f2f8788117e7eff1d82e926ec794901d17c78024a50270940304540a733656f0d60405160405180910390a45b5050565b600080600084815260200190815260200160002060000160008373ffffffffffffffffffffffffffffffffffffffff1673ffffffffffffffffffffffffffffffffffffffff16815260200190815260200160002060009054906101000a900460ff16905092915050565b600033905090565b600080fd5b600073ffffffffffffffffffffffffffffffffffffffff82169050919050565b60006200024e8262000221565b9050919050565b620002608162000241565b81146200026c57600080fd5b50565b600081519050620002808162000255565b92915050565b60008060408385031215620002a0576200029f6200021c565b5b6000620002b0858286016200026f565b9250506020620002c3858286016200026f565b9150509250929050565b61336f80620002dd6000396000f3fe608060405234801561001057600080fd5b50600436106101f05760003560e01c806371bf4e891161010f578063b9c5c3ce116100a2578063d547741f11610071578063d547741f14610505578063d6f89def14610521578063f57527d11461053d578063fb4a181f14610559576101f0565b8063b9c5c3ce14610493578063c0251acc146104af578063c10c10d5146104cb578063d3ae26b3146104e7576101f0565b8063a217fddf116100de578063a217fddf14610421578063a70bbab71461043f578063b578ace01461045b578063b998110214610477576101f0565b806371bf4e891461039b57806375b238fc146103b75780637b1b22a7146103d557806391d14854146103f1576101f0565b806337087a4a116101875780635f36a742116101565780635f36a7421461034b578063663476f9146103695780636e76fc8f146103735780636f21f52014610391576101f0565b806337087a4a146102d95780633e1c9994146102f557806343942b9d14610313578063487876681461032f576101f0565b806332adbb8f116101c357806332adbb8f1461028d578063355485ce1461029757806335a194bc146102a157806336568abe146102bd576101f0565b806301ffc9a7146101f5578063248a9ca3146102255780632dd9d566146102555780632f2ff15d14610271575b600080fd5b61020f600480360381019061020a919061293d565b610563565b60405161021c9190612985565b60405180910390f35b61023f600480360381019061023a91906129d6565b6105dd565b60405161024c9190612a12565b60405180910390f35b61026f600480360381019061026a9190612a8b565b6105fc565b005b61028b60048036038101906102869190612ab8565b61078e565b005b6102956107b7565b005b61029f61093d565b005b6102bb60048036038101906102b69190612a8b565b610ac3565b005b6102d760048036038101906102d29190612ab8565b610b77565b005b6102f360048036038101906102ee9190612a8b565b610bfa565b005b6102fd610d8c565b60405161030a9190612b07565b60405180910390f35b61032d60048036038101906103289190612a8b565b610db2565b005b61034960048036038101906103449190612b58565b610e66565b005b610353610ffb565b6040516103609190612b07565b60405180910390f35b610371611025565b005b61037b6112fc565b6040516103889190612a12565b60405180910390f35b610399611320565b005b6103b560048036038101906103b09190612a8b565b6114a6565b005b6103bf611638565b6040516103cc9190612a12565b60405180910390f35b6103ef60048036038101906103ea9190612a8b565b61165c565b005b61040b60048036038101906104069190612ab8565b61172f565b6040516104189190612985565b60405180910390f35b610429611799565b6040516104369190612a12565b60405180910390f35b61045960048036038101906104549190612a8b565b6117a0565b005b61047560048036038101906104709190612b58565b611873565b005b610491600480360381019061048c9190612b98565b611a08565b005b6104ad60048036038101906104a89190612c17565b611ba0565b005b6104c960048036038101906104c49190612a8b565b611d35565b005b6104e560048036038101906104e09190612a8b565b611e08565b005b6104ef611edb565b6040516104fc9190612b07565b60405180910390f35b61051f600480360381019061051a9190612ab8565b611f01565b005b61053b60048036038101906105369190612a8b565b611f2a565b005b61055760048036038101906105529190612a8b565b6120bc565b005b61056161224e565b005b60007f7965db0b000000000000000000000000000000000000000000000000000000007bffffffffffffffffffffffffffffffffffffffffffffffffffffffff1916827bffffffffffffffffffffffffffffffffffffffffffffffffffffffff191614806105d657506105d5826123d4565b5b9050919050565b6000806000838152602001908152602001600020600101549050919050565b61062d7f5358bcfd81d1ef3da152b1755e1c3c6739686fa7e83dbcad0071568cc4b73a6361062861243e565b61172f565b61066c576040517f08c379a000000000000000000000000000000000000000000000000000000000815260040161066390612cb4565b60405180910390fd5b600073ffffffffffffffffffffffffffffffffffffffff16600160009054906101000a900473ffffffffffffffffffffffffffffffffffffffff1673ffffffffffffffffffffffffffffffffffffffff1614156106fe576040517f08c379a00000000000000000000000000000000000000000000000000000000081526004016106f590612d20565b60405180910390fd5b600160009054906101000a900473ffffffffffffffffffffffffffffffffffffffff1673ffffffffffffffffffffffffffffffffffffffff16637aca76eb826040518263ffffffff1660e01b81526004016107599190612b07565b600060405180830381600087803b15801561077357600080fd5b505af1158015610787573d6000803e3d6000fd5b5050505050565b610797826105dd565b6107a8816107a361243e565b612446565b6107b283836124e3565b505050565b6107e87f5358bcfd81d1ef3da152b1755e1c3c6739686fa7e83dbcad0071568cc4b73a636107e361243e565b61172f565b610827576040517f08c379a000000000000000000000000000000000000000000000000000000000815260040161081e90612cb4565b60405180910390fd5b600073ffffffffffffffffffffffffffffffffffffffff16600160009054906101000a900473ffffffffffffffffffffffffffffffffffffffff1673ffffffffffffffffffffffffffffffffffffffff1614156108b9576040517f08c379a00000000000000000000000000000000000000000000000000000000081526004016108b090612d20565b60405180910390fd5b600160009054906101000a900473ffffffffffffffffffffffffffffffffffffffff1673ffffffffffffffffffffffffffffffffffffffff16638456cb596040518163ffffffff1660e01b8152600401600060405180830381600087803b15801561092357600080fd5b505af1158015610937573d6000803e3d6000fd5b50505050565b61096e7f5358bcfd81d1ef3da152b1755e1c3c6739686fa7e83dbcad0071568cc4b73a6361096961243e565b61172f565b6109ad576040517f08c379a00000000000000000000000000000000000000000000000000000000081526004016109a490612cb4565b60405180910390fd5b600073ffffffffffffffffffffffffffffffffffffffff16600160009054906101000a900473ffffffffffffffffffffffffffffffffffffffff1673ffffffffffffffffffffffffffffffffffffffff161415610a3f576040517f08c379a0000000000000000000000000000000000000000000000000000000008152600401610a3690612d20565b60405180910390fd5b600160009054906101000a900473ffffffffffffffffffffffffffffffffffffffff1673ffffffffffffffffffffffffffffffffffffffff16633f4ba83a6040518163ffffffff1660e01b8152600401600060405180830381600087803b158015610aa957600080fd5b505af1158015610abd573d6000803e3d6000fd5b50505050565b610af47fa49807205ce4d355092ef5a8a18f56e8913cf4a201fbe287825b095693c21775610aef61243e565b61172f565b610b33576040517f08c379a0000000000000000000000000000000000000000000000000000000008152600401610b2a90612d8c565b60405180910390fd5b80600260006101000a81548173ffffffffffffffffffffffffffffffffffffffff021916908373ffffffffffffffffffffffffffffffffffffffff16021790555050565b610b7f61243e565b73ffffffffffffffffffffffffffffffffffffffff168173ffffffffffffffffffffffffffffffffffffffff1614610bec576040517f08c379a0000000000000000000000000000000000000000000000000000000008152600401610be390612e1e565b60405180910390fd5b610bf682826125c3565b5050565b610c2b7f5358bcfd81d1ef3da152b1755e1c3c6739686fa7e83dbcad0071568cc4b73a63610c2661243e565b61172f565b610c6a576040517f08c379a0000000000000000000000000000000000000000000000000000000008152600401610c6190612cb4565b60405180910390fd5b600073ffffffffffffffffffffffffffffffffffffffff16600160009054906101000a900473ffffffffffffffffffffffffffffffffffffffff1673ffffffffffffffffffffffffffffffffffffffff161415610cfc576040517f08c379a0000000000000000000000000000000000000000000000000000000008152600401610cf390612d20565b60405180910390fd5b600160009054906101000a900473ffffffffffffffffffffffffffffffffffffffff1673ffffffffffffffffffffffffffffffffffffffff1663b75d6f34826040518263ffffffff1660e01b8152600401610d579190612b07565b600060405180830381600087803b158015610d7157600080fd5b505af1158015610d85573d6000803e3d6000fd5b5050505050565b600260009054906101000a900473ffffffffffffffffffffffffffffffffffffffff1681565b610de37fa49807205ce4d355092ef5a8a18f56e8913cf4a201fbe287825b095693c21775610dde61243e565b61172f565b610e22576040517f08c379a0000000000000000000000000000000000000000000000000000000008152600401610e1990612d8c565b60405180910390fd5b80600160006101000a81548173ffffffffffffffffffffffffffffffffffffffff021916908373ffffffffffffffffffffffffffffffffffffffff16021790555050565b610e977fa49807205ce4d355092ef5a8a18f56e8913cf4a201fbe287825b095693c21775610e9261243e565b61172f565b610ed6576040517f08c379a0000000000000000000000000000000000000000000000000000000008152600401610ecd90612d8c565b60405180910390fd5b600073ffffffffffffffffffffffffffffffffffffffff16600260009054906101000a900473ffffffffffffffffffffffffffffffffffffffff1673ffffffffffffffffffffffffffffffffffffffff161415610f68576040517f08c379a0000000000000000000000000000000000000000000000000000000008152600401610f5f90612e8a565b60405180910390fd5b600260009054906101000a900473ffffffffffffffffffffffffffffffffffffffff1673ffffffffffffffffffffffffffffffffffffffff166373e5515e83836040518363ffffffff1660e01b8152600401610fc5929190612eb9565b600060405180830381600087803b158015610fdf57600080fd5b505af1158015610ff3573d6000803e3d6000fd5b505050505050565b6000600160009054906101000a900473ffffffffffffffffffffffffffffffffffffffff16905090565b6110567fa49807205ce4d355092ef5a8a18f56e8913cf4a201fbe287825b095693c2177561105161243e565b61172f565b611095576040517f08c379a000000000000000000000000000000000000000000000000000000000815260040161108c90612d8c565b60405180910390fd5b600073ffffffffffffffffffffffffffffffffffffffff16600160009054906101000a900473ffffffffffffffffffffffffffffffffffffffff1673ffffffffffffffffffffffffffffffffffffffff161415611127576040517f08c379a000000000000000000000000000000000000000000000000000000000815260040161111e90612d20565b60405180910390fd5b600073ffffffffffffffffffffffffffffffffffffffff16600260009054906101000a900473ffffffffffffffffffffffffffffffffffffffff1673ffffffffffffffffffffffffffffffffffffffff1614156111b9576040517f08c379a00000000000000000000000000000000000000000000000000000000081526004016111b090612e8a565b60405180910390fd5b600073ffffffffffffffffffffffffffffffffffffffff16600260009054906101000a900473ffffffffffffffffffffffffffffffffffffffff1673ffffffffffffffffffffffffffffffffffffffff16141561124b576040517f08c379a000000000000000000000000000000000000000000000000000000000815260040161124290612f2e565b60405180910390fd5b600160009054906101000a900473ffffffffffffffffffffffffffffffffffffffff1673ffffffffffffffffffffffffffffffffffffffff166335a194bc600260009054906101000a900473ffffffffffffffffffffffffffffffffffffffff166040518263ffffffff1660e01b81526004016112c89190612b07565b600060405180830381600087803b1580156112e257600080fd5b505af11580156112f6573d6000803e3d6000fd5b50505050565b7f5358bcfd81d1ef3da152b1755e1c3c6739686fa7e83dbcad0071568cc4b73a6381565b6113517f5358bcfd81d1ef3da152b1755e1c3c6739686fa7e83dbcad0071568cc4b73a6361134c61243e565b61172f565b611390576040517f08c379a000000000000000000000000000000000000000000000000000000000815260040161138790612cb4565b60405180910390fd5b600073ffffffffffffffffffffffffffffffffffffffff16600260009054906101000a900473ffffffffffffffffffffffffffffffffffffffff1673ffffffffffffffffffffffffffffffffffffffff161415611422576040517f08c379a000000000000000000000000000000000000000000000000000000000815260040161141990612e8a565b60405180910390fd5b600260009054906101000a900473ffffffffffffffffffffffffffffffffffffffff1673ffffffffffffffffffffffffffffffffffffffff16638456cb596040518163ffffffff1660e01b8152600401600060405180830381600087803b15801561148c57600080fd5b505af11580156114a0573d6000803e3d6000fd5b50505050565b6114d77f5358bcfd81d1ef3da152b1755e1c3c6739686fa7e83dbcad0071568cc4b73a636114d261243e565b61172f565b611516576040517f08c379a000000000000000000000000000000000000000000000000000000000815260040161150d90612cb4565b60405180910390fd5b600073ffffffffffffffffffffffffffffffffffffffff16600160009054906101000a900473ffffffffffffffffffffffffffffffffffffffff1673ffffffffffffffffffffffffffffffffffffffff1614156115a8576040517f08c379a000000000000000000000000000000000000000000000000000000000815260040161159f90612d20565b60405180910390fd5b600160009054906101000a900473ffffffffffffffffffffffffffffffffffffffff1673ffffffffffffffffffffffffffffffffffffffff1663bc34746f826040518263ffffffff1660e01b81526004016116039190612b07565b600060405180830381600087803b15801561161d57600080fd5b505af1158015611631573d6000803e3d6000fd5b5050505050565b7fa49807205ce4d355092ef5a8a18f56e8913cf4a201fbe287825b095693c2177581565b61168d7f5358bcfd81d1ef3da152b1755e1c3c6739686fa7e83dbcad0071568cc4b73a6361168861243e565b61172f565b6116cc576040517f08c379a00000000000000000000000000000000000000000000000000000000081526004016116c390612cb4565b60405180910390fd5b8073ffffffffffffffffffffffffffffffffffffffff16633f4ba83a6040518163ffffffff1660e01b8152600401600060405180830381600087803b15801561171457600080fd5b505af1158015611728573d6000803e3d6000fd5b5050505050565b600080600084815260200190815260200160002060000160008373ffffffffffffffffffffffffffffffffffffffff1673ffffffffffffffffffffffffffffffffffffffff16815260200190815260200160002060009054906101000a900460ff16905092915050565b6000801b81565b6117d17f5358bcfd81d1ef3da152b1755e1c3c6739686fa7e83dbcad0071568cc4b73a636117cc61243e565b61172f565b611810576040517f08c379a000000000000000000000000000000000000000000000000000000000815260040161180790612cb4565b60405180910390fd5b8073ffffffffffffffffffffffffffffffffffffffff16638456cb596040518163ffffffff1660e01b8152600401600060405180830381600087803b15801561185857600080fd5b505af115801561186c573d6000803e3d6000fd5b5050505050565b6118a47fa49807205ce4d355092ef5a8a18f56e8913cf4a201fbe287825b095693c2177561189f61243e565b61172f565b6118e3576040517f08c379a00000000000000000000000000000000000000000000000000000000081526004016118da90612d8c565b60405180910390fd5b600073ffffffffffffffffffffffffffffffffffffffff16600260009054906101000a900473ffffffffffffffffffffffffffffffffffffffff1673ffffffffffffffffffffffffffffffffffffffff161415611975576040517f08c379a000000000000000000000000000000000000000000000000000000000815260040161196c90612e8a565b60405180910390fd5b600260009054906101000a900473ffffffffffffffffffffffffffffffffffffffff1673ffffffffffffffffffffffffffffffffffffffff16630e30428d83836040518363ffffffff1660e01b81526004016119d2929190612eb9565b600060405180830381600087803b1580156119ec57600080fd5b505af1158015611a00573d6000803e3d6000fd5b505050505050565b611a397fa49807205ce4d355092ef5a8a18f56e8913cf4a201fbe287825b095693c21775611a3461243e565b61172f565b611a78576040517f08c379a0000000000000000000000000000000000000000000000000000000008152600401611a6f90612d8c565b60405180910390fd5b600073ffffffffffffffffffffffffffffffffffffffff16600160009054906101000a900473ffffffffffffffffffffffffffffffffffffffff1673ffffffffffffffffffffffffffffffffffffffff161415611b0a576040517f08c379a0000000000000000000000000000000000000000000000000000000008152600401611b0190612d20565b60405180910390fd5b600160009054906101000a900473ffffffffffffffffffffffffffffffffffffffff1673ffffffffffffffffffffffffffffffffffffffff1663932f12c88484846040518463ffffffff1660e01b8152600401611b6993929190612f4e565b600060405180830381600087803b158015611b8357600080fd5b505af1158015611b97573d6000803e3d6000fd5b50505050505050565b611bd17fa49807205ce4d355092ef5a8a18f56e8913cf4a201fbe287825b095693c21775611bcc61243e565b61172f565b611c10576040517f08c379a0000000000000000000000000000000000000000000000000000000008152600401611c0790612d8c565b60405180910390fd5b600073ffffffffffffffffffffffffffffffffffffffff16600260009054906101000a900473ffffffffffffffffffffffffffffffffffffffff1673ffffffffffffffffffffffffffffffffffffffff161415611ca2576040517f08c379a0000000000000000000000000000000000000000000000000000000008152600401611c9990612e8a565b60405180910390fd5b600260009054906101000a900473ffffffffffffffffffffffffffffffffffffffff1673ffffffffffffffffffffffffffffffffffffffff16630d392cd983836040518363ffffffff1660e01b8152600401611cff929190612f85565b600060405180830381600087803b158015611d1957600080fd5b505af1158015611d2d573d6000803e3d6000fd5b505050505050565b611d667f5358bcfd81d1ef3da152b1755e1c3c6739686fa7e83dbcad0071568cc4b73a63611d6161243e565b61172f565b611da5576040517f08c379a0000000000000000000000000000000000000000000000000000000008152600401611d9c90612cb4565b60405180910390fd5b8073ffffffffffffffffffffffffffffffffffffffff16633f4ba83a6040518163ffffffff1660e01b8152600401600060405180830381600087803b158015611ded57600080fd5b505af1158015611e01573d6000803e3d6000fd5b5050505050565b611e397f5358bcfd81d1ef3da152b1755e1c3c6739686fa7e83dbcad0071568cc4b73a63611e3461243e565b61172f565b611e78576040517f08c379a0000000000000000000000000000000000000000000000000000000008152600401611e6f90612cb4565b60405180910390fd5b8073ffffffffffffffffffffffffffffffffffffffff16638456cb596040518163ffffffff1660e01b8152600401600060405180830381600087803b158015611ec057600080fd5b505af1158015611ed4573d6000803e3d6000fd5b5050505050565b600160009054906101000a900473ffffffffffffffffffffffffffffffffffffffff1681565b611f0a826105dd565b611f1b81611f1661243e565b612446565b611f2583836125c3565b505050565b611f5b7f5358bcfd81d1ef3da152b1755e1c3c6739686fa7e83dbcad0071568cc4b73a63611f5661243e565b61172f565b611f9a576040517f08c379a0000000000000000000000000000000000000000000000000000000008152600401611f9190612cb4565b60405180910390fd5b600073ffffffffffffffffffffffffffffffffffffffff16600160009054906101000a900473ffffffffffffffffffffffffffffffffffffffff1673ffffffffffffffffffffffffffffffffffffffff16141561202c576040517f08c379a000000000000000000000000000000000000000000000000000000000815260040161202390612d20565b60405180910390fd5b600160009054906101000a900473ffffffffffffffffffffffffffffffffffffffff1673ffffffffffffffffffffffffffffffffffffffff16631c29147e826040518263ffffffff1660e01b81526004016120879190612b07565b600060405180830381600087803b1580156120a157600080fd5b505af11580156120b5573d6000803e3d6000fd5b5050505050565b6120ed7fa49807205ce4d355092ef5a8a18f56e8913cf4a201fbe287825b095693c217756120e861243e565b61172f565b61212c576040517f08c379a000000000000000000000000000000000000000000000000000000000815260040161212390612d8c565b60405180910390fd5b600073ffffffffffffffffffffffffffffffffffffffff16600160009054906101000a900473ffffffffffffffffffffffffffffffffffffffff1673ffffffffffffffffffffffffffffffffffffffff1614156121be576040517f08c379a00000000000000000000000000000000000000000000000000000000081526004016121b590612d20565b60405180910390fd5b600160009054906101000a900473ffffffffffffffffffffffffffffffffffffffff1673ffffffffffffffffffffffffffffffffffffffff16632f65edaa826040518263ffffffff1660e01b81526004016122199190612b07565b600060405180830381600087803b15801561223357600080fd5b505af1158015612247573d6000803e3d6000fd5b5050505050565b61227f7f5358bcfd81d1ef3da152b1755e1c3c6739686fa7e83dbcad0071568cc4b73a6361227a61243e565b61172f565b6122be576040517f08c379a00000000000000000000000000000000000000000000000000000000081526004016122b590612cb4565b60405180910390fd5b600073ffffffffffffffffffffffffffffffffffffffff16600260009054906101000a900473ffffffffffffffffffffffffffffffffffffffff1673ffffffffffffffffffffffffffffffffffffffff161415612350576040517f08c379a000000000000000000000000000000000000000000000000000000000815260040161234790612e8a565b60405180910390fd5b600260009054906101000a900473ffffffffffffffffffffffffffffffffffffffff1673ffffffffffffffffffffffffffffffffffffffff16633f4ba83a6040518163ffffffff1660e01b8152600401600060405180830381600087803b1580156123ba57600080fd5b505af11580156123ce573d6000803e3d6000fd5b50505050565b60007f01ffc9a7000000000000000000000000000000000000000000000000000000007bffffffffffffffffffffffffffffffffffffffffffffffffffffffff1916827bffffffffffffffffffffffffffffffffffffffffffffffffffffffff1916149050919050565b600033905090565b612450828261172f565b6124df576124758173ffffffffffffffffffffffffffffffffffffffff1660146126a4565b6124838360001c60206126a4565b6040516020016124949291906130c0565b6040516020818303038152906040526040517f08c379a00000000000000000000000000000000000000000000000000000000081526004016124d69190613144565b60405180910390fd5b5050565b6124ed828261172f565b6125bf57600160008084815260200190815260200160002060000160008373ffffffffffffffffffffffffffffffffffffffff1673ffffffffffffffffffffffffffffffffffffffff16815260200190815260200160002060006101000a81548160ff02191690831515021790555061256461243e565b73ffffffffffffffffffffffffffffffffffffffff168173ffffffffffffffffffffffffffffffffffffffff16837f2f8788117e7eff1d82e926ec794901d17c78024a50270940304540a733656f0d60405160405180910390a45b5050565b6125cd828261172f565b156126a057600080600084815260200190815260200160002060000160008373ffffffffffffffffffffffffffffffffffffffff1673ffffffffffffffffffffffffffffffffffffffff16815260200190815260200160002060006101000a81548160ff02191690831515021790555061264561243e565b73ffffffffffffffffffffffffffffffffffffffff168173ffffffffffffffffffffffffffffffffffffffff16837ff6391f5c32d9c69d2a47ea670b442974b53935d1edc7fd64eb21e047a839171b60405160405180910390a45b5050565b6060600060028360026126b79190613195565b6126c191906131ef565b67ffffffffffffffff8111156126da576126d9613245565b5b6040519080825280601f01601f19166020018201604052801561270c5781602001600182028036833780820191505090505b5090507f30000000000000000000000000000000000000000000000000000000000000008160008151811061274457612743613274565b5b60200101907effffffffffffffffffffffffffffffffffffffffffffffffffffffffffffff1916908160001a9053507f7800000000000000000000000000000000000000000000000000000000000000816001815181106127a8576127a7613274565b5b60200101907effffffffffffffffffffffffffffffffffffffffffffffffffffffffffffff1916908160001a905350600060018460026127e89190613195565b6127f291906131ef565b90505b6001811115612892577f3031323334353637383961626364656600000000000000000000000000000000600f86166010811061283457612833613274565b5b1a60f81b82828151811061284b5761284a613274565b5b60200101907effffffffffffffffffffffffffffffffffffffffffffffffffffffffffffff1916908160001a905350600485901c94508061288b906132a3565b90506127f5565b50600084146128d6576040517f08c379a00000000000000000000000000000000000000000000000000000000081526004016128cd90613319565b60405180910390fd5b8091505092915050565b600080fd5b60007fffffffff0000000000000000000000000000000000000000000000000000000082169050919050565b61291a816128e5565b811461292557600080fd5b50565b60008135905061293781612911565b92915050565b600060208284031215612953576129526128e0565b5b600061296184828501612928565b91505092915050565b60008115159050919050565b61297f8161296a565b82525050565b600060208201905061299a6000830184612976565b92915050565b6000819050919050565b6129b3816129a0565b81146129be57600080fd5b50565b6000813590506129d0816129aa565b92915050565b6000602082840312156129ec576129eb6128e0565b5b60006129fa848285016129c1565b91505092915050565b612a0c816129a0565b82525050565b6000602082019050612a276000830184612a03565b92915050565b600073ffffffffffffffffffffffffffffffffffffffff82169050919050565b6000612a5882612a2d565b9050919050565b612a6881612a4d565b8114612a7357600080fd5b50565b600081359050612a8581612a5f565b92915050565b600060208284031215612aa157612aa06128e0565b5b6000612aaf84828501612a76565b91505092915050565b60008060408385031215612acf57612ace6128e0565b5b6000612add858286016129c1565b9250506020612aee85828601612a76565b9150509250929050565b612b0181612a4d565b82525050565b6000602082019050612b1c6000830184612af8565b92915050565b6000819050919050565b612b3581612b22565b8114612b4057600080fd5b50565b600081359050612b5281612b2c565b92915050565b60008060408385031215612b6f57612b6e6128e0565b5b6000612b7d85828601612a76565b9250506020612b8e85828601612b43565b9150509250929050565b600080600060608486031215612bb157612bb06128e0565b5b6000612bbf86828701612a76565b9350506020612bd086828701612a76565b9250506040612be186828701612a76565b9150509250925092565b612bf48161296a565b8114612bff57600080fd5b50565b600081359050612c1181612beb565b92915050565b60008060408385031215612c2e57612c2d6128e0565b5b6000612c3c85828601612a76565b9250506020612c4d85828601612c02565b9150509250929050565b600082825260208201905092915050565b7f43616c6c6572206973206e6f7420656d657267656e63792061646d696e2e0000600082015250565b6000612c9e601e83612c57565b9150612ca982612c68565b602082019050919050565b60006020820190508181036000830152612ccd81612c91565b9050919050565b7f4c656e64696e67506f6f6c206e6f7420636f6e6e656374656400000000000000600082015250565b6000612d0a601983612c57565b9150612d1582612cd4565b602082019050919050565b60006020820190508181036000830152612d3981612cfd565b9050919050565b7f43616c6c6572206973206e6f742061646d696e2e000000000000000000000000600082015250565b6000612d76601483612c57565b9150612d8182612d40565b602082019050919050565b60006020820190508181036000830152612da581612d69565b9050919050565b7f416363657373436f6e74726f6c3a2063616e206f6e6c792072656e6f756e636560008201527f20726f6c657320666f722073656c660000000000000000000000000000000000602082015250565b6000612e08602f83612c57565b9150612e1382612dac565b604082019050919050565b60006020820190508181036000830152612e3781612dfb565b9050919050565b7f436f6c6c61746572616c4d616e61676572206e6f7420636f6e6e656374656400600082015250565b6000612e74601f83612c57565b9150612e7f82612e3e565b602082019050919050565b60006020820190508181036000830152612ea381612e67565b9050919050565b612eb381612b22565b82525050565b6000604082019050612ece6000830185612af8565b612edb6020830184612eaa565b9392505050565b7f554e444546494e45445f41444452455353000000000000000000000000000000600082015250565b6000612f18601183612c57565b9150612f2382612ee2565b602082019050919050565b60006020820190508181036000830152612f4781612f0b565b9050919050565b6000606082019050612f636000830186612af8565b612f706020830185612af8565b612f7d6040830184612af8565b949350505050565b6000604082019050612f9a6000830185612af8565b612fa76020830184612976565b9392505050565b600081905092915050565b7f416363657373436f6e74726f6c3a206163636f756e7420000000000000000000600082015250565b6000612fef601783612fae565b9150612ffa82612fb9565b601782019050919050565b600081519050919050565b60005b8381101561302e578082015181840152602081019050613013565b8381111561303d576000848401525b50505050565b600061304e82613005565b6130588185612fae565b9350613068818560208601613010565b80840191505092915050565b7f206973206d697373696e6720726f6c6520000000000000000000000000000000600082015250565b60006130aa601183612fae565b91506130b582613074565b601182019050919050565b60006130cb82612fe2565b91506130d78285613043565b91506130e28261309d565b91506130ee8284613043565b91508190509392505050565b6000601f19601f8301169050919050565b600061311682613005565b6131208185612c57565b9350613130818560208601613010565b613139816130fa565b840191505092915050565b6000602082019050818103600083015261315e818461310b565b905092915050565b7f4e487b7100000000000000000000000000000000000000000000000000000000600052601160045260246000fd5b60006131a082612b22565b91506131ab83612b22565b9250817fffffffffffffffffffffffffffffffffffffffffffffffffffffffffffffffff04831182151516156131e4576131e3613166565b5b828202905092915050565b60006131fa82612b22565b915061320583612b22565b9250827fffffffffffffffffffffffffffffffffffffffffffffffffffffffffffffffff0382111561323a57613239613166565b5b828201905092915050565b7f4e487b7100000000000000000000000000000000000000000000000000000000600052604160045260246000fd5b7f4e487b7100000000000000000000000000000000000000000000000000000000600052603260045260246000fd5b60006132ae82612b22565b915060008214156132c2576132c1613166565b5b600182039050919050565b7f537472696e67733a20686578206c656e67746820696e73756666696369656e74600082015250565b6000613303602083612c57565b915061330e826132cd565b602082019050919050565b60006020820190508181036000830152613332816132f6565b905091905056fea26469706673582212204ed9dfb9e3eb6089e5bfadf66d7f96902caacbafd7dc50f46efae3654b8ec46e64736f6c63430008090033",
  "linkReferences": {},
  "deployedLinkReferences": {}
}